{
	"data": {
		"bytecode": {
			"linkReferences": {},
			"object": "6000600b819055600c819055600d819055610100604052608081815260a082905260c082905260e0919091526200003b90601190600462000050565b503480156200004957600080fd5b5062000105565b600183019183908215620000d85791602002820160005b83821115620000a757835183826101000a81548160ff021916908360ff160217905550926020019260010160208160000104928301926001030262000067565b8015620000d65782816101000a81549060ff0219169055600101602081600001049283019260010302620000a7565b505b50620000e6929150620000ea565b5090565b5b80821115620000e657805460ff19168155600101620000eb565b61329180620001156000396000f3fe608060405234801561001057600080fd5b50600436106102325760003560e01c80636a28f82811610130578063c39f49c0116100b8578063e13454161161007c578063e13454161461047d578063e45be8eb14610485578063e8adfbc71461048d578063f2fde38b14610495578063fc6f9468146104a857610232565b8063c39f49c014610434578063cfad527714610447578063d1f7dbcf1461044f578063d411b0fa14610462578063d826f88f1461047557610232565b8063850bad94116100ff578063850bad94146103d357806385dcdf1b146103e65780638da5cb5b14610406578063a42206c91461040e578063ae169a501461042157610232565b80636a28f8281461039d578063704b6c02146103a5578063715018a6146103b85780637c5b4a37146103c057610232565b80633a4f6999116101be578063552164ee11610182578063552164ee1461033e57806359bcbd68146103515780635c17623a146103645780635ea8cd12146103775780636575243f1461038a57610232565b80633a4f6999146102d95780633c6f44bf146102ee578063438209f5146103035780634e45f095146103185780634ed73d281461032b57610232565b80631ff68866116102055780631ff688661461028557806321ce919d1461028d5780632bdff851146102a05780632f506b20146102b3578063324a5562146102c657610232565b806311e420651461023757806314c20d571461024c57806319d8ac611461025f5780631a39d8ef1461027d575b600080fd5b61024a6102453660046128b3565b6104b0565b005b61024a61025a366004612a02565b6105e7565b6102676108cb565b604051610274919061319e565b60405180910390f35b6102676108d1565b61024a6108d7565b61026761029b366004612749565b610935565b61024a6102ae36600461295b565b610963565b6102676102c1366004612a4f565b610cac565b61024a6102d4366004612a89565b610cc9565b6102e1610d13565b60405161027491906131b5565b6102f6610d23565b6040516102749190612b31565b61030b610d32565b6040516102749190612c5a565b6102e161032636600461292b565b610d3b565b61024a610339366004612774565b610d62565b61026761034c36600461292b565b610fee565b6102e161035f366004612a2e565b611062565b61024a610372366004612aa5565b611098565b61024a61038536600461292b565b6110f8565b610267610398366004612a2e565b611127565b610267611140565b61024a6103b3366004612711565b611146565b61024a611192565b61024a6103ce36600461292b565b611206565b6102e16103e136600461292b565b61128b565b6103f96103f4366004612808565b611298565b6040516102749190612bf5565b6102f661141f565b61024a61041c36600461292b565b61142e565b61024a61042f36600461292b565b6116b4565b610267610442366004612a2e565b6118ca565b6102676118e3565b61026761045d366004612a2e565b6118e9565b61026761047036600461292b565b61191b565b61024a611c1c565b61030b611d58565b610267611d63565b6102f6611d69565b61024a6104a3366004612711565b611d78565b6102f6611e23565b600054600160a81b900460ff16806104cb57506104cb611e32565b806104e05750600054600160a01b900460ff16155b6105055760405162461bcd60e51b81526004016104fc90612f85565b60405180910390fd5b600054600160a81b900460ff1615801561053c576000805460ff60a01b1960ff60a81b19909116600160a81b1716600160a01b1790555b600280546001600160a01b03199081166001600160a01b038a81169190911790925560038054821689841617815560058890556004805460ff60a01b1916600160a01b60ff8a16021790921692851692909217905542600e5560408051606081018252603c815260146020820152600a918101919091526105c09160019190612536565b506105ca83611e43565b80156105de576000805460ff60a81b191690555b50505050505050565b6105ef611d58565b1561060c5760405162461bcd60e51b81526004016104fc9061304b565b60105460ff161561062f5760405162461bcd60e51b81526004016104fc90612f4e565b6005548210156106515760405162461bcd60e51b81526004016104fc90612fd3565b60005b60048110156106a65760048054600160a01b900460ff169083908390811061067857fe5b602002015160ff16111561069e5760405162461bcd60e51b81526004016104fc90612d0d565b600101610654565b50600354600b54604051620dce4760ea1b81526000926001600160a01b0316916337391c00916106de91339187918991600401612b45565b602060405180830381600087803b1580156106f857600080fd5b505af115801561070c573d6000803e3d6000fd5b505050506040513d601f19601f820116820180604052508101906107309190612943565b600b546000908152600760209081526040808320805460018101825590845282842001849055338352600a90915290205490915061077257600c805460010190555b336000908152600a6020908152604082208054600181018255908352912001819055600d546107a19084611e8e565b600d5542600e556107b06125c9565b6107b983611298565b905060005b600b81101561086b576108228560096000600b54815260200190815260200160002060008585600b81106107ee57fe5b60200201516001600160401b03166001600160401b0316815260200190815260200160002054611e8e90919063ffffffff16565b600b805460009081526009602052604081209185908590811061084157fe5b602090810291909101516001600160401b03168252810191909152604001600020556001016107be565b50600254610884906001600160a01b0316333087611eba565b336001600160a01b03167fe3d4187f6ca4248660cc0ac8b8056515bac4a8132be2eca31d6d0cc170722a7e836040516108bd919061319e565b60405180910390a250505050565b600e5481565b600d5481565b6004546001600160a01b031633146109015760405162461bcd60e51b81526004016104fc906130b7565b610909611d58565b156109265760405162461bcd60e51b81526004016104fc9061317e565b6010805460ff19166001179055565b600a602052816000526040600020818154811061094e57fe5b90600052602060002001600091509150505481565b61096b611d58565b156109885760405162461bcd60e51b81526004016104fc9061304b565b60105460ff16156109ab5760405162461bcd60e51b81526004016104fc90612f4e565b6005548210156109cd5760405162461bcd60e51b81526004016104fc90612fd3565b6000805b8251811015610c4d5760005b6004811015610a7857600460149054906101000a900460ff1660ff16848381518110610a0557fe5b60200260200101518260048110610a1857fe5b602002015160ff1611158015610a5457506000848381518110610a3757fe5b60200260200101518260048110610a4a57fe5b602002015160ff16115b610a705760405162461bcd60e51b81526004016104fc90612d0d565b6001016109dd565b5060035483516000916001600160a01b0316906337391c00903390879086908110610a9f57fe5b602002602001015188600b546040518563ffffffff1660e01b8152600401610aca9493929190612b45565b602060405180830381600087803b158015610ae457600080fd5b505af1158015610af8573d6000803e3d6000fd5b505050506040513d601f19601f82011682018060405250810190610b1c9190612943565b600b546000908152600760209081526040808320805460018101825590845282842001849055338352600a909152902054909150610b5e57600c805460010190555b336000908152600a6020908152604082208054600181018255908352912001819055600d54610b8d9086611e8e565b600d5542600e55610b9e8386611e8e565b9250610ba86125c9565b610bc4858481518110610bb757fe5b6020026020010151611298565b905060005b600b811015610c4257610bf98760096000600b54815260200190815260200160002060008585600b81106107ee57fe5b600b8054600090815260096020526040812091859085908110610c1857fe5b602090810291909101516001600160401b0316825281019190915260400160002055600101610bc9565b5050506001016109d1565b50600254610c66906001600160a01b0316333084611eba565b336001600160a01b03167f96c35ad1cc1743f26cb87980c38042de8082358ec6d171a7986d6e11dddfe85782604051610c9f919061319e565b60405180910390a2505050565b600960209081526000928352604080842090915290825290205481565b6004546001600160a01b03163314610cf35760405162461bcd60e51b81526004016104fc906130b7565b6004805460ff909216600160a01b0260ff60a01b19909216919091179055565b600454600160a01b900460ff1681565b6002546001600160a01b031681565b60105460ff1681565b600f8160048110610d4857fe5b60209182820401919006915054906101000a900460ff1681565b6000805b8251811015610f265760035483516001600160a01b0390911690636352211e90859084908110610d9257fe5b60200260200101516040518263ffffffff1660e01b8152600401610db6919061319e565b60206040518083038186803b158015610dce57600080fd5b505afa158015610de2573d6000803e3d6000fd5b505050506040513d601f19601f82011682018060405250810190610e06919061272d565b6001600160a01b0316336001600160a01b031614610e365760405162461bcd60e51b81526004016104fc90612e97565b60035483516001600160a01b03909116906336dbd2f990859084908110610e5957fe5b60200260200101516040518263ffffffff1660e01b8152600401610e7d919061319e565b60206040518083038186803b158015610e9557600080fd5b505afa158015610ea9573d6000803e3d6000fd5b505050506040513d601f19601f82011682018060405250810190610ecd9190612893565b15610eea5760405162461bcd60e51b81526004016104fc90612f2d565b6000610f08848381518110610efb57fe5b602002602001015161191b565b90508015610f1d57610f1a8184611e8e565b92505b50600101610d66565b50600354604051637431035560e01b81526001600160a01b0390911690637431035590610f57908590600401612bb1565b600060405180830381600087803b158015610f7157600080fd5b505af1158015610f85573d6000803e3d6000fd5b505050506000811115610fa957600254610fa9906001600160a01b03163383611f12565b336001600160a01b03167f6606374655494f5c0e2d6f392656e9777afd9ac5f61527d1bcad50b7e918a03e82604051610fe2919061319e565b60405180910390a25050565b6000600b548211156110125760405162461bcd60e51b81526004016104fc90612d3a565b61101a611d58565b1580156110285750600b5482145b156110365750600d5461105d565b6000828152600860205260408120805490919061104f57fe5b906000526020600020015490505b919050565b6006602052816000526040600020816004811061107b57fe5b602081049091015460ff601f9092166101000a9004169150829050565b6004546001600160a01b031633146110c25760405162461bcd60e51b81526004016104fc906130b7565b6040805160608101825260ff808616825284811660208301528316918101919091526110f2906001906003612536565b50505050565b6004546001600160a01b031633146111225760405162461bcd60e51b81526004016104fc906130b7565b600555565b6007602052816000526040600020818154811061094e57fe5b600b5481565b6000546001600160a01b031633146111705760405162461bcd60e51b81526004016104fc90613082565b600480546001600160a01b0319166001600160a01b0392909216919091179055565b6000546001600160a01b031633146111bc5760405162461bcd60e51b81526004016104fc90613082565b600080546040516001600160a01b03909116907f8be0079c531659141344cd1fd0a4f28419497f9722a3daafe3b4186f6b6457e0908390a3600080546001600160a01b0319169055565b6004546001600160a01b031633146112305760405162461bcd60e51b81526004016104fc906130b7565b600254611247906001600160a01b03163383611f12565b336001600160a01b03167f050d1c64cc22ce461b9bc14f6b73852566da02b03c155242bc63169d1fec42aa82604051611280919061319e565b60405180910390a250565b60018160038110610d4857fe5b6112a06125c9565b6112a86125e8565b825160ff9081168252602080850151821690830152604080850151821690830152606080850151909116908201526112de6125c9565b6060828101805160408086018051602080890180518a516201000094850264010000000092830266010000000000009092029190910101909601650100020003009081016001600160401b039081168b52855183518d51908702908a02010163010002009081018216948c0194909452885183518d51908702908a02010163010003009081018216978c0197909752885186518d51908702908a020101630200030090810182169a8c019a909a5288518651845190870299029890980190970101861660808a015280518a51840201610100908101871660a08b015284518b5185020161020001871660c08b015287519a518402909a0161030001861660e08a015283518151840201909101851698880198909852845197518102909701909101821661012086015291519151909402010190911661014082015292915050565b6000546001600160a01b031690565b6004546001600160a01b031633146114585760405162461bcd60e51b81526004016104fc906130b7565b611460611d58565b1561147d5760405162461bcd60e51b81526004016104fc90612cc9565b60105460ff1661149f5760405162461bcd60e51b81526004016104fc90612ef6565b6004546000908190600160a01b900460ff16436000190140825b600a8110156114d6576114cd600b54610fee565b506001016114b9565b5060005a905081600c5482886040516020016114f59493929190612c7b565b60408051601f19818403018152908290528051602091820120600f805460ff191687830660010160ff811691909117909155600d54919850965061153f92859285918b9101612c7b565b60408051601f19818403018152908290528051602091820120600f805460ff8884066001019081166101000261ff001990921691909117909155600e54919850965061159192859285918b9101612c7b565b60408051808303601f19018152908290528051602091820120600f805460ff600189850601908116620100000262ff0000199092169190911790915590975095506115e291849184918a9101612c65565b60408051808303601f190181529181528151602092830120600f805460ff60018985060190811663010000000263ff00000019909216919091178255600b546000908152600690955292909320909750909550611640916004612606565b50611649611f36565b600b546000908152600860205260409020611665916004612639565b506010805460ff19169055600b546040517fa13e935b188993737b3009d62bd916dcbe9e82d8236d75981eeadf26a1460d3d906116a490600f90612c27565b60405180910390a2505050505050565b6003546040516331a9108f60e11b81526001600160a01b0390911690636352211e906116e490849060040161319e565b60206040518083038186803b1580156116fc57600080fd5b505afa158015611710573d6000803e3d6000fd5b505050506040513d601f19601f82011682018060405250810190611734919061272d565b6001600160a01b0316336001600160a01b0316146117645760405162461bcd60e51b81526004016104fc90612e97565b6003546040516336dbd2f960e01b81526001600160a01b03909116906336dbd2f99061179490849060040161319e565b60206040518083038186803b1580156117ac57600080fd5b505afa1580156117c0573d6000803e3d6000fd5b505050506040513d601f19601f820116820180604052508101906117e49190612893565b156118015760405162461bcd60e51b81526004016104fc90612f2d565b600061180c8261191b565b600354604051630ae169a560e41b81529192506001600160a01b03169063ae169a509061183d90859060040161319e565b600060405180830381600087803b15801561185757600080fd5b505af115801561186b573d6000803e3d6000fd5b50505050600081111561188f5760025461188f906001600160a01b03163383611f12565b336001600160a01b03167f34fcbac0073d7c3d388e51312faf357774904998eeb8fca628b9e6f65ee1cbf78383604051610fe29291906131a7565b6008602052816000526040600020818154811061094e57fe5b600c5481565b60008281526008602052604081208054600584900390811061190757fe5b906000526020600020015490505b92915050565b600354604051631bf1e00f60e01b815260009182916001600160a01b0390911690631bf1e00f9061195090869060040161319e565b60206040518083038186803b15801561196857600080fd5b505afa15801561197c573d6000803e3d6000fd5b505050506040513d601f19601f820116820180604052508101906119a09190612943565b90506119aa6125e8565b600354604051635f8e26a760e01b81526001600160a01b0390911690635f8e26a7906119da90879060040161319e565b60806040518083038186803b1580156119f257600080fd5b505afa158015611a06573d6000803e3d6000fd5b505050506040513d601f19601f82011682018060405250810190611a2a9190612823565b9050611a346125e8565b600083815260066020526040808220815160808101928390529290916004918390855b825461010083900a900460ff16815260206001928301818104948501949093039092029101808411611a575790505050505050905080600060048110611a9957fe5b602002015160ff16611abd5760405162461bcd60e51b81526004016104fc90612ce9565b6000805b6004811015611b0757838160048110611ad657fe5b602002015160ff16838260048110611aea57fe5b602002015160ff161415611aff578160010191505b600101611ac1565b5060006001821115611c0257600354604051637bd0606560e11b81526000916001600160a01b03169063f7a0c0ca90611b44908b9060040161319e565b60206040518083038186803b158015611b5c57600080fd5b505afa158015611b70573d6000803e3d6000fd5b505050506040513d601f19601f82011682018060405250810190611b949190612943565b90506000611bdb6064611bd560018760040360038110611bb057fe5b602081049091015460ff601f9092166101000a900416611bcf8b610fee565b9061219b565b906121d5565b9050611bfd81611bcf611bee8a886118e9565b611bd58664e8d4a5100061219b565b925050505b611c118164e8d4a510006121d5565b979650505050505050565b6004546001600160a01b03163314611c465760405162461bcd60e51b81526004016104fc906130b7565b611c4e611d58565b611c6a5760405162461bcd60e51b81526004016104fc90613113565b42600e556000600c819055600d55600f805463ffffffff191690556010805460ff19169055600b805460018101909155611ca59060046118e9565b611d2a57600154600b54600091611cd091606491611bd59160ff90911690611bcf9060001901610fee565b604080516080810191829052919250611d28918391601190600490826000855b825461010083900a900460ff16815260206001928301818104948501949093039092029101808411611cf05790505050505050612207565b505b600b546040517f01c3cbb0d62726ab09d163873ebf9aed99dd8dc08e57bc938f458132fd178cf690600090a2565b600f5460ff16151590565b60055481565b6003546001600160a01b031681565b6000546001600160a01b03163314611da25760405162461bcd60e51b81526004016104fc90613082565b6001600160a01b038116611dc85760405162461bcd60e51b81526004016104fc90612d71565b600080546040516001600160a01b03808516939216917f8be0079c531659141344cd1fd0a4f28419497f9722a3daafe3b4186f6b6457e091a3600080546001600160a01b0319166001600160a01b0392909216919091179055565b6004546001600160a01b031681565b6000611e3d30612378565b15905090565b600080546001600160a01b0319166001600160a01b03831690811782556040519091907f8be0079c531659141344cd1fd0a4f28419497f9722a3daafe3b4186f6b6457e0908290a350565b600082820183811015611eb35760405162461bcd60e51b81526004016104fc90612db7565b9392505050565b6110f2846323b872dd60e01b858585604051602401611edb93929190612b74565b60408051601f198184030181529190526020810180516001600160e01b03166001600160e01b03199093169290921790915261237e565b611f318363a9059cbb60e01b8484604051602401611edb929190612b98565b505050565b611f3e6125e8565b611f466125c9565b604080516080810191829052611f9991600f90600490826000855b825461010083900a900460ff16815260206001928301818104948501949093039092029101808411611f615790505050505050611298565b600b54600081815260096020818152604080842086516001600160401b039081168652818452828620548787528585528885015190911686528184529185205495855292909152939450612020918560025b60200201516001600160401b03166001600160401b031681526020019081526020016000205482611e8e90919063ffffffff16565b600b5460009081526009602052604081209192506120419190856003611feb565b600b5460009081526009602052604081209192506120629190856004611feb565b9050600061207b61207484600461219b565b839061240d565b600b54600081815260096020818152604080842060a08b01516001600160401b031685528083529084205494845291905292935090916120bd91876006611feb565b600b5460009081526009602052604081209192506120de9190876007611feb565b600b5460009081526009602052604081209192506120ff9190876008611feb565b600b54600090815260096020819052604082209293506121229291908890611feb565b600b546000908152600960205260408120919250612143919087600a611feb565b9050600061217061215585600361219b565b61216a61216388600661219b565b8590611e8e565b9061240d565b60408051608081018252600d5481526020810197909752860193909352505060608301525091505090565b6000826121aa57506000611915565b828202828482816121b757fe5b0414611eb35760405162461bcd60e51b81526004016104fc9061300a565b60008082116121f65760405162461bcd60e51b81526004016104fc90612ebf565b8183816121ff57fe5b049392505050565b61220f611d58565b1561222c5760405162461bcd60e51b81526004016104fc9061304b565b60005b60048110156122815760048054600160a01b900460ff169083908390811061225357fe5b602002015160ff1611156122795760405162461bcd60e51b81526004016104fc90612dee565b60010161222f565b50600354600b54604051620dce4760ea1b81526000926001600160a01b0316916337391c00916122b991309187918991600401612b45565b602060405180830381600087803b1580156122d357600080fd5b505af11580156122e7573d6000803e3d6000fd5b505050506040513d601f19601f8201168201806040525081019061230b9190612943565b600b54600090815260076020908152604082208054600181018255908352912001819055600d5490915061233f9084611e8e565b600d5542600e5560405130907fe3d4187f6ca4248660cc0ac8b8056515bac4a8132be2eca31d6d0cc170722a7e90610c9f90849061319e565b3b151590565b60606123d3826040518060400160405280602081526020017f5361666545524332303a206c6f772d6c6576656c2063616c6c206661696c6564815250856001600160a01b03166124359092919063ffffffff16565b805190915015611f3157808060200190518101906123f19190612893565b611f315760405162461bcd60e51b81526004016104fc90613134565b60008282111561242f5760405162461bcd60e51b81526004016104fc90612e1a565b50900390565b6060612444848460008561244c565b949350505050565b60608247101561246e5760405162461bcd60e51b81526004016104fc90612e51565b61247785612378565b6124935760405162461bcd60e51b81526004016104fc906130dc565b60006060866001600160a01b031685876040516124b09190612b15565b60006040518083038185875af1925050503d80600081146124ed576040519150601f19603f3d011682016040523d82523d6000602084013e6124f2565b606091505b5091509150611c118282866060831561250c575081611eb3565b82511561251c5782518084602001fd5b8160405162461bcd60e51b81526004016104fc9190612c96565b6001830191839082156125b95791602002820160005b8382111561258a57835183826101000a81548160ff021916908360ff160217905550926020019260010160208160000104928301926001030261254c565b80156125b75782816101000a81549060ff021916905560010160208160000104928301926001030261258a565b505b506125c5929150612680565b5090565b604051806101600160405280600b906020820280368337509192915050565b60405180608001604052806004906020820280368337509192915050565b6001830191839082156125b95791601f016020900482015b828111156125b957825482559160010191906001019061261e565b828054828255906000526020600020908101928215612674579160200282015b82811115612674578251825591602001919060010190612659565b506125c5929150612699565b5b808211156125c557805460ff19168155600101612681565b5b808211156125c5576000815560010161269a565b600082601f8301126126be578081fd5b6126c860806131c3565b90508082846080850111156126dc57600080fd5b60005b60048110156127085781356126f38161324c565b835260209283019291909101906001016126df565b50505092915050565b600060208284031215612722578081fd5b8135611eb381613234565b60006020828403121561273e578081fd5b8151611eb381613234565b6000806040838503121561275b578081fd5b823561276681613234565b946020939093013593505050565b60006020808385031215612786578182fd5b82356001600160401b0381111561279b578283fd5b8301601f810185136127ab578283fd5b80356127be6127b9826131e9565b6131c3565b81815283810190838501858402850186018910156127da578687fd5b8694505b838510156127fc5780358352600194909401939185019185016127de565b50979650505050505050565b600060808284031215612819578081fd5b611eb383836126ae565b600060808284031215612834578081fd5b82601f830112612842578081fd5b61284c60806131c3565b80838560808601111561285d578384fd5b835b60048110156128885781516128738161324c565b8452602093840193919091019060010161285f565b509095945050505050565b6000602082840312156128a4578081fd5b81518015158114611eb3578182fd5b60008060008060008060c087890312156128cb578182fd5b86356128d681613234565b955060208701356128e681613234565b94506040870135935060608701356128fd8161324c565b9250608087013561290d81613234565b915060a087013561291d81613234565b809150509295509295509295565b60006020828403121561293c578081fd5b5035919050565b600060208284031215612954578081fd5b5051919050565b6000806040838503121561296d578182fd5b823591506020808401356001600160401b0381111561298a578283fd5b8401601f8101861361299a578283fd5b80356129a86127b9826131e9565b818152838101908385016080808502860187018b10156129c6578788fd5b8795505b848610156129f2576129dc8b836126ae565b84526001959095019492860192908101906129ca565b5096999098509650505050505050565b60008060a08385031215612a14578182fd5b82359150612a2584602085016126ae565b90509250929050565b60008060408385031215612a40578182fd5b50508035926020909101359150565b60008060408385031215612a61578182fd5b8235915060208301356001600160401b0381168114612a7e578182fd5b809150509250929050565b600060208284031215612a9a578081fd5b8135611eb38161324c565b600080600060608486031215612ab9578081fd5b8335612ac48161324c565b92506020840135612ad48161324c565b91506040840135612ae48161324c565b809150509250925092565b8060005b60048110156110f257815160ff16845260209384019390910190600101612af3565b60008251612b27818460208701613208565b9190910192915050565b6001600160a01b0391909116815260200190565b6001600160a01b038516815260e08101612b626020830186612aef565b60a082019390935260c0015292915050565b6001600160a01b039384168152919092166020820152604081019190915260600190565b6001600160a01b03929092168252602082015260400190565b6020808252825182820181905260009190848201906040850190845b81811015612be957835183529284019291840191600101612bcd565b50909695505050505050565b6101608101818360005b600b8110156127085781516001600160401b0316835260209283019290910190600101612bff565b905460ff8082168352600882901c81166020840152601082901c8116604084015260189190911c16606082015260800190565b901515815260200190565b9283526020830191909152604082015260600190565b93845260208401929092526040830152606082015260800190565b6000602082528251806020840152612cb5816040850160208701613208565b601f01601f19169190910160400192915050565b60208082526006908201526572657365743f60d01b604082015260600190565b6020808252600a90820152691b9bdd08191c985dd95960b21b604082015260600190565b602080825260139082015272657863656564206e756d6265722073636f706560681b604082015260600190565b60208082526019908201527f5f6973737565496e646578203c3d206973737565496e64657800000000000000604082015260600190565b60208082526026908201527f4f776e61626c653a206e6577206f776e657220697320746865207a65726f206160408201526564647265737360d01b606082015260800190565b6020808252601b908201527f536166654d6174683a206164646974696f6e206f766572666c6f770000000000604082015260600190565b60208082526012908201527165786365656420746865206d6178696d756d60701b604082015260600190565b6020808252601e908201527f536166654d6174683a207375627472616374696f6e206f766572666c6f770000604082015260600190565b60208082526026908201527f416464726573733a20696e73756666696369656e742062616c616e636520666f6040820152651c8818d85b1b60d21b606082015260800190565b6020808252600e908201526d3737ba10333937b69037bbb732b960911b604082015260600190565b6020808252601a908201527f536166654d6174683a206469766973696f6e206279207a65726f000000000000604082015260600190565b60208082526019908201527f656e7465722064726177696e6720706861736520666972737400000000000000604082015260600190565b60208082526007908201526618db185a5b595960ca1b604082015260600190565b60208082526018908201527f64726177696e672c2063616e206e6f7420627579206e6f770000000000000000604082015260600190565b6020808252602e908201527f496e697469616c697a61626c653a20636f6e747261637420697320616c72656160408201526d191e481a5b9a5d1a585b1a5e995960921b606082015260800190565b60208082526019908201527f7072696365206d7573742061626f7665206d696e507269636500000000000000604082015260600190565b60208082526021908201527f536166654d6174683a206d756c7469706c69636174696f6e206f766572666c6f6040820152607760f81b606082015260800190565b60208082526017908201527f6472617765642c2063616e206e6f7420627579206e6f77000000000000000000604082015260600190565b6020808252818101527f4f776e61626c653a2063616c6c6572206973206e6f7420746865206f776e6572604082015260600190565b6020808252600b908201526a61646d696e3a207775743f60a81b604082015260600190565b6020808252601d908201527f416464726573733a2063616c6c20746f206e6f6e2d636f6e7472616374000000604082015260600190565b6020808252600790820152666472617765643f60c81b604082015260600190565b6020808252602a908201527f5361666545524332303a204552433230206f7065726174696f6e20646964206e6040820152691bdd081cdd58d8d9595960b21b606082015260800190565b602080825260069082015265191c985dd95960d21b604082015260600190565b90815260200190565b918252602082015260400190565b60ff91909116815260200190565b6040518181016001600160401b03811182821017156131e157600080fd5b604052919050565b60006001600160401b038211156131fe578081fd5b5060209081020190565b60005b8381101561322357818101518382015260200161320b565b838111156110f25750506000910152565b6001600160a01b038116811461324957600080fd5b50565b60ff8116811461324957600080fdfea264697066735822122061f6cc465ef0f94a78f52191bed4555fed8feea6b43814e4afd0b61b79231cd664736f6c634300060c0033",
			"opcodes": "PUSH1 0x0 PUSH1 0xB DUP2 SWAP1 SSTORE PUSH1 0xC DUP2 SWAP1 SSTORE PUSH1 0xD DUP2 SWAP1 SSTORE PUSH2 0x100 PUSH1 0x40 MSTORE PUSH1 0x80 DUP2 DUP2 MSTORE PUSH1 0xA0 DUP3 SWAP1 MSTORE PUSH1 0xC0 DUP3 SWAP1 MSTORE PUSH1 0xE0 SWAP2 SWAP1 SWAP2 MSTORE PUSH3 0x3B SWAP1 PUSH1 0x11 SWAP1 PUSH1 0x4 PUSH3 0x50 JUMP JUMPDEST POP CALLVALUE DUP1 ISZERO PUSH3 0x49 JUMPI PUSH1 0x0 DUP1 REVERT JUMPDEST POP PUSH3 0x105 JUMP JUMPDEST PUSH1 0x1 DUP4 ADD SWAP2 DUP4 SWAP1 DUP3 ISZERO PUSH3 0xD8 JUMPI SWAP2 PUSH1 0x20 MUL DUP3 ADD PUSH1 0x0 JUMPDEST DUP4 DUP3 GT ISZERO PUSH3 0xA7 JUMPI DUP4 MLOAD DUP4 DUP3 PUSH2 0x100 EXP DUP2 SLOAD DUP2 PUSH1 0xFF MUL NOT AND SWAP1 DUP4 PUSH1 0xFF AND MUL OR SWAP1 SSTORE POP SWAP3 PUSH1 0x20 ADD SWAP3 PUSH1 0x1 ADD PUSH1 0x20 DUP2 PUSH1 0x0 ADD DIV SWAP3 DUP4 ADD SWAP3 PUSH1 0x1 SUB MUL PUSH3 0x67 JUMP JUMPDEST DUP1 ISZERO PUSH3 0xD6 JUMPI DUP3 DUP2 PUSH2 0x100 EXP DUP2 SLOAD SWAP1 PUSH1 0xFF MUL NOT AND SWAP1 SSTORE PUSH1 0x1 ADD PUSH1 0x20 DUP2 PUSH1 0x0 ADD DIV SWAP3 DUP4 ADD SWAP3 PUSH1 0x1 SUB MUL PUSH3 0xA7 JUMP JUMPDEST POP JUMPDEST POP PUSH3 0xE6 SWAP3 SWAP2 POP PUSH3 0xEA JUMP JUMPDEST POP SWAP1 JUMP JUMPDEST JUMPDEST DUP1 DUP3 GT ISZERO PUSH3 0xE6 JUMPI DUP1 SLOAD PUSH1 0xFF NOT AND DUP2 SSTORE PUSH1 0x1 ADD PUSH3 0xEB JUMP JUMPDEST PUSH2 0x3291 DUP1 PUSH3 0x115 PUSH1 0x0 CODECOPY PUSH1 0x0 RETURN INVALID PUSH1 0x80 PUSH1 0x40 MSTORE CALLVALUE DUP1 ISZERO PUSH2 0x10 JUMPI PUSH1 0x0 DUP1 REVERT JUMPDEST POP PUSH1 0x4 CALLDATASIZE LT PUSH2 0x232 JUMPI PUSH1 0x0 CALLDATALOAD PUSH1 0xE0 SHR DUP1 PUSH4 0x6A28F828 GT PUSH2 0x130 JUMPI DUP1 PUSH4 0xC39F49C0 GT PUSH2 0xB8 JUMPI DUP1 PUSH4 0xE1345416 GT PUSH2 0x7C JUMPI DUP1 PUSH4 0xE1345416 EQ PUSH2 0x47D JUMPI DUP1 PUSH4 0xE45BE8EB EQ PUSH2 0x485 JUMPI DUP1 PUSH4 0xE8ADFBC7 EQ PUSH2 0x48D JUMPI DUP1 PUSH4 0xF2FDE38B EQ PUSH2 0x495 JUMPI DUP1 PUSH4 0xFC6F9468 EQ PUSH2 0x4A8 JUMPI PUSH2 0x232 JUMP JUMPDEST DUP1 PUSH4 0xC39F49C0 EQ PUSH2 0x434 JUMPI DUP1 PUSH4 0xCFAD5277 EQ PUSH2 0x447 JUMPI DUP1 PUSH4 0xD1F7DBCF EQ PUSH2 0x44F JUMPI DUP1 PUSH4 0xD411B0FA EQ PUSH2 0x462 JUMPI DUP1 PUSH4 0xD826F88F EQ PUSH2 0x475 JUMPI PUSH2 0x232 JUMP JUMPDEST DUP1 PUSH4 0x850BAD94 GT PUSH2 0xFF JUMPI DUP1 PUSH4 0x850BAD94 EQ PUSH2 0x3D3 JUMPI DUP1 PUSH4 0x85DCDF1B EQ PUSH2 0x3E6 JUMPI DUP1 PUSH4 0x8DA5CB5B EQ PUSH2 0x406 JUMPI DUP1 PUSH4 0xA42206C9 EQ PUSH2 0x40E JUMPI DUP1 PUSH4 0xAE169A50 EQ PUSH2 0x421 JUMPI PUSH2 0x232 JUMP JUMPDEST DUP1 PUSH4 0x6A28F828 EQ PUSH2 0x39D JUMPI DUP1 PUSH4 0x704B6C02 EQ PUSH2 0x3A5 JUMPI DUP1 PUSH4 0x715018A6 EQ PUSH2 0x3B8 JUMPI DUP1 PUSH4 0x7C5B4A37 EQ PUSH2 0x3C0 JUMPI PUSH2 0x232 JUMP JUMPDEST DUP1 PUSH4 0x3A4F6999 GT PUSH2 0x1BE JUMPI DUP1 PUSH4 0x552164EE GT PUSH2 0x182 JUMPI DUP1 PUSH4 0x552164EE EQ PUSH2 0x33E JUMPI DUP1 PUSH4 0x59BCBD68 EQ PUSH2 0x351 JUMPI DUP1 PUSH4 0x5C17623A EQ PUSH2 0x364 JUMPI DUP1 PUSH4 0x5EA8CD12 EQ PUSH2 0x377 JUMPI DUP1 PUSH4 0x6575243F EQ PUSH2 0x38A JUMPI PUSH2 0x232 JUMP JUMPDEST DUP1 PUSH4 0x3A4F6999 EQ PUSH2 0x2D9 JUMPI DUP1 PUSH4 0x3C6F44BF EQ PUSH2 0x2EE JUMPI DUP1 PUSH4 0x438209F5 EQ PUSH2 0x303 JUMPI DUP1 PUSH4 0x4E45F095 EQ PUSH2 0x318 JUMPI DUP1 PUSH4 0x4ED73D28 EQ PUSH2 0x32B JUMPI PUSH2 0x232 JUMP JUMPDEST DUP1 PUSH4 0x1FF68866 GT PUSH2 0x205 JUMPI DUP1 PUSH4 0x1FF68866 EQ PUSH2 0x285 JUMPI DUP1 PUSH4 0x21CE919D EQ PUSH2 0x28D JUMPI DUP1 PUSH4 0x2BDFF851 EQ PUSH2 0x2A0 JUMPI DUP1 PUSH4 0x2F506B20 EQ PUSH2 0x2B3 JUMPI DUP1 PUSH4 0x324A5562 EQ PUSH2 0x2C6 JUMPI PUSH2 0x232 JUMP JUMPDEST DUP1 PUSH4 0x11E42065 EQ PUSH2 0x237 JUMPI DUP1 PUSH4 0x14C20D57 EQ PUSH2 0x24C JUMPI DUP1 PUSH4 0x19D8AC61 EQ PUSH2 0x25F JUMPI DUP1 PUSH4 0x1A39D8EF EQ PUSH2 0x27D JUMPI JUMPDEST PUSH1 0x0 DUP1 REVERT JUMPDEST PUSH2 0x24A PUSH2 0x245 CALLDATASIZE PUSH1 0x4 PUSH2 0x28B3 JUMP JUMPDEST PUSH2 0x4B0 JUMP JUMPDEST STOP JUMPDEST PUSH2 0x24A PUSH2 0x25A CALLDATASIZE PUSH1 0x4 PUSH2 0x2A02 JUMP JUMPDEST PUSH2 0x5E7 JUMP JUMPDEST PUSH2 0x267 PUSH2 0x8CB JUMP JUMPDEST PUSH1 0x40 MLOAD PUSH2 0x274 SWAP2 SWAP1 PUSH2 0x319E JUMP JUMPDEST PUSH1 0x40 MLOAD DUP1 SWAP2 SUB SWAP1 RETURN JUMPDEST PUSH2 0x267 PUSH2 0x8D1 JUMP JUMPDEST PUSH2 0x24A PUSH2 0x8D7 JUMP JUMPDEST PUSH2 0x267 PUSH2 0x29B CALLDATASIZE PUSH1 0x4 PUSH2 0x2749 JUMP JUMPDEST PUSH2 0x935 JUMP JUMPDEST PUSH2 0x24A PUSH2 0x2AE CALLDATASIZE PUSH1 0x4 PUSH2 0x295B JUMP JUMPDEST PUSH2 0x963 JUMP JUMPDEST PUSH2 0x267 PUSH2 0x2C1 CALLDATASIZE PUSH1 0x4 PUSH2 0x2A4F JUMP JUMPDEST PUSH2 0xCAC JUMP JUMPDEST PUSH2 0x24A PUSH2 0x2D4 CALLDATASIZE PUSH1 0x4 PUSH2 0x2A89 JUMP JUMPDEST PUSH2 0xCC9 JUMP JUMPDEST PUSH2 0x2E1 PUSH2 0xD13 JUMP JUMPDEST PUSH1 0x40 MLOAD PUSH2 0x274 SWAP2 SWAP1 PUSH2 0x31B5 JUMP JUMPDEST PUSH2 0x2F6 PUSH2 0xD23 JUMP JUMPDEST PUSH1 0x40 MLOAD PUSH2 0x274 SWAP2 SWAP1 PUSH2 0x2B31 JUMP JUMPDEST PUSH2 0x30B PUSH2 0xD32 JUMP JUMPDEST PUSH1 0x40 MLOAD PUSH2 0x274 SWAP2 SWAP1 PUSH2 0x2C5A JUMP JUMPDEST PUSH2 0x2E1 PUSH2 0x326 CALLDATASIZE PUSH1 0x4 PUSH2 0x292B JUMP JUMPDEST PUSH2 0xD3B JUMP JUMPDEST PUSH2 0x24A PUSH2 0x339 CALLDATASIZE PUSH1 0x4 PUSH2 0x2774 JUMP JUMPDEST PUSH2 0xD62 JUMP JUMPDEST PUSH2 0x267 PUSH2 0x34C CALLDATASIZE PUSH1 0x4 PUSH2 0x292B JUMP JUMPDEST PUSH2 0xFEE JUMP JUMPDEST PUSH2 0x2E1 PUSH2 0x35F CALLDATASIZE PUSH1 0x4 PUSH2 0x2A2E JUMP JUMPDEST PUSH2 0x1062 JUMP JUMPDEST PUSH2 0x24A PUSH2 0x372 CALLDATASIZE PUSH1 0x4 PUSH2 0x2AA5 JUMP JUMPDEST PUSH2 0x1098 JUMP JUMPDEST PUSH2 0x24A PUSH2 0x385 CALLDATASIZE PUSH1 0x4 PUSH2 0x292B JUMP JUMPDEST PUSH2 0x10F8 JUMP JUMPDEST PUSH2 0x267 PUSH2 0x398 CALLDATASIZE PUSH1 0x4 PUSH2 0x2A2E JUMP JUMPDEST PUSH2 0x1127 JUMP JUMPDEST PUSH2 0x267 PUSH2 0x1140 JUMP JUMPDEST PUSH2 0x24A PUSH2 0x3B3 CALLDATASIZE PUSH1 0x4 PUSH2 0x2711 JUMP JUMPDEST PUSH2 0x1146 JUMP JUMPDEST PUSH2 0x24A PUSH2 0x1192 JUMP JUMPDEST PUSH2 0x24A PUSH2 0x3CE CALLDATASIZE PUSH1 0x4 PUSH2 0x292B JUMP JUMPDEST PUSH2 0x1206 JUMP JUMPDEST PUSH2 0x2E1 PUSH2 0x3E1 CALLDATASIZE PUSH1 0x4 PUSH2 0x292B JUMP JUMPDEST PUSH2 0x128B JUMP JUMPDEST PUSH2 0x3F9 PUSH2 0x3F4 CALLDATASIZE PUSH1 0x4 PUSH2 0x2808 JUMP JUMPDEST PUSH2 0x1298 JUMP JUMPDEST PUSH1 0x40 MLOAD PUSH2 0x274 SWAP2 SWAP1 PUSH2 0x2BF5 JUMP JUMPDEST PUSH2 0x2F6 PUSH2 0x141F JUMP JUMPDEST PUSH2 0x24A PUSH2 0x41C CALLDATASIZE PUSH1 0x4 PUSH2 0x292B JUMP JUMPDEST PUSH2 0x142E JUMP JUMPDEST PUSH2 0x24A PUSH2 0x42F CALLDATASIZE PUSH1 0x4 PUSH2 0x292B JUMP JUMPDEST PUSH2 0x16B4 JUMP JUMPDEST PUSH2 0x267 PUSH2 0x442 CALLDATASIZE PUSH1 0x4 PUSH2 0x2A2E JUMP JUMPDEST PUSH2 0x18CA JUMP JUMPDEST PUSH2 0x267 PUSH2 0x18E3 JUMP JUMPDEST PUSH2 0x267 PUSH2 0x45D CALLDATASIZE PUSH1 0x4 PUSH2 0x2A2E JUMP JUMPDEST PUSH2 0x18E9 JUMP JUMPDEST PUSH2 0x267 PUSH2 0x470 CALLDATASIZE PUSH1 0x4 PUSH2 0x292B JUMP JUMPDEST PUSH2 0x191B JUMP JUMPDEST PUSH2 0x24A PUSH2 0x1C1C JUMP JUMPDEST PUSH2 0x30B PUSH2 0x1D58 JUMP JUMPDEST PUSH2 0x267 PUSH2 0x1D63 JUMP JUMPDEST PUSH2 0x2F6 PUSH2 0x1D69 JUMP JUMPDEST PUSH2 0x24A PUSH2 0x4A3 CALLDATASIZE PUSH1 0x4 PUSH2 0x2711 JUMP JUMPDEST PUSH2 0x1D78 JUMP JUMPDEST PUSH2 0x2F6 PUSH2 0x1E23 JUMP JUMPDEST PUSH1 0x0 SLOAD PUSH1 0x1 PUSH1 0xA8 SHL SWAP1 DIV PUSH1 0xFF AND DUP1 PUSH2 0x4CB JUMPI POP PUSH2 0x4CB PUSH2 0x1E32 JUMP JUMPDEST DUP1 PUSH2 0x4E0 JUMPI POP PUSH1 0x0 SLOAD PUSH1 0x1 PUSH1 0xA0 SHL SWAP1 DIV PUSH1 0xFF AND ISZERO JUMPDEST PUSH2 0x505 JUMPI PUSH1 0x40 MLOAD PUSH3 0x461BCD PUSH1 0xE5 SHL DUP2 MSTORE PUSH1 0x4 ADD PUSH2 0x4FC SWAP1 PUSH2 0x2F85 JUMP JUMPDEST PUSH1 0x40 MLOAD DUP1 SWAP2 SUB SWAP1 REVERT JUMPDEST PUSH1 0x0 SLOAD PUSH1 0x1 PUSH1 0xA8 SHL SWAP1 DIV PUSH1 0xFF AND ISZERO DUP1 ISZERO PUSH2 0x53C JUMPI PUSH1 0x0 DUP1 SLOAD PUSH1 0xFF PUSH1 0xA0 SHL NOT PUSH1 0xFF PUSH1 0xA8 SHL NOT SWAP1 SWAP2 AND PUSH1 0x1 PUSH1 0xA8 SHL OR AND PUSH1 0x1 PUSH1 0xA0 SHL OR SWAP1 SSTORE JUMPDEST PUSH1 0x2 DUP1 SLOAD PUSH1 0x1 PUSH1 0x1 PUSH1 0xA0 SHL SUB NOT SWAP1 DUP2 AND PUSH1 0x1 PUSH1 0x1 PUSH1 0xA0 SHL SUB DUP11 DUP2 AND SWAP2 SWAP1 SWAP2 OR SWAP1 SWAP3 SSTORE PUSH1 0x3 DUP1 SLOAD DUP3 AND DUP10 DUP5 AND OR DUP2 SSTORE PUSH1 0x5 DUP9 SWAP1 SSTORE PUSH1 0x4 DUP1 SLOAD PUSH1 0xFF PUSH1 0xA0 SHL NOT AND PUSH1 0x1 PUSH1 0xA0 SHL PUSH1 0xFF DUP11 AND MUL OR SWAP1 SWAP3 AND SWAP3 DUP6 AND SWAP3 SWAP1 SWAP3 OR SWAP1 SSTORE TIMESTAMP PUSH1 0xE SSTORE PUSH1 0x40 DUP1 MLOAD PUSH1 0x60 DUP2 ADD DUP3 MSTORE PUSH1 0x3C DUP2 MSTORE PUSH1 0x14 PUSH1 0x20 DUP3 ADD MSTORE PUSH1 0xA SWAP2 DUP2 ADD SWAP2 SWAP1 SWAP2 MSTORE PUSH2 0x5C0 SWAP2 PUSH1 0x1 SWAP2 SWAP1 PUSH2 0x2536 JUMP JUMPDEST POP PUSH2 0x5CA DUP4 PUSH2 0x1E43 JUMP JUMPDEST DUP1 ISZERO PUSH2 0x5DE JUMPI PUSH1 0x0 DUP1 SLOAD PUSH1 0xFF PUSH1 0xA8 SHL NOT AND SWAP1 SSTORE JUMPDEST POP POP POP POP POP POP POP JUMP JUMPDEST PUSH2 0x5EF PUSH2 0x1D58 JUMP JUMPDEST ISZERO PUSH2 0x60C JUMPI PUSH1 0x40 MLOAD PUSH3 0x461BCD PUSH1 0xE5 SHL DUP2 MSTORE PUSH1 0x4 ADD PUSH2 0x4FC SWAP1 PUSH2 0x304B JUMP JUMPDEST PUSH1 0x10 SLOAD PUSH1 0xFF AND ISZERO PUSH2 0x62F JUMPI PUSH1 0x40 MLOAD PUSH3 0x461BCD PUSH1 0xE5 SHL DUP2 MSTORE PUSH1 0x4 ADD PUSH2 0x4FC SWAP1 PUSH2 0x2F4E JUMP JUMPDEST PUSH1 0x5 SLOAD DUP3 LT ISZERO PUSH2 0x651 JUMPI PUSH1 0x40 MLOAD PUSH3 0x461BCD PUSH1 0xE5 SHL DUP2 MSTORE PUSH1 0x4 ADD PUSH2 0x4FC SWAP1 PUSH2 0x2FD3 JUMP JUMPDEST PUSH1 0x0 JUMPDEST PUSH1 0x4 DUP2 LT ISZERO PUSH2 0x6A6 JUMPI PUSH1 0x4 DUP1 SLOAD PUSH1 0x1 PUSH1 0xA0 SHL SWAP1 DIV PUSH1 0xFF AND SWAP1 DUP4 SWAP1 DUP4 SWAP1 DUP2 LT PUSH2 0x678 JUMPI INVALID JUMPDEST PUSH1 0x20 MUL ADD MLOAD PUSH1 0xFF AND GT ISZERO PUSH2 0x69E JUMPI PUSH1 0x40 MLOAD PUSH3 0x461BCD PUSH1 0xE5 SHL DUP2 MSTORE PUSH1 0x4 ADD PUSH2 0x4FC SWAP1 PUSH2 0x2D0D JUMP JUMPDEST PUSH1 0x1 ADD PUSH2 0x654 JUMP JUMPDEST POP PUSH1 0x3 SLOAD PUSH1 0xB SLOAD PUSH1 0x40 MLOAD PUSH3 0xDCE47 PUSH1 0xEA SHL DUP2 MSTORE PUSH1 0x0 SWAP3 PUSH1 0x1 PUSH1 0x1 PUSH1 0xA0 SHL SUB AND SWAP2 PUSH4 0x37391C00 SWAP2 PUSH2 0x6DE SWAP2 CALLER SWAP2 DUP8 SWAP2 DUP10 SWAP2 PUSH1 0x4 ADD PUSH2 0x2B45 JUMP JUMPDEST PUSH1 0x20 PUSH1 0x40 MLOAD DUP1 DUP4 SUB DUP2 PUSH1 0x0 DUP8 DUP1 EXTCODESIZE ISZERO DUP1 ISZERO PUSH2 0x6F8 JUMPI PUSH1 0x0 DUP1 REVERT JUMPDEST POP GAS CALL ISZERO DUP1 ISZERO PUSH2 0x70C JUMPI RETURNDATASIZE PUSH1 0x0 DUP1 RETURNDATACOPY RETURNDATASIZE PUSH1 0x0 REVERT JUMPDEST POP POP POP POP PUSH1 0x40 MLOAD RETURNDATASIZE PUSH1 0x1F NOT PUSH1 0x1F DUP3 ADD AND DUP3 ADD DUP1 PUSH1 0x40 MSTORE POP DUP2 ADD SWAP1 PUSH2 0x730 SWAP2 SWAP1 PUSH2 0x2943 JUMP JUMPDEST PUSH1 0xB SLOAD PUSH1 0x0 SWAP1 DUP2 MSTORE PUSH1 0x7 PUSH1 0x20 SWAP1 DUP2 MSTORE PUSH1 0x40 DUP1 DUP4 KECCAK256 DUP1 SLOAD PUSH1 0x1 DUP2 ADD DUP3 SSTORE SWAP1 DUP5 MSTORE DUP3 DUP5 KECCAK256 ADD DUP5 SWAP1 SSTORE CALLER DUP4 MSTORE PUSH1 0xA SWAP1 SWAP2 MSTORE SWAP1 KECCAK256 SLOAD SWAP1 SWAP2 POP PUSH2 0x772 JUMPI PUSH1 0xC DUP1 SLOAD PUSH1 0x1 ADD SWAP1 SSTORE JUMPDEST CALLER PUSH1 0x0 SWAP1 DUP2 MSTORE PUSH1 0xA PUSH1 0x20 SWAP1 DUP2 MSTORE PUSH1 0x40 DUP3 KECCAK256 DUP1 SLOAD PUSH1 0x1 DUP2 ADD DUP3 SSTORE SWAP1 DUP4 MSTORE SWAP2 KECCAK256 ADD DUP2 SWAP1 SSTORE PUSH1 0xD SLOAD PUSH2 0x7A1 SWAP1 DUP5 PUSH2 0x1E8E JUMP JUMPDEST PUSH1 0xD SSTORE TIMESTAMP PUSH1 0xE SSTORE PUSH2 0x7B0 PUSH2 0x25C9 JUMP JUMPDEST PUSH2 0x7B9 DUP4 PUSH2 0x1298 JUMP JUMPDEST SWAP1 POP PUSH1 0x0 JUMPDEST PUSH1 0xB DUP2 LT ISZERO PUSH2 0x86B JUMPI PUSH2 0x822 DUP6 PUSH1 0x9 PUSH1 0x0 PUSH1 0xB SLOAD DUP2 MSTORE PUSH1 0x20 ADD SWAP1 DUP2 MSTORE PUSH1 0x20 ADD PUSH1 0x0 KECCAK256 PUSH1 0x0 DUP6 DUP6 PUSH1 0xB DUP2 LT PUSH2 0x7EE JUMPI INVALID JUMPDEST PUSH1 0x20 MUL ADD MLOAD PUSH1 0x1 PUSH1 0x1 PUSH1 0x40 SHL SUB AND PUSH1 0x1 PUSH1 0x1 PUSH1 0x40 SHL SUB AND DUP2 MSTORE PUSH1 0x20 ADD SWAP1 DUP2 MSTORE PUSH1 0x20 ADD PUSH1 0x0 KECCAK256 SLOAD PUSH2 0x1E8E SWAP1 SWAP2 SWAP1 PUSH4 0xFFFFFFFF AND JUMP JUMPDEST PUSH1 0xB DUP1 SLOAD PUSH1 0x0 SWAP1 DUP2 MSTORE PUSH1 0x9 PUSH1 0x20 MSTORE PUSH1 0x40 DUP2 KECCAK256 SWAP2 DUP6 SWAP1 DUP6 SWAP1 DUP2 LT PUSH2 0x841 JUMPI INVALID JUMPDEST PUSH1 0x20 SWAP1 DUP2 MUL SWAP2 SWAP1 SWAP2 ADD MLOAD PUSH1 0x1 PUSH1 0x1 PUSH1 0x40 SHL SUB AND DUP3 MSTORE DUP2 ADD SWAP2 SWAP1 SWAP2 MSTORE PUSH1 0x40 ADD PUSH1 0x0 KECCAK256 SSTORE PUSH1 0x1 ADD PUSH2 0x7BE JUMP JUMPDEST POP PUSH1 0x2 SLOAD PUSH2 0x884 SWAP1 PUSH1 0x1 PUSH1 0x1 PUSH1 0xA0 SHL SUB AND CALLER ADDRESS DUP8 PUSH2 0x1EBA JUMP JUMPDEST CALLER PUSH1 0x1 PUSH1 0x1 PUSH1 0xA0 SHL SUB AND PUSH32 0xE3D4187F6CA4248660CC0AC8B8056515BAC4A8132BE2ECA31D6D0CC170722A7E DUP4 PUSH1 0x40 MLOAD PUSH2 0x8BD SWAP2 SWAP1 PUSH2 0x319E JUMP JUMPDEST PUSH1 0x40 MLOAD DUP1 SWAP2 SUB SWAP1 LOG2 POP POP POP POP JUMP JUMPDEST PUSH1 0xE SLOAD DUP2 JUMP JUMPDEST PUSH1 0xD SLOAD DUP2 JUMP JUMPDEST PUSH1 0x4 SLOAD PUSH1 0x1 PUSH1 0x1 PUSH1 0xA0 SHL SUB AND CALLER EQ PUSH2 0x901 JUMPI PUSH1 0x40 MLOAD PUSH3 0x461BCD PUSH1 0xE5 SHL DUP2 MSTORE PUSH1 0x4 ADD PUSH2 0x4FC SWAP1 PUSH2 0x30B7 JUMP JUMPDEST PUSH2 0x909 PUSH2 0x1D58 JUMP JUMPDEST ISZERO PUSH2 0x926 JUMPI PUSH1 0x40 MLOAD PUSH3 0x461BCD PUSH1 0xE5 SHL DUP2 MSTORE PUSH1 0x4 ADD PUSH2 0x4FC SWAP1 PUSH2 0x317E JUMP JUMPDEST PUSH1 0x10 DUP1 SLOAD PUSH1 0xFF NOT AND PUSH1 0x1 OR SWAP1 SSTORE JUMP JUMPDEST PUSH1 0xA PUSH1 0x20 MSTORE DUP2 PUSH1 0x0 MSTORE PUSH1 0x40 PUSH1 0x0 KECCAK256 DUP2 DUP2 SLOAD DUP2 LT PUSH2 0x94E JUMPI INVALID JUMPDEST SWAP1 PUSH1 0x0 MSTORE PUSH1 0x20 PUSH1 0x0 KECCAK256 ADD PUSH1 0x0 SWAP2 POP SWAP2 POP POP SLOAD DUP2 JUMP JUMPDEST PUSH2 0x96B PUSH2 0x1D58 JUMP JUMPDEST ISZERO PUSH2 0x988 JUMPI PUSH1 0x40 MLOAD PUSH3 0x461BCD PUSH1 0xE5 SHL DUP2 MSTORE PUSH1 0x4 ADD PUSH2 0x4FC SWAP1 PUSH2 0x304B JUMP JUMPDEST PUSH1 0x10 SLOAD PUSH1 0xFF AND ISZERO PUSH2 0x9AB JUMPI PUSH1 0x40 MLOAD PUSH3 0x461BCD PUSH1 0xE5 SHL DUP2 MSTORE PUSH1 0x4 ADD PUSH2 0x4FC SWAP1 PUSH2 0x2F4E JUMP JUMPDEST PUSH1 0x5 SLOAD DUP3 LT ISZERO PUSH2 0x9CD JUMPI PUSH1 0x40 MLOAD PUSH3 0x461BCD PUSH1 0xE5 SHL DUP2 MSTORE PUSH1 0x4 ADD PUSH2 0x4FC SWAP1 PUSH2 0x2FD3 JUMP JUMPDEST PUSH1 0x0 DUP1 JUMPDEST DUP3 MLOAD DUP2 LT ISZERO PUSH2 0xC4D JUMPI PUSH1 0x0 JUMPDEST PUSH1 0x4 DUP2 LT ISZERO PUSH2 0xA78 JUMPI PUSH1 0x4 PUSH1 0x14 SWAP1 SLOAD SWAP1 PUSH2 0x100 EXP SWAP1 DIV PUSH1 0xFF AND PUSH1 0xFF AND DUP5 DUP4 DUP2 MLOAD DUP2 LT PUSH2 0xA05 JUMPI INVALID JUMPDEST PUSH1 0x20 MUL PUSH1 0x20 ADD ADD MLOAD DUP3 PUSH1 0x4 DUP2 LT PUSH2 0xA18 JUMPI INVALID JUMPDEST PUSH1 0x20 MUL ADD MLOAD PUSH1 0xFF AND GT ISZERO DUP1 ISZERO PUSH2 0xA54 JUMPI POP PUSH1 0x0 DUP5 DUP4 DUP2 MLOAD DUP2 LT PUSH2 0xA37 JUMPI INVALID JUMPDEST PUSH1 0x20 MUL PUSH1 0x20 ADD ADD MLOAD DUP3 PUSH1 0x4 DUP2 LT PUSH2 0xA4A JUMPI INVALID JUMPDEST PUSH1 0x20 MUL ADD MLOAD PUSH1 0xFF AND GT JUMPDEST PUSH2 0xA70 JUMPI PUSH1 0x40 MLOAD PUSH3 0x461BCD PUSH1 0xE5 SHL DUP2 MSTORE PUSH1 0x4 ADD PUSH2 0x4FC SWAP1 PUSH2 0x2D0D JUMP JUMPDEST PUSH1 0x1 ADD PUSH2 0x9DD JUMP JUMPDEST POP PUSH1 0x3 SLOAD DUP4 MLOAD PUSH1 0x0 SWAP2 PUSH1 0x1 PUSH1 0x1 PUSH1 0xA0 SHL SUB AND SWAP1 PUSH4 0x37391C00 SWAP1 CALLER SWAP1 DUP8 SWAP1 DUP7 SWAP1 DUP2 LT PUSH2 0xA9F JUMPI INVALID JUMPDEST PUSH1 0x20 MUL PUSH1 0x20 ADD ADD MLOAD DUP9 PUSH1 0xB SLOAD PUSH1 0x40 MLOAD DUP6 PUSH4 0xFFFFFFFF AND PUSH1 0xE0 SHL DUP2 MSTORE PUSH1 0x4 ADD PUSH2 0xACA SWAP5 SWAP4 SWAP3 SWAP2 SWAP1 PUSH2 0x2B45 JUMP JUMPDEST PUSH1 0x20 PUSH1 0x40 MLOAD DUP1 DUP4 SUB DUP2 PUSH1 0x0 DUP8 DUP1 EXTCODESIZE ISZERO DUP1 ISZERO PUSH2 0xAE4 JUMPI PUSH1 0x0 DUP1 REVERT JUMPDEST POP GAS CALL ISZERO DUP1 ISZERO PUSH2 0xAF8 JUMPI RETURNDATASIZE PUSH1 0x0 DUP1 RETURNDATACOPY RETURNDATASIZE PUSH1 0x0 REVERT JUMPDEST POP POP POP POP PUSH1 0x40 MLOAD RETURNDATASIZE PUSH1 0x1F NOT PUSH1 0x1F DUP3 ADD AND DUP3 ADD DUP1 PUSH1 0x40 MSTORE POP DUP2 ADD SWAP1 PUSH2 0xB1C SWAP2 SWAP1 PUSH2 0x2943 JUMP JUMPDEST PUSH1 0xB SLOAD PUSH1 0x0 SWAP1 DUP2 MSTORE PUSH1 0x7 PUSH1 0x20 SWAP1 DUP2 MSTORE PUSH1 0x40 DUP1 DUP4 KECCAK256 DUP1 SLOAD PUSH1 0x1 DUP2 ADD DUP3 SSTORE SWAP1 DUP5 MSTORE DUP3 DUP5 KECCAK256 ADD DUP5 SWAP1 SSTORE CALLER DUP4 MSTORE PUSH1 0xA SWAP1 SWAP2 MSTORE SWAP1 KECCAK256 SLOAD SWAP1 SWAP2 POP PUSH2 0xB5E JUMPI PUSH1 0xC DUP1 SLOAD PUSH1 0x1 ADD SWAP1 SSTORE JUMPDEST CALLER PUSH1 0x0 SWAP1 DUP2 MSTORE PUSH1 0xA PUSH1 0x20 SWAP1 DUP2 MSTORE PUSH1 0x40 DUP3 KECCAK256 DUP1 SLOAD PUSH1 0x1 DUP2 ADD DUP3 SSTORE SWAP1 DUP4 MSTORE SWAP2 KECCAK256 ADD DUP2 SWAP1 SSTORE PUSH1 0xD SLOAD PUSH2 0xB8D SWAP1 DUP7 PUSH2 0x1E8E JUMP JUMPDEST PUSH1 0xD SSTORE TIMESTAMP PUSH1 0xE SSTORE PUSH2 0xB9E DUP4 DUP7 PUSH2 0x1E8E JUMP JUMPDEST SWAP3 POP PUSH2 0xBA8 PUSH2 0x25C9 JUMP JUMPDEST PUSH2 0xBC4 DUP6 DUP5 DUP2 MLOAD DUP2 LT PUSH2 0xBB7 JUMPI INVALID JUMPDEST PUSH1 0x20 MUL PUSH1 0x20 ADD ADD MLOAD PUSH2 0x1298 JUMP JUMPDEST SWAP1 POP PUSH1 0x0 JUMPDEST PUSH1 0xB DUP2 LT ISZERO PUSH2 0xC42 JUMPI PUSH2 0xBF9 DUP8 PUSH1 0x9 PUSH1 0x0 PUSH1 0xB SLOAD DUP2 MSTORE PUSH1 0x20 ADD SWAP1 DUP2 MSTORE PUSH1 0x20 ADD PUSH1 0x0 KECCAK256 PUSH1 0x0 DUP6 DUP6 PUSH1 0xB DUP2 LT PUSH2 0x7EE JUMPI INVALID JUMPDEST PUSH1 0xB DUP1 SLOAD PUSH1 0x0 SWAP1 DUP2 MSTORE PUSH1 0x9 PUSH1 0x20 MSTORE PUSH1 0x40 DUP2 KECCAK256 SWAP2 DUP6 SWAP1 DUP6 SWAP1 DUP2 LT PUSH2 0xC18 JUMPI INVALID JUMPDEST PUSH1 0x20 SWAP1 DUP2 MUL SWAP2 SWAP1 SWAP2 ADD MLOAD PUSH1 0x1 PUSH1 0x1 PUSH1 0x40 SHL SUB AND DUP3 MSTORE DUP2 ADD SWAP2 SWAP1 SWAP2 MSTORE PUSH1 0x40 ADD PUSH1 0x0 KECCAK256 SSTORE PUSH1 0x1 ADD PUSH2 0xBC9 JUMP JUMPDEST POP POP POP PUSH1 0x1 ADD PUSH2 0x9D1 JUMP JUMPDEST POP PUSH1 0x2 SLOAD PUSH2 0xC66 SWAP1 PUSH1 0x1 PUSH1 0x1 PUSH1 0xA0 SHL SUB AND CALLER ADDRESS DUP5 PUSH2 0x1EBA JUMP JUMPDEST CALLER PUSH1 0x1 PUSH1 0x1 PUSH1 0xA0 SHL SUB AND PUSH32 0x96C35AD1CC1743F26CB87980C38042DE8082358EC6D171A7986D6E11DDDFE857 DUP3 PUSH1 0x40 MLOAD PUSH2 0xC9F SWAP2 SWAP1 PUSH2 0x319E JUMP JUMPDEST PUSH1 0x40 MLOAD DUP1 SWAP2 SUB SWAP1 LOG2 POP POP POP JUMP JUMPDEST PUSH1 0x9 PUSH1 0x20 SWAP1 DUP2 MSTORE PUSH1 0x0 SWAP3 DUP4 MSTORE PUSH1 0x40 DUP1 DUP5 KECCAK256 SWAP1 SWAP2 MSTORE SWAP1 DUP3 MSTORE SWAP1 KECCAK256 SLOAD DUP2 JUMP JUMPDEST PUSH1 0x4 SLOAD PUSH1 0x1 PUSH1 0x1 PUSH1 0xA0 SHL SUB AND CALLER EQ PUSH2 0xCF3 JUMPI PUSH1 0x40 MLOAD PUSH3 0x461BCD PUSH1 0xE5 SHL DUP2 MSTORE PUSH1 0x4 ADD PUSH2 0x4FC SWAP1 PUSH2 0x30B7 JUMP JUMPDEST PUSH1 0x4 DUP1 SLOAD PUSH1 0xFF SWAP1 SWAP3 AND PUSH1 0x1 PUSH1 0xA0 SHL MUL PUSH1 0xFF PUSH1 0xA0 SHL NOT SWAP1 SWAP3 AND SWAP2 SWAP1 SWAP2 OR SWAP1 SSTORE JUMP JUMPDEST PUSH1 0x4 SLOAD PUSH1 0x1 PUSH1 0xA0 SHL SWAP1 DIV PUSH1 0xFF AND DUP2 JUMP JUMPDEST PUSH1 0x2 SLOAD PUSH1 0x1 PUSH1 0x1 PUSH1 0xA0 SHL SUB AND DUP2 JUMP JUMPDEST PUSH1 0x10 SLOAD PUSH1 0xFF AND DUP2 JUMP JUMPDEST PUSH1 0xF DUP2 PUSH1 0x4 DUP2 LT PUSH2 0xD48 JUMPI INVALID JUMPDEST PUSH1 0x20 SWAP2 DUP3 DUP3 DIV ADD SWAP2 SWAP1 MOD SWAP2 POP SLOAD SWAP1 PUSH2 0x100 EXP SWAP1 DIV PUSH1 0xFF AND DUP2 JUMP JUMPDEST PUSH1 0x0 DUP1 JUMPDEST DUP3 MLOAD DUP2 LT ISZERO PUSH2 0xF26 JUMPI PUSH1 0x3 SLOAD DUP4 MLOAD PUSH1 0x1 PUSH1 0x1 PUSH1 0xA0 SHL SUB SWAP1 SWAP2 AND SWAP1 PUSH4 0x6352211E SWAP1 DUP6 SWAP1 DUP5 SWAP1 DUP2 LT PUSH2 0xD92 JUMPI INVALID JUMPDEST PUSH1 0x20 MUL PUSH1 0x20 ADD ADD MLOAD PUSH1 0x40 MLOAD DUP3 PUSH4 0xFFFFFFFF AND PUSH1 0xE0 SHL DUP2 MSTORE PUSH1 0x4 ADD PUSH2 0xDB6 SWAP2 SWAP1 PUSH2 0x319E JUMP JUMPDEST PUSH1 0x20 PUSH1 0x40 MLOAD DUP1 DUP4 SUB DUP2 DUP7 DUP1 EXTCODESIZE ISZERO DUP1 ISZERO PUSH2 0xDCE JUMPI PUSH1 0x0 DUP1 REVERT JUMPDEST POP GAS STATICCALL ISZERO DUP1 ISZERO PUSH2 0xDE2 JUMPI RETURNDATASIZE PUSH1 0x0 DUP1 RETURNDATACOPY RETURNDATASIZE PUSH1 0x0 REVERT JUMPDEST POP POP POP POP PUSH1 0x40 MLOAD RETURNDATASIZE PUSH1 0x1F NOT PUSH1 0x1F DUP3 ADD AND DUP3 ADD DUP1 PUSH1 0x40 MSTORE POP DUP2 ADD SWAP1 PUSH2 0xE06 SWAP2 SWAP1 PUSH2 0x272D JUMP JUMPDEST PUSH1 0x1 PUSH1 0x1 PUSH1 0xA0 SHL SUB AND CALLER PUSH1 0x1 PUSH1 0x1 PUSH1 0xA0 SHL SUB AND EQ PUSH2 0xE36 JUMPI PUSH1 0x40 MLOAD PUSH3 0x461BCD PUSH1 0xE5 SHL DUP2 MSTORE PUSH1 0x4 ADD PUSH2 0x4FC SWAP1 PUSH2 0x2E97 JUMP JUMPDEST PUSH1 0x3 SLOAD DUP4 MLOAD PUSH1 0x1 PUSH1 0x1 PUSH1 0xA0 SHL SUB SWAP1 SWAP2 AND SWAP1 PUSH4 0x36DBD2F9 SWAP1 DUP6 SWAP1 DUP5 SWAP1 DUP2 LT PUSH2 0xE59 JUMPI INVALID JUMPDEST PUSH1 0x20 MUL PUSH1 0x20 ADD ADD MLOAD PUSH1 0x40 MLOAD DUP3 PUSH4 0xFFFFFFFF AND PUSH1 0xE0 SHL DUP2 MSTORE PUSH1 0x4 ADD PUSH2 0xE7D SWAP2 SWAP1 PUSH2 0x319E JUMP JUMPDEST PUSH1 0x20 PUSH1 0x40 MLOAD DUP1 DUP4 SUB DUP2 DUP7 DUP1 EXTCODESIZE ISZERO DUP1 ISZERO PUSH2 0xE95 JUMPI PUSH1 0x0 DUP1 REVERT JUMPDEST POP GAS STATICCALL ISZERO DUP1 ISZERO PUSH2 0xEA9 JUMPI RETURNDATASIZE PUSH1 0x0 DUP1 RETURNDATACOPY RETURNDATASIZE PUSH1 0x0 REVERT JUMPDEST POP POP POP POP PUSH1 0x40 MLOAD RETURNDATASIZE PUSH1 0x1F NOT PUSH1 0x1F DUP3 ADD AND DUP3 ADD DUP1 PUSH1 0x40 MSTORE POP DUP2 ADD SWAP1 PUSH2 0xECD SWAP2 SWAP1 PUSH2 0x2893 JUMP JUMPDEST ISZERO PUSH2 0xEEA JUMPI PUSH1 0x40 MLOAD PUSH3 0x461BCD PUSH1 0xE5 SHL DUP2 MSTORE PUSH1 0x4 ADD PUSH2 0x4FC SWAP1 PUSH2 0x2F2D JUMP JUMPDEST PUSH1 0x0 PUSH2 0xF08 DUP5 DUP4 DUP2 MLOAD DUP2 LT PUSH2 0xEFB JUMPI INVALID JUMPDEST PUSH1 0x20 MUL PUSH1 0x20 ADD ADD MLOAD PUSH2 0x191B JUMP JUMPDEST SWAP1 POP DUP1 ISZERO PUSH2 0xF1D JUMPI PUSH2 0xF1A DUP2 DUP5 PUSH2 0x1E8E JUMP JUMPDEST SWAP3 POP JUMPDEST POP PUSH1 0x1 ADD PUSH2 0xD66 JUMP JUMPDEST POP PUSH1 0x3 SLOAD PUSH1 0x40 MLOAD PUSH4 0x74310355 PUSH1 0xE0 SHL DUP2 MSTORE PUSH1 0x1 PUSH1 0x1 PUSH1 0xA0 SHL SUB SWAP1 SWAP2 AND SWAP1 PUSH4 0x74310355 SWAP1 PUSH2 0xF57 SWAP1 DUP6 SWAP1 PUSH1 0x4 ADD PUSH2 0x2BB1 JUMP JUMPDEST PUSH1 0x0 PUSH1 0x40 MLOAD DUP1 DUP4 SUB DUP2 PUSH1 0x0 DUP8 DUP1 EXTCODESIZE ISZERO DUP1 ISZERO PUSH2 0xF71 JUMPI PUSH1 0x0 DUP1 REVERT JUMPDEST POP GAS CALL ISZERO DUP1 ISZERO PUSH2 0xF85 JUMPI RETURNDATASIZE PUSH1 0x0 DUP1 RETURNDATACOPY RETURNDATASIZE PUSH1 0x0 REVERT JUMPDEST POP POP POP POP PUSH1 0x0 DUP2 GT ISZERO PUSH2 0xFA9 JUMPI PUSH1 0x2 SLOAD PUSH2 0xFA9 SWAP1 PUSH1 0x1 PUSH1 0x1 PUSH1 0xA0 SHL SUB AND CALLER DUP4 PUSH2 0x1F12 JUMP JUMPDEST CALLER PUSH1 0x1 PUSH1 0x1 PUSH1 0xA0 SHL SUB AND PUSH32 0x6606374655494F5C0E2D6F392656E9777AFD9AC5F61527D1BCAD50B7E918A03E DUP3 PUSH1 0x40 MLOAD PUSH2 0xFE2 SWAP2 SWAP1 PUSH2 0x319E JUMP JUMPDEST PUSH1 0x40 MLOAD DUP1 SWAP2 SUB SWAP1 LOG2 POP POP JUMP JUMPDEST PUSH1 0x0 PUSH1 0xB SLOAD DUP3 GT ISZERO PUSH2 0x1012 JUMPI PUSH1 0x40 MLOAD PUSH3 0x461BCD PUSH1 0xE5 SHL DUP2 MSTORE PUSH1 0x4 ADD PUSH2 0x4FC SWAP1 PUSH2 0x2D3A JUMP JUMPDEST PUSH2 0x101A PUSH2 0x1D58 JUMP JUMPDEST ISZERO DUP1 ISZERO PUSH2 0x1028 JUMPI POP PUSH1 0xB SLOAD DUP3 EQ JUMPDEST ISZERO PUSH2 0x1036 JUMPI POP PUSH1 0xD SLOAD PUSH2 0x105D JUMP JUMPDEST PUSH1 0x0 DUP3 DUP2 MSTORE PUSH1 0x8 PUSH1 0x20 MSTORE PUSH1 0x40 DUP2 KECCAK256 DUP1 SLOAD SWAP1 SWAP2 SWAP1 PUSH2 0x104F JUMPI INVALID JUMPDEST SWAP1 PUSH1 0x0 MSTORE PUSH1 0x20 PUSH1 0x0 KECCAK256 ADD SLOAD SWAP1 POP JUMPDEST SWAP2 SWAP1 POP JUMP JUMPDEST PUSH1 0x6 PUSH1 0x20 MSTORE DUP2 PUSH1 0x0 MSTORE PUSH1 0x40 PUSH1 0x0 KECCAK256 DUP2 PUSH1 0x4 DUP2 LT PUSH2 0x107B JUMPI INVALID JUMPDEST PUSH1 0x20 DUP2 DIV SWAP1 SWAP2 ADD SLOAD PUSH1 0xFF PUSH1 0x1F SWAP1 SWAP3 AND PUSH2 0x100 EXP SWAP1 DIV AND SWAP2 POP DUP3 SWAP1 POP JUMP JUMPDEST PUSH1 0x4 SLOAD PUSH1 0x1 PUSH1 0x1 PUSH1 0xA0 SHL SUB AND CALLER EQ PUSH2 0x10C2 JUMPI PUSH1 0x40 MLOAD PUSH3 0x461BCD PUSH1 0xE5 SHL DUP2 MSTORE PUSH1 0x4 ADD PUSH2 0x4FC SWAP1 PUSH2 0x30B7 JUMP JUMPDEST PUSH1 0x40 DUP1 MLOAD PUSH1 0x60 DUP2 ADD DUP3 MSTORE PUSH1 0xFF DUP1 DUP7 AND DUP3 MSTORE DUP5 DUP2 AND PUSH1 0x20 DUP4 ADD MSTORE DUP4 AND SWAP2 DUP2 ADD SWAP2 SWAP1 SWAP2 MSTORE PUSH2 0x10F2 SWAP1 PUSH1 0x1 SWAP1 PUSH1 0x3 PUSH2 0x2536 JUMP JUMPDEST POP POP POP POP JUMP JUMPDEST PUSH1 0x4 SLOAD PUSH1 0x1 PUSH1 0x1 PUSH1 0xA0 SHL SUB AND CALLER EQ PUSH2 0x1122 JUMPI PUSH1 0x40 MLOAD PUSH3 0x461BCD PUSH1 0xE5 SHL DUP2 MSTORE PUSH1 0x4 ADD PUSH2 0x4FC SWAP1 PUSH2 0x30B7 JUMP JUMPDEST PUSH1 0x5 SSTORE JUMP JUMPDEST PUSH1 0x7 PUSH1 0x20 MSTORE DUP2 PUSH1 0x0 MSTORE PUSH1 0x40 PUSH1 0x0 KECCAK256 DUP2 DUP2 SLOAD DUP2 LT PUSH2 0x94E JUMPI INVALID JUMPDEST PUSH1 0xB SLOAD DUP2 JUMP JUMPDEST PUSH1 0x0 SLOAD PUSH1 0x1 PUSH1 0x1 PUSH1 0xA0 SHL SUB AND CALLER EQ PUSH2 0x1170 JUMPI PUSH1 0x40 MLOAD PUSH3 0x461BCD PUSH1 0xE5 SHL DUP2 MSTORE PUSH1 0x4 ADD PUSH2 0x4FC SWAP1 PUSH2 0x3082 JUMP JUMPDEST PUSH1 0x4 DUP1 SLOAD PUSH1 0x1 PUSH1 0x1 PUSH1 0xA0 SHL SUB NOT AND PUSH1 0x1 PUSH1 0x1 PUSH1 0xA0 SHL SUB SWAP3 SWAP1 SWAP3 AND SWAP2 SWAP1 SWAP2 OR SWAP1 SSTORE JUMP JUMPDEST PUSH1 0x0 SLOAD PUSH1 0x1 PUSH1 0x1 PUSH1 0xA0 SHL SUB AND CALLER EQ PUSH2 0x11BC JUMPI PUSH1 0x40 MLOAD PUSH3 0x461BCD PUSH1 0xE5 SHL DUP2 MSTORE PUSH1 0x4 ADD PUSH2 0x4FC SWAP1 PUSH2 0x3082 JUMP JUMPDEST PUSH1 0x0 DUP1 SLOAD PUSH1 0x40 MLOAD PUSH1 0x1 PUSH1 0x1 PUSH1 0xA0 SHL SUB SWAP1 SWAP2 AND SWAP1 PUSH32 0x8BE0079C531659141344CD1FD0A4F28419497F9722A3DAAFE3B4186F6B6457E0 SWAP1 DUP4 SWAP1 LOG3 PUSH1 0x0 DUP1 SLOAD PUSH1 0x1 PUSH1 0x1 PUSH1 0xA0 SHL SUB NOT AND SWAP1 SSTORE JUMP JUMPDEST PUSH1 0x4 SLOAD PUSH1 0x1 PUSH1 0x1 PUSH1 0xA0 SHL SUB AND CALLER EQ PUSH2 0x1230 JUMPI PUSH1 0x40 MLOAD PUSH3 0x461BCD PUSH1 0xE5 SHL DUP2 MSTORE PUSH1 0x4 ADD PUSH2 0x4FC SWAP1 PUSH2 0x30B7 JUMP JUMPDEST PUSH1 0x2 SLOAD PUSH2 0x1247 SWAP1 PUSH1 0x1 PUSH1 0x1 PUSH1 0xA0 SHL SUB AND CALLER DUP4 PUSH2 0x1F12 JUMP JUMPDEST CALLER PUSH1 0x1 PUSH1 0x1 PUSH1 0xA0 SHL SUB AND PUSH32 0x50D1C64CC22CE461B9BC14F6B73852566DA02B03C155242BC63169D1FEC42AA DUP3 PUSH1 0x40 MLOAD PUSH2 0x1280 SWAP2 SWAP1 PUSH2 0x319E JUMP JUMPDEST PUSH1 0x40 MLOAD DUP1 SWAP2 SUB SWAP1 LOG2 POP JUMP JUMPDEST PUSH1 0x1 DUP2 PUSH1 0x3 DUP2 LT PUSH2 0xD48 JUMPI INVALID JUMPDEST PUSH2 0x12A0 PUSH2 0x25C9 JUMP JUMPDEST PUSH2 0x12A8 PUSH2 0x25E8 JUMP JUMPDEST DUP3 MLOAD PUSH1 0xFF SWAP1 DUP2 AND DUP3 MSTORE PUSH1 0x20 DUP1 DUP6 ADD MLOAD DUP3 AND SWAP1 DUP4 ADD MSTORE PUSH1 0x40 DUP1 DUP6 ADD MLOAD DUP3 AND SWAP1 DUP4 ADD MSTORE PUSH1 0x60 DUP1 DUP6 ADD MLOAD SWAP1 SWAP2 AND SWAP1 DUP3 ADD MSTORE PUSH2 0x12DE PUSH2 0x25C9 JUMP JUMPDEST PUSH1 0x60 DUP3 DUP2 ADD DUP1 MLOAD PUSH1 0x40 DUP1 DUP7 ADD DUP1 MLOAD PUSH1 0x20 DUP1 DUP10 ADD DUP1 MLOAD DUP11 MLOAD PUSH3 0x10000 SWAP5 DUP6 MUL PUSH5 0x100000000 SWAP3 DUP4 MUL PUSH7 0x1000000000000 SWAP1 SWAP3 MUL SWAP2 SWAP1 SWAP2 ADD ADD SWAP1 SWAP7 ADD PUSH6 0x10002000300 SWAP1 DUP2 ADD PUSH1 0x1 PUSH1 0x1 PUSH1 0x40 SHL SUB SWAP1 DUP2 AND DUP12 MSTORE DUP6 MLOAD DUP4 MLOAD DUP14 MLOAD SWAP1 DUP8 MUL SWAP1 DUP11 MUL ADD ADD PUSH4 0x1000200 SWAP1 DUP2 ADD DUP3 AND SWAP5 DUP13 ADD SWAP5 SWAP1 SWAP5 MSTORE DUP9 MLOAD DUP4 MLOAD DUP14 MLOAD SWAP1 DUP8 MUL SWAP1 DUP11 MUL ADD ADD PUSH4 0x1000300 SWAP1 DUP2 ADD DUP3 AND SWAP8 DUP13 ADD SWAP8 SWAP1 SWAP8 MSTORE DUP9 MLOAD DUP7 MLOAD DUP14 MLOAD SWAP1 DUP8 MUL SWAP1 DUP11 MUL ADD ADD PUSH4 0x2000300 SWAP1 DUP2 ADD DUP3 AND SWAP11 DUP13 ADD SWAP11 SWAP1 SWAP11 MSTORE DUP9 MLOAD DUP7 MLOAD DUP5 MLOAD SWAP1 DUP8 MUL SWAP10 MUL SWAP9 SWAP1 SWAP9 ADD SWAP1 SWAP8 ADD ADD DUP7 AND PUSH1 0x80 DUP11 ADD MSTORE DUP1 MLOAD DUP11 MLOAD DUP5 MUL ADD PUSH2 0x100 SWAP1 DUP2 ADD DUP8 AND PUSH1 0xA0 DUP12 ADD MSTORE DUP5 MLOAD DUP12 MLOAD DUP6 MUL ADD PUSH2 0x200 ADD DUP8 AND PUSH1 0xC0 DUP12 ADD MSTORE DUP8 MLOAD SWAP11 MLOAD DUP5 MUL SWAP1 SWAP11 ADD PUSH2 0x300 ADD DUP7 AND PUSH1 0xE0 DUP11 ADD MSTORE DUP4 MLOAD DUP2 MLOAD DUP5 MUL ADD SWAP1 SWAP2 ADD DUP6 AND SWAP9 DUP9 ADD SWAP9 SWAP1 SWAP9 MSTORE DUP5 MLOAD SWAP8 MLOAD DUP2 MUL SWAP1 SWAP8 ADD SWAP1 SWAP2 ADD DUP3 AND PUSH2 0x120 DUP7 ADD MSTORE SWAP2 MLOAD SWAP2 MLOAD SWAP1 SWAP5 MUL ADD ADD SWAP1 SWAP2 AND PUSH2 0x140 DUP3 ADD MSTORE SWAP3 SWAP2 POP POP JUMP JUMPDEST PUSH1 0x0 SLOAD PUSH1 0x1 PUSH1 0x1 PUSH1 0xA0 SHL SUB AND SWAP1 JUMP JUMPDEST PUSH1 0x4 SLOAD PUSH1 0x1 PUSH1 0x1 PUSH1 0xA0 SHL SUB AND CALLER EQ PUSH2 0x1458 JUMPI PUSH1 0x40 MLOAD PUSH3 0x461BCD PUSH1 0xE5 SHL DUP2 MSTORE PUSH1 0x4 ADD PUSH2 0x4FC SWAP1 PUSH2 0x30B7 JUMP JUMPDEST PUSH2 0x1460 PUSH2 0x1D58 JUMP JUMPDEST ISZERO PUSH2 0x147D JUMPI PUSH1 0x40 MLOAD PUSH3 0x461BCD PUSH1 0xE5 SHL DUP2 MSTORE PUSH1 0x4 ADD PUSH2 0x4FC SWAP1 PUSH2 0x2CC9 JUMP JUMPDEST PUSH1 0x10 SLOAD PUSH1 0xFF AND PUSH2 0x149F JUMPI PUSH1 0x40 MLOAD PUSH3 0x461BCD PUSH1 0xE5 SHL DUP2 MSTORE PUSH1 0x4 ADD PUSH2 0x4FC SWAP1 PUSH2 0x2EF6 JUMP JUMPDEST PUSH1 0x4 SLOAD PUSH1 0x0 SWAP1 DUP2 SWAP1 PUSH1 0x1 PUSH1 0xA0 SHL SWAP1 DIV PUSH1 0xFF AND NUMBER PUSH1 0x0 NOT ADD BLOCKHASH DUP3 JUMPDEST PUSH1 0xA DUP2 LT ISZERO PUSH2 0x14D6 JUMPI PUSH2 0x14CD PUSH1 0xB SLOAD PUSH2 0xFEE JUMP JUMPDEST POP PUSH1 0x1 ADD PUSH2 0x14B9 JUMP JUMPDEST POP PUSH1 0x0 GAS SWAP1 POP DUP2 PUSH1 0xC SLOAD DUP3 DUP9 PUSH1 0x40 MLOAD PUSH1 0x20 ADD PUSH2 0x14F5 SWAP5 SWAP4 SWAP3 SWAP2 SWAP1 PUSH2 0x2C7B JUMP JUMPDEST PUSH1 0x40 DUP1 MLOAD PUSH1 0x1F NOT DUP2 DUP5 SUB ADD DUP2 MSTORE SWAP1 DUP3 SWAP1 MSTORE DUP1 MLOAD PUSH1 0x20 SWAP2 DUP3 ADD KECCAK256 PUSH1 0xF DUP1 SLOAD PUSH1 0xFF NOT AND DUP8 DUP4 MOD PUSH1 0x1 ADD PUSH1 0xFF DUP2 AND SWAP2 SWAP1 SWAP2 OR SWAP1 SWAP2 SSTORE PUSH1 0xD SLOAD SWAP2 SWAP9 POP SWAP7 POP PUSH2 0x153F SWAP3 DUP6 SWAP3 DUP6 SWAP2 DUP12 SWAP2 ADD PUSH2 0x2C7B JUMP JUMPDEST PUSH1 0x40 DUP1 MLOAD PUSH1 0x1F NOT DUP2 DUP5 SUB ADD DUP2 MSTORE SWAP1 DUP3 SWAP1 MSTORE DUP1 MLOAD PUSH1 0x20 SWAP2 DUP3 ADD KECCAK256 PUSH1 0xF DUP1 SLOAD PUSH1 0xFF DUP9 DUP5 MOD PUSH1 0x1 ADD SWAP1 DUP2 AND PUSH2 0x100 MUL PUSH2 0xFF00 NOT SWAP1 SWAP3 AND SWAP2 SWAP1 SWAP2 OR SWAP1 SWAP2 SSTORE PUSH1 0xE SLOAD SWAP2 SWAP9 POP SWAP7 POP PUSH2 0x1591 SWAP3 DUP6 SWAP3 DUP6 SWAP2 DUP12 SWAP2 ADD PUSH2 0x2C7B JUMP JUMPDEST PUSH1 0x40 DUP1 MLOAD DUP1 DUP4 SUB PUSH1 0x1F NOT ADD DUP2 MSTORE SWAP1 DUP3 SWAP1 MSTORE DUP1 MLOAD PUSH1 0x20 SWAP2 DUP3 ADD KECCAK256 PUSH1 0xF DUP1 SLOAD PUSH1 0xFF PUSH1 0x1 DUP10 DUP6 MOD ADD SWAP1 DUP2 AND PUSH3 0x10000 MUL PUSH3 0xFF0000 NOT SWAP1 SWAP3 AND SWAP2 SWAP1 SWAP2 OR SWAP1 SWAP2 SSTORE SWAP1 SWAP8 POP SWAP6 POP PUSH2 0x15E2 SWAP2 DUP5 SWAP2 DUP5 SWAP2 DUP11 SWAP2 ADD PUSH2 0x2C65 JUMP JUMPDEST PUSH1 0x40 DUP1 MLOAD DUP1 DUP4 SUB PUSH1 0x1F NOT ADD DUP2 MSTORE SWAP2 DUP2 MSTORE DUP2 MLOAD PUSH1 0x20 SWAP3 DUP4 ADD KECCAK256 PUSH1 0xF DUP1 SLOAD PUSH1 0xFF PUSH1 0x1 DUP10 DUP6 MOD ADD SWAP1 DUP2 AND PUSH4 0x1000000 MUL PUSH4 0xFF000000 NOT SWAP1 SWAP3 AND SWAP2 SWAP1 SWAP2 OR DUP3 SSTORE PUSH1 0xB SLOAD PUSH1 0x0 SWAP1 DUP2 MSTORE PUSH1 0x6 SWAP1 SWAP6 MSTORE SWAP3 SWAP1 SWAP4 KECCAK256 SWAP1 SWAP8 POP SWAP1 SWAP6 POP PUSH2 0x1640 SWAP2 PUSH1 0x4 PUSH2 0x2606 JUMP JUMPDEST POP PUSH2 0x1649 PUSH2 0x1F36 JUMP JUMPDEST PUSH1 0xB SLOAD PUSH1 0x0 SWAP1 DUP2 MSTORE PUSH1 0x8 PUSH1 0x20 MSTORE PUSH1 0x40 SWAP1 KECCAK256 PUSH2 0x1665 SWAP2 PUSH1 0x4 PUSH2 0x2639 JUMP JUMPDEST POP PUSH1 0x10 DUP1 SLOAD PUSH1 0xFF NOT AND SWAP1 SSTORE PUSH1 0xB SLOAD PUSH1 0x40 MLOAD PUSH32 0xA13E935B188993737B3009D62BD916DCBE9E82D8236D75981EEADF26A1460D3D SWAP1 PUSH2 0x16A4 SWAP1 PUSH1 0xF SWAP1 PUSH2 0x2C27 JUMP JUMPDEST PUSH1 0x40 MLOAD DUP1 SWAP2 SUB SWAP1 LOG2 POP POP POP POP POP POP JUMP JUMPDEST PUSH1 0x3 SLOAD PUSH1 0x40 MLOAD PUSH4 0x31A9108F PUSH1 0xE1 SHL DUP2 MSTORE PUSH1 0x1 PUSH1 0x1 PUSH1 0xA0 SHL SUB SWAP1 SWAP2 AND SWAP1 PUSH4 0x6352211E SWAP1 PUSH2 0x16E4 SWAP1 DUP5 SWAP1 PUSH1 0x4 ADD PUSH2 0x319E JUMP JUMPDEST PUSH1 0x20 PUSH1 0x40 MLOAD DUP1 DUP4 SUB DUP2 DUP7 DUP1 EXTCODESIZE ISZERO DUP1 ISZERO PUSH2 0x16FC JUMPI PUSH1 0x0 DUP1 REVERT JUMPDEST POP GAS STATICCALL ISZERO DUP1 ISZERO PUSH2 0x1710 JUMPI RETURNDATASIZE PUSH1 0x0 DUP1 RETURNDATACOPY RETURNDATASIZE PUSH1 0x0 REVERT JUMPDEST POP POP POP POP PUSH1 0x40 MLOAD RETURNDATASIZE PUSH1 0x1F NOT PUSH1 0x1F DUP3 ADD AND DUP3 ADD DUP1 PUSH1 0x40 MSTORE POP DUP2 ADD SWAP1 PUSH2 0x1734 SWAP2 SWAP1 PUSH2 0x272D JUMP JUMPDEST PUSH1 0x1 PUSH1 0x1 PUSH1 0xA0 SHL SUB AND CALLER PUSH1 0x1 PUSH1 0x1 PUSH1 0xA0 SHL SUB AND EQ PUSH2 0x1764 JUMPI PUSH1 0x40 MLOAD PUSH3 0x461BCD PUSH1 0xE5 SHL DUP2 MSTORE PUSH1 0x4 ADD PUSH2 0x4FC SWAP1 PUSH2 0x2E97 JUMP JUMPDEST PUSH1 0x3 SLOAD PUSH1 0x40 MLOAD PUSH4 0x36DBD2F9 PUSH1 0xE0 SHL DUP2 MSTORE PUSH1 0x1 PUSH1 0x1 PUSH1 0xA0 SHL SUB SWAP1 SWAP2 AND SWAP1 PUSH4 0x36DBD2F9 SWAP1 PUSH2 0x1794 SWAP1 DUP5 SWAP1 PUSH1 0x4 ADD PUSH2 0x319E JUMP JUMPDEST PUSH1 0x20 PUSH1 0x40 MLOAD DUP1 DUP4 SUB DUP2 DUP7 DUP1 EXTCODESIZE ISZERO DUP1 ISZERO PUSH2 0x17AC JUMPI PUSH1 0x0 DUP1 REVERT JUMPDEST POP GAS STATICCALL ISZERO DUP1 ISZERO PUSH2 0x17C0 JUMPI RETURNDATASIZE PUSH1 0x0 DUP1 RETURNDATACOPY RETURNDATASIZE PUSH1 0x0 REVERT JUMPDEST POP POP POP POP PUSH1 0x40 MLOAD RETURNDATASIZE PUSH1 0x1F NOT PUSH1 0x1F DUP3 ADD AND DUP3 ADD DUP1 PUSH1 0x40 MSTORE POP DUP2 ADD SWAP1 PUSH2 0x17E4 SWAP2 SWAP1 PUSH2 0x2893 JUMP JUMPDEST ISZERO PUSH2 0x1801 JUMPI PUSH1 0x40 MLOAD PUSH3 0x461BCD PUSH1 0xE5 SHL DUP2 MSTORE PUSH1 0x4 ADD PUSH2 0x4FC SWAP1 PUSH2 0x2F2D JUMP JUMPDEST PUSH1 0x0 PUSH2 0x180C DUP3 PUSH2 0x191B JUMP JUMPDEST PUSH1 0x3 SLOAD PUSH1 0x40 MLOAD PUSH4 0xAE169A5 PUSH1 0xE4 SHL DUP2 MSTORE SWAP2 SWAP3 POP PUSH1 0x1 PUSH1 0x1 PUSH1 0xA0 SHL SUB AND SWAP1 PUSH4 0xAE169A50 SWAP1 PUSH2 0x183D SWAP1 DUP6 SWAP1 PUSH1 0x4 ADD PUSH2 0x319E JUMP JUMPDEST PUSH1 0x0 PUSH1 0x40 MLOAD DUP1 DUP4 SUB DUP2 PUSH1 0x0 DUP8 DUP1 EXTCODESIZE ISZERO DUP1 ISZERO PUSH2 0x1857 JUMPI PUSH1 0x0 DUP1 REVERT JUMPDEST POP GAS CALL ISZERO DUP1 ISZERO PUSH2 0x186B JUMPI RETURNDATASIZE PUSH1 0x0 DUP1 RETURNDATACOPY RETURNDATASIZE PUSH1 0x0 REVERT JUMPDEST POP POP POP POP PUSH1 0x0 DUP2 GT ISZERO PUSH2 0x188F JUMPI PUSH1 0x2 SLOAD PUSH2 0x188F SWAP1 PUSH1 0x1 PUSH1 0x1 PUSH1 0xA0 SHL SUB AND CALLER DUP4 PUSH2 0x1F12 JUMP JUMPDEST CALLER PUSH1 0x1 PUSH1 0x1 PUSH1 0xA0 SHL SUB AND PUSH32 0x34FCBAC0073D7C3D388E51312FAF357774904998EEB8FCA628B9E6F65EE1CBF7 DUP4 DUP4 PUSH1 0x40 MLOAD PUSH2 0xFE2 SWAP3 SWAP2 SWAP1 PUSH2 0x31A7 JUMP JUMPDEST PUSH1 0x8 PUSH1 0x20 MSTORE DUP2 PUSH1 0x0 MSTORE PUSH1 0x40 PUSH1 0x0 KECCAK256 DUP2 DUP2 SLOAD DUP2 LT PUSH2 0x94E JUMPI INVALID JUMPDEST PUSH1 0xC SLOAD DUP2 JUMP JUMPDEST PUSH1 0x0 DUP3 DUP2 MSTORE PUSH1 0x8 PUSH1 0x20 MSTORE PUSH1 0x40 DUP2 KECCAK256 DUP1 SLOAD PUSH1 0x5 DUP5 SWAP1 SUB SWAP1 DUP2 LT PUSH2 0x1907 JUMPI INVALID JUMPDEST SWAP1 PUSH1 0x0 MSTORE PUSH1 0x20 PUSH1 0x0 KECCAK256 ADD SLOAD SWAP1 POP JUMPDEST SWAP3 SWAP2 POP POP JUMP JUMPDEST PUSH1 0x3 SLOAD PUSH1 0x40 MLOAD PUSH4 0x1BF1E00F PUSH1 0xE0 SHL DUP2 MSTORE PUSH1 0x0 SWAP2 DUP3 SWAP2 PUSH1 0x1 PUSH1 0x1 PUSH1 0xA0 SHL SUB SWAP1 SWAP2 AND SWAP1 PUSH4 0x1BF1E00F SWAP1 PUSH2 0x1950 SWAP1 DUP7 SWAP1 PUSH1 0x4 ADD PUSH2 0x319E JUMP JUMPDEST PUSH1 0x20 PUSH1 0x40 MLOAD DUP1 DUP4 SUB DUP2 DUP7 DUP1 EXTCODESIZE ISZERO DUP1 ISZERO PUSH2 0x1968 JUMPI PUSH1 0x0 DUP1 REVERT JUMPDEST POP GAS STATICCALL ISZERO DUP1 ISZERO PUSH2 0x197C JUMPI RETURNDATASIZE PUSH1 0x0 DUP1 RETURNDATACOPY RETURNDATASIZE PUSH1 0x0 REVERT JUMPDEST POP POP POP POP PUSH1 0x40 MLOAD RETURNDATASIZE PUSH1 0x1F NOT PUSH1 0x1F DUP3 ADD AND DUP3 ADD DUP1 PUSH1 0x40 MSTORE POP DUP2 ADD SWAP1 PUSH2 0x19A0 SWAP2 SWAP1 PUSH2 0x2943 JUMP JUMPDEST SWAP1 POP PUSH2 0x19AA PUSH2 0x25E8 JUMP JUMPDEST PUSH1 0x3 SLOAD PUSH1 0x40 MLOAD PUSH4 0x5F8E26A7 PUSH1 0xE0 SHL DUP2 MSTORE PUSH1 0x1 PUSH1 0x1 PUSH1 0xA0 SHL SUB SWAP1 SWAP2 AND SWAP1 PUSH4 0x5F8E26A7 SWAP1 PUSH2 0x19DA SWAP1 DUP8 SWAP1 PUSH1 0x4 ADD PUSH2 0x319E JUMP JUMPDEST PUSH1 0x80 PUSH1 0x40 MLOAD DUP1 DUP4 SUB DUP2 DUP7 DUP1 EXTCODESIZE ISZERO DUP1 ISZERO PUSH2 0x19F2 JUMPI PUSH1 0x0 DUP1 REVERT JUMPDEST POP GAS STATICCALL ISZERO DUP1 ISZERO PUSH2 0x1A06 JUMPI RETURNDATASIZE PUSH1 0x0 DUP1 RETURNDATACOPY RETURNDATASIZE PUSH1 0x0 REVERT JUMPDEST POP POP POP POP PUSH1 0x40 MLOAD RETURNDATASIZE PUSH1 0x1F NOT PUSH1 0x1F DUP3 ADD AND DUP3 ADD DUP1 PUSH1 0x40 MSTORE POP DUP2 ADD SWAP1 PUSH2 0x1A2A SWAP2 SWAP1 PUSH2 0x2823 JUMP JUMPDEST SWAP1 POP PUSH2 0x1A34 PUSH2 0x25E8 JUMP JUMPDEST PUSH1 0x0 DUP4 DUP2 MSTORE PUSH1 0x6 PUSH1 0x20 MSTORE PUSH1 0x40 DUP1 DUP3 KECCAK256 DUP2 MLOAD PUSH1 0x80 DUP2 ADD SWAP3 DUP4 SWAP1 MSTORE SWAP3 SWAP1 SWAP2 PUSH1 0x4 SWAP2 DUP4 SWAP1 DUP6 JUMPDEST DUP3 SLOAD PUSH2 0x100 DUP4 SWAP1 EXP SWAP1 DIV PUSH1 0xFF AND DUP2 MSTORE PUSH1 0x20 PUSH1 0x1 SWAP3 DUP4 ADD DUP2 DUP2 DIV SWAP5 DUP6 ADD SWAP5 SWAP1 SWAP4 SUB SWAP1 SWAP3 MUL SWAP2 ADD DUP1 DUP5 GT PUSH2 0x1A57 JUMPI SWAP1 POP POP POP POP POP POP SWAP1 POP DUP1 PUSH1 0x0 PUSH1 0x4 DUP2 LT PUSH2 0x1A99 JUMPI INVALID JUMPDEST PUSH1 0x20 MUL ADD MLOAD PUSH1 0xFF AND PUSH2 0x1ABD JUMPI PUSH1 0x40 MLOAD PUSH3 0x461BCD PUSH1 0xE5 SHL DUP2 MSTORE PUSH1 0x4 ADD PUSH2 0x4FC SWAP1 PUSH2 0x2CE9 JUMP JUMPDEST PUSH1 0x0 DUP1 JUMPDEST PUSH1 0x4 DUP2 LT ISZERO PUSH2 0x1B07 JUMPI DUP4 DUP2 PUSH1 0x4 DUP2 LT PUSH2 0x1AD6 JUMPI INVALID JUMPDEST PUSH1 0x20 MUL ADD MLOAD PUSH1 0xFF AND DUP4 DUP3 PUSH1 0x4 DUP2 LT PUSH2 0x1AEA JUMPI INVALID JUMPDEST PUSH1 0x20 MUL ADD MLOAD PUSH1 0xFF AND EQ ISZERO PUSH2 0x1AFF JUMPI DUP2 PUSH1 0x1 ADD SWAP2 POP JUMPDEST PUSH1 0x1 ADD PUSH2 0x1AC1 JUMP JUMPDEST POP PUSH1 0x0 PUSH1 0x1 DUP3 GT ISZERO PUSH2 0x1C02 JUMPI PUSH1 0x3 SLOAD PUSH1 0x40 MLOAD PUSH4 0x7BD06065 PUSH1 0xE1 SHL DUP2 MSTORE PUSH1 0x0 SWAP2 PUSH1 0x1 PUSH1 0x1 PUSH1 0xA0 SHL SUB AND SWAP1 PUSH4 0xF7A0C0CA SWAP1 PUSH2 0x1B44 SWAP1 DUP12 SWAP1 PUSH1 0x4 ADD PUSH2 0x319E JUMP JUMPDEST PUSH1 0x20 PUSH1 0x40 MLOAD DUP1 DUP4 SUB DUP2 DUP7 DUP1 EXTCODESIZE ISZERO DUP1 ISZERO PUSH2 0x1B5C JUMPI PUSH1 0x0 DUP1 REVERT JUMPDEST POP GAS STATICCALL ISZERO DUP1 ISZERO PUSH2 0x1B70 JUMPI RETURNDATASIZE PUSH1 0x0 DUP1 RETURNDATACOPY RETURNDATASIZE PUSH1 0x0 REVERT JUMPDEST POP POP POP POP PUSH1 0x40 MLOAD RETURNDATASIZE PUSH1 0x1F NOT PUSH1 0x1F DUP3 ADD AND DUP3 ADD DUP1 PUSH1 0x40 MSTORE POP DUP2 ADD SWAP1 PUSH2 0x1B94 SWAP2 SWAP1 PUSH2 0x2943 JUMP JUMPDEST SWAP1 POP PUSH1 0x0 PUSH2 0x1BDB PUSH1 0x64 PUSH2 0x1BD5 PUSH1 0x1 DUP8 PUSH1 0x4 SUB PUSH1 0x3 DUP2 LT PUSH2 0x1BB0 JUMPI INVALID JUMPDEST PUSH1 0x20 DUP2 DIV SWAP1 SWAP2 ADD SLOAD PUSH1 0xFF PUSH1 0x1F SWAP1 SWAP3 AND PUSH2 0x100 EXP SWAP1 DIV AND PUSH2 0x1BCF DUP12 PUSH2 0xFEE JUMP JUMPDEST SWAP1 PUSH2 0x219B JUMP JUMPDEST SWAP1 PUSH2 0x21D5 JUMP JUMPDEST SWAP1 POP PUSH2 0x1BFD DUP2 PUSH2 0x1BCF PUSH2 0x1BEE DUP11 DUP9 PUSH2 0x18E9 JUMP JUMPDEST PUSH2 0x1BD5 DUP7 PUSH5 0xE8D4A51000 PUSH2 0x219B JUMP JUMPDEST SWAP3 POP POP POP JUMPDEST PUSH2 0x1C11 DUP2 PUSH5 0xE8D4A51000 PUSH2 0x21D5 JUMP JUMPDEST SWAP8 SWAP7 POP POP POP POP POP POP POP JUMP JUMPDEST PUSH1 0x4 SLOAD PUSH1 0x1 PUSH1 0x1 PUSH1 0xA0 SHL SUB AND CALLER EQ PUSH2 0x1C46 JUMPI PUSH1 0x40 MLOAD PUSH3 0x461BCD PUSH1 0xE5 SHL DUP2 MSTORE PUSH1 0x4 ADD PUSH2 0x4FC SWAP1 PUSH2 0x30B7 JUMP JUMPDEST PUSH2 0x1C4E PUSH2 0x1D58 JUMP JUMPDEST PUSH2 0x1C6A JUMPI PUSH1 0x40 MLOAD PUSH3 0x461BCD PUSH1 0xE5 SHL DUP2 MSTORE PUSH1 0x4 ADD PUSH2 0x4FC SWAP1 PUSH2 0x3113 JUMP JUMPDEST TIMESTAMP PUSH1 0xE SSTORE PUSH1 0x0 PUSH1 0xC DUP2 SWAP1 SSTORE PUSH1 0xD SSTORE PUSH1 0xF DUP1 SLOAD PUSH4 0xFFFFFFFF NOT AND SWAP1 SSTORE PUSH1 0x10 DUP1 SLOAD PUSH1 0xFF NOT AND SWAP1 SSTORE PUSH1 0xB DUP1 SLOAD PUSH1 0x1 DUP2 ADD SWAP1 SWAP2 SSTORE PUSH2 0x1CA5 SWAP1 PUSH1 0x4 PUSH2 0x18E9 JUMP JUMPDEST PUSH2 0x1D2A JUMPI PUSH1 0x1 SLOAD PUSH1 0xB SLOAD PUSH1 0x0 SWAP2 PUSH2 0x1CD0 SWAP2 PUSH1 0x64 SWAP2 PUSH2 0x1BD5 SWAP2 PUSH1 0xFF SWAP1 SWAP2 AND SWAP1 PUSH2 0x1BCF SWAP1 PUSH1 0x0 NOT ADD PUSH2 0xFEE JUMP JUMPDEST PUSH1 0x40 DUP1 MLOAD PUSH1 0x80 DUP2 ADD SWAP2 DUP3 SWAP1 MSTORE SWAP2 SWAP3 POP PUSH2 0x1D28 SWAP2 DUP4 SWAP2 PUSH1 0x11 SWAP1 PUSH1 0x4 SWAP1 DUP3 PUSH1 0x0 DUP6 JUMPDEST DUP3 SLOAD PUSH2 0x100 DUP4 SWAP1 EXP SWAP1 DIV PUSH1 0xFF AND DUP2 MSTORE PUSH1 0x20 PUSH1 0x1 SWAP3 DUP4 ADD DUP2 DUP2 DIV SWAP5 DUP6 ADD SWAP5 SWAP1 SWAP4 SUB SWAP1 SWAP3 MUL SWAP2 ADD DUP1 DUP5 GT PUSH2 0x1CF0 JUMPI SWAP1 POP POP POP POP POP POP PUSH2 0x2207 JUMP JUMPDEST POP JUMPDEST PUSH1 0xB SLOAD PUSH1 0x40 MLOAD PUSH32 0x1C3CBB0D62726AB09D163873EBF9AED99DD8DC08E57BC938F458132FD178CF6 SWAP1 PUSH1 0x0 SWAP1 LOG2 JUMP JUMPDEST PUSH1 0xF SLOAD PUSH1 0xFF AND ISZERO ISZERO SWAP1 JUMP JUMPDEST PUSH1 0x5 SLOAD DUP2 JUMP JUMPDEST PUSH1 0x3 SLOAD PUSH1 0x1 PUSH1 0x1 PUSH1 0xA0 SHL SUB AND DUP2 JUMP JUMPDEST PUSH1 0x0 SLOAD PUSH1 0x1 PUSH1 0x1 PUSH1 0xA0 SHL SUB AND CALLER EQ PUSH2 0x1DA2 JUMPI PUSH1 0x40 MLOAD PUSH3 0x461BCD PUSH1 0xE5 SHL DUP2 MSTORE PUSH1 0x4 ADD PUSH2 0x4FC SWAP1 PUSH2 0x3082 JUMP JUMPDEST PUSH1 0x1 PUSH1 0x1 PUSH1 0xA0 SHL SUB DUP2 AND PUSH2 0x1DC8 JUMPI PUSH1 0x40 MLOAD PUSH3 0x461BCD PUSH1 0xE5 SHL DUP2 MSTORE PUSH1 0x4 ADD PUSH2 0x4FC SWAP1 PUSH2 0x2D71 JUMP JUMPDEST PUSH1 0x0 DUP1 SLOAD PUSH1 0x40 MLOAD PUSH1 0x1 PUSH1 0x1 PUSH1 0xA0 SHL SUB DUP1 DUP6 AND SWAP4 SWAP3 AND SWAP2 PUSH32 0x8BE0079C531659141344CD1FD0A4F28419497F9722A3DAAFE3B4186F6B6457E0 SWAP2 LOG3 PUSH1 0x0 DUP1 SLOAD PUSH1 0x1 PUSH1 0x1 PUSH1 0xA0 SHL SUB NOT AND PUSH1 0x1 PUSH1 0x1 PUSH1 0xA0 SHL SUB SWAP3 SWAP1 SWAP3 AND SWAP2 SWAP1 SWAP2 OR SWAP1 SSTORE JUMP JUMPDEST PUSH1 0x4 SLOAD PUSH1 0x1 PUSH1 0x1 PUSH1 0xA0 SHL SUB AND DUP2 JUMP JUMPDEST PUSH1 0x0 PUSH2 0x1E3D ADDRESS PUSH2 0x2378 JUMP JUMPDEST ISZERO SWAP1 POP SWAP1 JUMP JUMPDEST PUSH1 0x0 DUP1 SLOAD PUSH1 0x1 PUSH1 0x1 PUSH1 0xA0 SHL SUB NOT AND PUSH1 0x1 PUSH1 0x1 PUSH1 0xA0 SHL SUB DUP4 AND SWAP1 DUP2 OR DUP3 SSTORE PUSH1 0x40 MLOAD SWAP1 SWAP2 SWAP1 PUSH32 0x8BE0079C531659141344CD1FD0A4F28419497F9722A3DAAFE3B4186F6B6457E0 SWAP1 DUP3 SWAP1 LOG3 POP JUMP JUMPDEST PUSH1 0x0 DUP3 DUP3 ADD DUP4 DUP2 LT ISZERO PUSH2 0x1EB3 JUMPI PUSH1 0x40 MLOAD PUSH3 0x461BCD PUSH1 0xE5 SHL DUP2 MSTORE PUSH1 0x4 ADD PUSH2 0x4FC SWAP1 PUSH2 0x2DB7 JUMP JUMPDEST SWAP4 SWAP3 POP POP POP JUMP JUMPDEST PUSH2 0x10F2 DUP5 PUSH4 0x23B872DD PUSH1 0xE0 SHL DUP6 DUP6 DUP6 PUSH1 0x40 MLOAD PUSH1 0x24 ADD PUSH2 0x1EDB SWAP4 SWAP3 SWAP2 SWAP1 PUSH2 0x2B74 JUMP JUMPDEST PUSH1 0x40 DUP1 MLOAD PUSH1 0x1F NOT DUP2 DUP5 SUB ADD DUP2 MSTORE SWAP2 SWAP1 MSTORE PUSH1 0x20 DUP2 ADD DUP1 MLOAD PUSH1 0x1 PUSH1 0x1 PUSH1 0xE0 SHL SUB AND PUSH1 0x1 PUSH1 0x1 PUSH1 0xE0 SHL SUB NOT SWAP1 SWAP4 AND SWAP3 SWAP1 SWAP3 OR SWAP1 SWAP2 MSTORE PUSH2 0x237E JUMP JUMPDEST PUSH2 0x1F31 DUP4 PUSH4 0xA9059CBB PUSH1 0xE0 SHL DUP5 DUP5 PUSH1 0x40 MLOAD PUSH1 0x24 ADD PUSH2 0x1EDB SWAP3 SWAP2 SWAP1 PUSH2 0x2B98 JUMP JUMPDEST POP POP POP JUMP JUMPDEST PUSH2 0x1F3E PUSH2 0x25E8 JUMP JUMPDEST PUSH2 0x1F46 PUSH2 0x25C9 JUMP JUMPDEST PUSH1 0x40 DUP1 MLOAD PUSH1 0x80 DUP2 ADD SWAP2 DUP3 SWAP1 MSTORE PUSH2 0x1F99 SWAP2 PUSH1 0xF SWAP1 PUSH1 0x4 SWAP1 DUP3 PUSH1 0x0 DUP6 JUMPDEST DUP3 SLOAD PUSH2 0x100 DUP4 SWAP1 EXP SWAP1 DIV PUSH1 0xFF AND DUP2 MSTORE PUSH1 0x20 PUSH1 0x1 SWAP3 DUP4 ADD DUP2 DUP2 DIV SWAP5 DUP6 ADD SWAP5 SWAP1 SWAP4 SUB SWAP1 SWAP3 MUL SWAP2 ADD DUP1 DUP5 GT PUSH2 0x1F61 JUMPI SWAP1 POP POP POP POP POP POP PUSH2 0x1298 JUMP JUMPDEST PUSH1 0xB SLOAD PUSH1 0x0 DUP2 DUP2 MSTORE PUSH1 0x9 PUSH1 0x20 DUP2 DUP2 MSTORE PUSH1 0x40 DUP1 DUP5 KECCAK256 DUP7 MLOAD PUSH1 0x1 PUSH1 0x1 PUSH1 0x40 SHL SUB SWAP1 DUP2 AND DUP7 MSTORE DUP2 DUP5 MSTORE DUP3 DUP7 KECCAK256 SLOAD DUP8 DUP8 MSTORE DUP6 DUP6 MSTORE DUP9 DUP6 ADD MLOAD SWAP1 SWAP2 AND DUP7 MSTORE DUP2 DUP5 MSTORE SWAP2 DUP6 KECCAK256 SLOAD SWAP6 DUP6 MSTORE SWAP3 SWAP1 SWAP2 MSTORE SWAP4 SWAP5 POP PUSH2 0x2020 SWAP2 DUP6 PUSH1 0x2 JUMPDEST PUSH1 0x20 MUL ADD MLOAD PUSH1 0x1 PUSH1 0x1 PUSH1 0x40 SHL SUB AND PUSH1 0x1 PUSH1 0x1 PUSH1 0x40 SHL SUB AND DUP2 MSTORE PUSH1 0x20 ADD SWAP1 DUP2 MSTORE PUSH1 0x20 ADD PUSH1 0x0 KECCAK256 SLOAD DUP3 PUSH2 0x1E8E SWAP1 SWAP2 SWAP1 PUSH4 0xFFFFFFFF AND JUMP JUMPDEST PUSH1 0xB SLOAD PUSH1 0x0 SWAP1 DUP2 MSTORE PUSH1 0x9 PUSH1 0x20 MSTORE PUSH1 0x40 DUP2 KECCAK256 SWAP2 SWAP3 POP PUSH2 0x2041 SWAP2 SWAP1 DUP6 PUSH1 0x3 PUSH2 0x1FEB JUMP JUMPDEST PUSH1 0xB SLOAD PUSH1 0x0 SWAP1 DUP2 MSTORE PUSH1 0x9 PUSH1 0x20 MSTORE PUSH1 0x40 DUP2 KECCAK256 SWAP2 SWAP3 POP PUSH2 0x2062 SWAP2 SWAP1 DUP6 PUSH1 0x4 PUSH2 0x1FEB JUMP JUMPDEST SWAP1 POP PUSH1 0x0 PUSH2 0x207B PUSH2 0x2074 DUP5 PUSH1 0x4 PUSH2 0x219B JUMP JUMPDEST DUP4 SWAP1 PUSH2 0x240D JUMP JUMPDEST PUSH1 0xB SLOAD PUSH1 0x0 DUP2 DUP2 MSTORE PUSH1 0x9 PUSH1 0x20 DUP2 DUP2 MSTORE PUSH1 0x40 DUP1 DUP5 KECCAK256 PUSH1 0xA0 DUP12 ADD MLOAD PUSH1 0x1 PUSH1 0x1 PUSH1 0x40 SHL SUB AND DUP6 MSTORE DUP1 DUP4 MSTORE SWAP1 DUP5 KECCAK256 SLOAD SWAP5 DUP5 MSTORE SWAP2 SWAP1 MSTORE SWAP3 SWAP4 POP SWAP1 SWAP2 PUSH2 0x20BD SWAP2 DUP8 PUSH1 0x6 PUSH2 0x1FEB JUMP JUMPDEST PUSH1 0xB SLOAD PUSH1 0x0 SWAP1 DUP2 MSTORE PUSH1 0x9 PUSH1 0x20 MSTORE PUSH1 0x40 DUP2 KECCAK256 SWAP2 SWAP3 POP PUSH2 0x20DE SWAP2 SWAP1 DUP8 PUSH1 0x7 PUSH2 0x1FEB JUMP JUMPDEST PUSH1 0xB SLOAD PUSH1 0x0 SWAP1 DUP2 MSTORE PUSH1 0x9 PUSH1 0x20 MSTORE PUSH1 0x40 DUP2 KECCAK256 SWAP2 SWAP3 POP PUSH2 0x20FF SWAP2 SWAP1 DUP8 PUSH1 0x8 PUSH2 0x1FEB JUMP JUMPDEST PUSH1 0xB SLOAD PUSH1 0x0 SWAP1 DUP2 MSTORE PUSH1 0x9 PUSH1 0x20 DUP2 SWAP1 MSTORE PUSH1 0x40 DUP3 KECCAK256 SWAP3 SWAP4 POP PUSH2 0x2122 SWAP3 SWAP2 SWAP1 DUP9 SWAP1 PUSH2 0x1FEB JUMP JUMPDEST PUSH1 0xB SLOAD PUSH1 0x0 SWAP1 DUP2 MSTORE PUSH1 0x9 PUSH1 0x20 MSTORE PUSH1 0x40 DUP2 KECCAK256 SWAP2 SWAP3 POP PUSH2 0x2143 SWAP2 SWAP1 DUP8 PUSH1 0xA PUSH2 0x1FEB JUMP JUMPDEST SWAP1 POP PUSH1 0x0 PUSH2 0x2170 PUSH2 0x2155 DUP6 PUSH1 0x3 PUSH2 0x219B JUMP JUMPDEST PUSH2 0x216A PUSH2 0x2163 DUP9 PUSH1 0x6 PUSH2 0x219B JUMP JUMPDEST DUP6 SWAP1 PUSH2 0x1E8E JUMP JUMPDEST SWAP1 PUSH2 0x240D JUMP JUMPDEST PUSH1 0x40 DUP1 MLOAD PUSH1 0x80 DUP2 ADD DUP3 MSTORE PUSH1 0xD SLOAD DUP2 MSTORE PUSH1 0x20 DUP2 ADD SWAP8 SWAP1 SWAP8 MSTORE DUP7 ADD SWAP4 SWAP1 SWAP4 MSTORE POP POP PUSH1 0x60 DUP4 ADD MSTORE POP SWAP2 POP POP SWAP1 JUMP JUMPDEST PUSH1 0x0 DUP3 PUSH2 0x21AA JUMPI POP PUSH1 0x0 PUSH2 0x1915 JUMP JUMPDEST DUP3 DUP3 MUL DUP3 DUP5 DUP3 DUP2 PUSH2 0x21B7 JUMPI INVALID JUMPDEST DIV EQ PUSH2 0x1EB3 JUMPI PUSH1 0x40 MLOAD PUSH3 0x461BCD PUSH1 0xE5 SHL DUP2 MSTORE PUSH1 0x4 ADD PUSH2 0x4FC SWAP1 PUSH2 0x300A JUMP JUMPDEST PUSH1 0x0 DUP1 DUP3 GT PUSH2 0x21F6 JUMPI PUSH1 0x40 MLOAD PUSH3 0x461BCD PUSH1 0xE5 SHL DUP2 MSTORE PUSH1 0x4 ADD PUSH2 0x4FC SWAP1 PUSH2 0x2EBF JUMP JUMPDEST DUP2 DUP4 DUP2 PUSH2 0x21FF JUMPI INVALID JUMPDEST DIV SWAP4 SWAP3 POP POP POP JUMP JUMPDEST PUSH2 0x220F PUSH2 0x1D58 JUMP JUMPDEST ISZERO PUSH2 0x222C JUMPI PUSH1 0x40 MLOAD PUSH3 0x461BCD PUSH1 0xE5 SHL DUP2 MSTORE PUSH1 0x4 ADD PUSH2 0x4FC SWAP1 PUSH2 0x304B JUMP JUMPDEST PUSH1 0x0 JUMPDEST PUSH1 0x4 DUP2 LT ISZERO PUSH2 0x2281 JUMPI PUSH1 0x4 DUP1 SLOAD PUSH1 0x1 PUSH1 0xA0 SHL SWAP1 DIV PUSH1 0xFF AND SWAP1 DUP4 SWAP1 DUP4 SWAP1 DUP2 LT PUSH2 0x2253 JUMPI INVALID JUMPDEST PUSH1 0x20 MUL ADD MLOAD PUSH1 0xFF AND GT ISZERO PUSH2 0x2279 JUMPI PUSH1 0x40 MLOAD PUSH3 0x461BCD PUSH1 0xE5 SHL DUP2 MSTORE PUSH1 0x4 ADD PUSH2 0x4FC SWAP1 PUSH2 0x2DEE JUMP JUMPDEST PUSH1 0x1 ADD PUSH2 0x222F JUMP JUMPDEST POP PUSH1 0x3 SLOAD PUSH1 0xB SLOAD PUSH1 0x40 MLOAD PUSH3 0xDCE47 PUSH1 0xEA SHL DUP2 MSTORE PUSH1 0x0 SWAP3 PUSH1 0x1 PUSH1 0x1 PUSH1 0xA0 SHL SUB AND SWAP2 PUSH4 0x37391C00 SWAP2 PUSH2 0x22B9 SWAP2 ADDRESS SWAP2 DUP8 SWAP2 DUP10 SWAP2 PUSH1 0x4 ADD PUSH2 0x2B45 JUMP JUMPDEST PUSH1 0x20 PUSH1 0x40 MLOAD DUP1 DUP4 SUB DUP2 PUSH1 0x0 DUP8 DUP1 EXTCODESIZE ISZERO DUP1 ISZERO PUSH2 0x22D3 JUMPI PUSH1 0x0 DUP1 REVERT JUMPDEST POP GAS CALL ISZERO DUP1 ISZERO PUSH2 0x22E7 JUMPI RETURNDATASIZE PUSH1 0x0 DUP1 RETURNDATACOPY RETURNDATASIZE PUSH1 0x0 REVERT JUMPDEST POP POP POP POP PUSH1 0x40 MLOAD RETURNDATASIZE PUSH1 0x1F NOT PUSH1 0x1F DUP3 ADD AND DUP3 ADD DUP1 PUSH1 0x40 MSTORE POP DUP2 ADD SWAP1 PUSH2 0x230B SWAP2 SWAP1 PUSH2 0x2943 JUMP JUMPDEST PUSH1 0xB SLOAD PUSH1 0x0 SWAP1 DUP2 MSTORE PUSH1 0x7 PUSH1 0x20 SWAP1 DUP2 MSTORE PUSH1 0x40 DUP3 KECCAK256 DUP1 SLOAD PUSH1 0x1 DUP2 ADD DUP3 SSTORE SWAP1 DUP4 MSTORE SWAP2 KECCAK256 ADD DUP2 SWAP1 SSTORE PUSH1 0xD SLOAD SWAP1 SWAP2 POP PUSH2 0x233F SWAP1 DUP5 PUSH2 0x1E8E JUMP JUMPDEST PUSH1 0xD SSTORE TIMESTAMP PUSH1 0xE SSTORE PUSH1 0x40 MLOAD ADDRESS SWAP1 PUSH32 0xE3D4187F6CA4248660CC0AC8B8056515BAC4A8132BE2ECA31D6D0CC170722A7E SWAP1 PUSH2 0xC9F SWAP1 DUP5 SWAP1 PUSH2 0x319E JUMP JUMPDEST EXTCODESIZE ISZERO ISZERO SWAP1 JUMP JUMPDEST PUSH1 0x60 PUSH2 0x23D3 DUP3 PUSH1 0x40 MLOAD DUP1 PUSH1 0x40 ADD PUSH1 0x40 MSTORE DUP1 PUSH1 0x20 DUP2 MSTORE PUSH1 0x20 ADD PUSH32 0x5361666545524332303A206C6F772D6C6576656C2063616C6C206661696C6564 DUP2 MSTORE POP DUP6 PUSH1 0x1 PUSH1 0x1 PUSH1 0xA0 SHL SUB AND PUSH2 0x2435 SWAP1 SWAP3 SWAP2 SWAP1 PUSH4 0xFFFFFFFF AND JUMP JUMPDEST DUP1 MLOAD SWAP1 SWAP2 POP ISZERO PUSH2 0x1F31 JUMPI DUP1 DUP1 PUSH1 0x20 ADD SWAP1 MLOAD DUP2 ADD SWAP1 PUSH2 0x23F1 SWAP2 SWAP1 PUSH2 0x2893 JUMP JUMPDEST PUSH2 0x1F31 JUMPI PUSH1 0x40 MLOAD PUSH3 0x461BCD PUSH1 0xE5 SHL DUP2 MSTORE PUSH1 0x4 ADD PUSH2 0x4FC SWAP1 PUSH2 0x3134 JUMP JUMPDEST PUSH1 0x0 DUP3 DUP3 GT ISZERO PUSH2 0x242F JUMPI PUSH1 0x40 MLOAD PUSH3 0x461BCD PUSH1 0xE5 SHL DUP2 MSTORE PUSH1 0x4 ADD PUSH2 0x4FC SWAP1 PUSH2 0x2E1A JUMP JUMPDEST POP SWAP1 SUB SWAP1 JUMP JUMPDEST PUSH1 0x60 PUSH2 0x2444 DUP5 DUP5 PUSH1 0x0 DUP6 PUSH2 0x244C JUMP JUMPDEST SWAP5 SWAP4 POP POP POP POP JUMP JUMPDEST PUSH1 0x60 DUP3 SELFBALANCE LT ISZERO PUSH2 0x246E JUMPI PUSH1 0x40 MLOAD PUSH3 0x461BCD PUSH1 0xE5 SHL DUP2 MSTORE PUSH1 0x4 ADD PUSH2 0x4FC SWAP1 PUSH2 0x2E51 JUMP JUMPDEST PUSH2 0x2477 DUP6 PUSH2 0x2378 JUMP JUMPDEST PUSH2 0x2493 JUMPI PUSH1 0x40 MLOAD PUSH3 0x461BCD PUSH1 0xE5 SHL DUP2 MSTORE PUSH1 0x4 ADD PUSH2 0x4FC SWAP1 PUSH2 0x30DC JUMP JUMPDEST PUSH1 0x0 PUSH1 0x60 DUP7 PUSH1 0x1 PUSH1 0x1 PUSH1 0xA0 SHL SUB AND DUP6 DUP8 PUSH1 0x40 MLOAD PUSH2 0x24B0 SWAP2 SWAP1 PUSH2 0x2B15 JUMP JUMPDEST PUSH1 0x0 PUSH1 0x40 MLOAD DUP1 DUP4 SUB DUP2 DUP6 DUP8 GAS CALL SWAP3 POP POP POP RETURNDATASIZE DUP1 PUSH1 0x0 DUP2 EQ PUSH2 0x24ED JUMPI PUSH1 0x40 MLOAD SWAP2 POP PUSH1 0x1F NOT PUSH1 0x3F RETURNDATASIZE ADD AND DUP3 ADD PUSH1 0x40 MSTORE RETURNDATASIZE DUP3 MSTORE RETURNDATASIZE PUSH1 0x0 PUSH1 0x20 DUP5 ADD RETURNDATACOPY PUSH2 0x24F2 JUMP JUMPDEST PUSH1 0x60 SWAP2 POP JUMPDEST POP SWAP2 POP SWAP2 POP PUSH2 0x1C11 DUP3 DUP3 DUP7 PUSH1 0x60 DUP4 ISZERO PUSH2 0x250C JUMPI POP DUP2 PUSH2 0x1EB3 JUMP JUMPDEST DUP3 MLOAD ISZERO PUSH2 0x251C JUMPI DUP3 MLOAD DUP1 DUP5 PUSH1 0x20 ADD REVERT JUMPDEST DUP2 PUSH1 0x40 MLOAD PUSH3 0x461BCD PUSH1 0xE5 SHL DUP2 MSTORE PUSH1 0x4 ADD PUSH2 0x4FC SWAP2 SWAP1 PUSH2 0x2C96 JUMP JUMPDEST PUSH1 0x1 DUP4 ADD SWAP2 DUP4 SWAP1 DUP3 ISZERO PUSH2 0x25B9 JUMPI SWAP2 PUSH1 0x20 MUL DUP3 ADD PUSH1 0x0 JUMPDEST DUP4 DUP3 GT ISZERO PUSH2 0x258A JUMPI DUP4 MLOAD DUP4 DUP3 PUSH2 0x100 EXP DUP2 SLOAD DUP2 PUSH1 0xFF MUL NOT AND SWAP1 DUP4 PUSH1 0xFF AND MUL OR SWAP1 SSTORE POP SWAP3 PUSH1 0x20 ADD SWAP3 PUSH1 0x1 ADD PUSH1 0x20 DUP2 PUSH1 0x0 ADD DIV SWAP3 DUP4 ADD SWAP3 PUSH1 0x1 SUB MUL PUSH2 0x254C JUMP JUMPDEST DUP1 ISZERO PUSH2 0x25B7 JUMPI DUP3 DUP2 PUSH2 0x100 EXP DUP2 SLOAD SWAP1 PUSH1 0xFF MUL NOT AND SWAP1 SSTORE PUSH1 0x1 ADD PUSH1 0x20 DUP2 PUSH1 0x0 ADD DIV SWAP3 DUP4 ADD SWAP3 PUSH1 0x1 SUB MUL PUSH2 0x258A JUMP JUMPDEST POP JUMPDEST POP PUSH2 0x25C5 SWAP3 SWAP2 POP PUSH2 0x2680 JUMP JUMPDEST POP SWAP1 JUMP JUMPDEST PUSH1 0x40 MLOAD DUP1 PUSH2 0x160 ADD PUSH1 0x40 MSTORE DUP1 PUSH1 0xB SWAP1 PUSH1 0x20 DUP3 MUL DUP1 CALLDATASIZE DUP4 CALLDATACOPY POP SWAP2 SWAP3 SWAP2 POP POP JUMP JUMPDEST PUSH1 0x40 MLOAD DUP1 PUSH1 0x80 ADD PUSH1 0x40 MSTORE DUP1 PUSH1 0x4 SWAP1 PUSH1 0x20 DUP3 MUL DUP1 CALLDATASIZE DUP4 CALLDATACOPY POP SWAP2 SWAP3 SWAP2 POP POP JUMP JUMPDEST PUSH1 0x1 DUP4 ADD SWAP2 DUP4 SWAP1 DUP3 ISZERO PUSH2 0x25B9 JUMPI SWAP2 PUSH1 0x1F ADD PUSH1 0x20 SWAP1 DIV DUP3 ADD JUMPDEST DUP3 DUP2 GT ISZERO PUSH2 0x25B9 JUMPI DUP3 SLOAD DUP3 SSTORE SWAP2 PUSH1 0x1 ADD SWAP2 SWAP1 PUSH1 0x1 ADD SWAP1 PUSH2 0x261E JUMP JUMPDEST DUP3 DUP1 SLOAD DUP3 DUP3 SSTORE SWAP1 PUSH1 0x0 MSTORE PUSH1 0x20 PUSH1 0x0 KECCAK256 SWAP1 DUP2 ADD SWAP3 DUP3 ISZERO PUSH2 0x2674 JUMPI SWAP2 PUSH1 0x20 MUL DUP3 ADD JUMPDEST DUP3 DUP2 GT ISZERO PUSH2 0x2674 JUMPI DUP3 MLOAD DUP3 SSTORE SWAP2 PUSH1 0x20 ADD SWAP2 SWAP1 PUSH1 0x1 ADD SWAP1 PUSH2 0x2659 JUMP JUMPDEST POP PUSH2 0x25C5 SWAP3 SWAP2 POP PUSH2 0x2699 JUMP JUMPDEST JUMPDEST DUP1 DUP3 GT ISZERO PUSH2 0x25C5 JUMPI DUP1 SLOAD PUSH1 0xFF NOT AND DUP2 SSTORE PUSH1 0x1 ADD PUSH2 0x2681 JUMP JUMPDEST JUMPDEST DUP1 DUP3 GT ISZERO PUSH2 0x25C5 JUMPI PUSH1 0x0 DUP2 SSTORE PUSH1 0x1 ADD PUSH2 0x269A JUMP JUMPDEST PUSH1 0x0 DUP3 PUSH1 0x1F DUP4 ADD SLT PUSH2 0x26BE JUMPI DUP1 DUP2 REVERT JUMPDEST PUSH2 0x26C8 PUSH1 0x80 PUSH2 0x31C3 JUMP JUMPDEST SWAP1 POP DUP1 DUP3 DUP5 PUSH1 0x80 DUP6 ADD GT ISZERO PUSH2 0x26DC JUMPI PUSH1 0x0 DUP1 REVERT JUMPDEST PUSH1 0x0 JUMPDEST PUSH1 0x4 DUP2 LT ISZERO PUSH2 0x2708 JUMPI DUP2 CALLDATALOAD PUSH2 0x26F3 DUP2 PUSH2 0x324C JUMP JUMPDEST DUP4 MSTORE PUSH1 0x20 SWAP3 DUP4 ADD SWAP3 SWAP2 SWAP1 SWAP2 ADD SWAP1 PUSH1 0x1 ADD PUSH2 0x26DF JUMP JUMPDEST POP POP POP SWAP3 SWAP2 POP POP JUMP JUMPDEST PUSH1 0x0 PUSH1 0x20 DUP3 DUP5 SUB SLT ISZERO PUSH2 0x2722 JUMPI DUP1 DUP2 REVERT JUMPDEST DUP2 CALLDATALOAD PUSH2 0x1EB3 DUP2 PUSH2 0x3234 JUMP JUMPDEST PUSH1 0x0 PUSH1 0x20 DUP3 DUP5 SUB SLT ISZERO PUSH2 0x273E JUMPI DUP1 DUP2 REVERT JUMPDEST DUP2 MLOAD PUSH2 0x1EB3 DUP2 PUSH2 0x3234 JUMP JUMPDEST PUSH1 0x0 DUP1 PUSH1 0x40 DUP4 DUP6 SUB SLT ISZERO PUSH2 0x275B JUMPI DUP1 DUP2 REVERT JUMPDEST DUP3 CALLDATALOAD PUSH2 0x2766 DUP2 PUSH2 0x3234 JUMP JUMPDEST SWAP5 PUSH1 0x20 SWAP4 SWAP1 SWAP4 ADD CALLDATALOAD SWAP4 POP POP POP JUMP JUMPDEST PUSH1 0x0 PUSH1 0x20 DUP1 DUP4 DUP6 SUB SLT ISZERO PUSH2 0x2786 JUMPI DUP2 DUP3 REVERT JUMPDEST DUP3 CALLDATALOAD PUSH1 0x1 PUSH1 0x1 PUSH1 0x40 SHL SUB DUP2 GT ISZERO PUSH2 0x279B JUMPI DUP3 DUP4 REVERT JUMPDEST DUP4 ADD PUSH1 0x1F DUP2 ADD DUP6 SGT PUSH2 0x27AB JUMPI DUP3 DUP4 REVERT JUMPDEST DUP1 CALLDATALOAD PUSH2 0x27BE PUSH2 0x27B9 DUP3 PUSH2 0x31E9 JUMP JUMPDEST PUSH2 0x31C3 JUMP JUMPDEST DUP2 DUP2 MSTORE DUP4 DUP2 ADD SWAP1 DUP4 DUP6 ADD DUP6 DUP5 MUL DUP6 ADD DUP7 ADD DUP10 LT ISZERO PUSH2 0x27DA JUMPI DUP7 DUP8 REVERT JUMPDEST DUP7 SWAP5 POP JUMPDEST DUP4 DUP6 LT ISZERO PUSH2 0x27FC JUMPI DUP1 CALLDATALOAD DUP4 MSTORE PUSH1 0x1 SWAP5 SWAP1 SWAP5 ADD SWAP4 SWAP2 DUP6 ADD SWAP2 DUP6 ADD PUSH2 0x27DE JUMP JUMPDEST POP SWAP8 SWAP7 POP POP POP POP POP POP POP JUMP JUMPDEST PUSH1 0x0 PUSH1 0x80 DUP3 DUP5 SUB SLT ISZERO PUSH2 0x2819 JUMPI DUP1 DUP2 REVERT JUMPDEST PUSH2 0x1EB3 DUP4 DUP4 PUSH2 0x26AE JUMP JUMPDEST PUSH1 0x0 PUSH1 0x80 DUP3 DUP5 SUB SLT ISZERO PUSH2 0x2834 JUMPI DUP1 DUP2 REVERT JUMPDEST DUP3 PUSH1 0x1F DUP4 ADD SLT PUSH2 0x2842 JUMPI DUP1 DUP2 REVERT JUMPDEST PUSH2 0x284C PUSH1 0x80 PUSH2 0x31C3 JUMP JUMPDEST DUP1 DUP4 DUP6 PUSH1 0x80 DUP7 ADD GT ISZERO PUSH2 0x285D JUMPI DUP4 DUP5 REVERT JUMPDEST DUP4 JUMPDEST PUSH1 0x4 DUP2 LT ISZERO PUSH2 0x2888 JUMPI DUP2 MLOAD PUSH2 0x2873 DUP2 PUSH2 0x324C JUMP JUMPDEST DUP5 MSTORE PUSH1 0x20 SWAP4 DUP5 ADD SWAP4 SWAP2 SWAP1 SWAP2 ADD SWAP1 PUSH1 0x1 ADD PUSH2 0x285F JUMP JUMPDEST POP SWAP1 SWAP6 SWAP5 POP POP POP POP POP JUMP JUMPDEST PUSH1 0x0 PUSH1 0x20 DUP3 DUP5 SUB SLT ISZERO PUSH2 0x28A4 JUMPI DUP1 DUP2 REVERT JUMPDEST DUP2 MLOAD DUP1 ISZERO ISZERO DUP2 EQ PUSH2 0x1EB3 JUMPI DUP2 DUP3 REVERT JUMPDEST PUSH1 0x0 DUP1 PUSH1 0x0 DUP1 PUSH1 0x0 DUP1 PUSH1 0xC0 DUP8 DUP10 SUB SLT ISZERO PUSH2 0x28CB JUMPI DUP2 DUP3 REVERT JUMPDEST DUP7 CALLDATALOAD PUSH2 0x28D6 DUP2 PUSH2 0x3234 JUMP JUMPDEST SWAP6 POP PUSH1 0x20 DUP8 ADD CALLDATALOAD PUSH2 0x28E6 DUP2 PUSH2 0x3234 JUMP JUMPDEST SWAP5 POP PUSH1 0x40 DUP8 ADD CALLDATALOAD SWAP4 POP PUSH1 0x60 DUP8 ADD CALLDATALOAD PUSH2 0x28FD DUP2 PUSH2 0x324C JUMP JUMPDEST SWAP3 POP PUSH1 0x80 DUP8 ADD CALLDATALOAD PUSH2 0x290D DUP2 PUSH2 0x3234 JUMP JUMPDEST SWAP2 POP PUSH1 0xA0 DUP8 ADD CALLDATALOAD PUSH2 0x291D DUP2 PUSH2 0x3234 JUMP JUMPDEST DUP1 SWAP2 POP POP SWAP3 SWAP6 POP SWAP3 SWAP6 POP SWAP3 SWAP6 JUMP JUMPDEST PUSH1 0x0 PUSH1 0x20 DUP3 DUP5 SUB SLT ISZERO PUSH2 0x293C JUMPI DUP1 DUP2 REVERT JUMPDEST POP CALLDATALOAD SWAP2 SWAP1 POP JUMP JUMPDEST PUSH1 0x0 PUSH1 0x20 DUP3 DUP5 SUB SLT ISZERO PUSH2 0x2954 JUMPI DUP1 DUP2 REVERT JUMPDEST POP MLOAD SWAP2 SWAP1 POP JUMP JUMPDEST PUSH1 0x0 DUP1 PUSH1 0x40 DUP4 DUP6 SUB SLT ISZERO PUSH2 0x296D JUMPI DUP2 DUP3 REVERT JUMPDEST DUP3 CALLDATALOAD SWAP2 POP PUSH1 0x20 DUP1 DUP5 ADD CALLDATALOAD PUSH1 0x1 PUSH1 0x1 PUSH1 0x40 SHL SUB DUP2 GT ISZERO PUSH2 0x298A JUMPI DUP3 DUP4 REVERT JUMPDEST DUP5 ADD PUSH1 0x1F DUP2 ADD DUP7 SGT PUSH2 0x299A JUMPI DUP3 DUP4 REVERT JUMPDEST DUP1 CALLDATALOAD PUSH2 0x29A8 PUSH2 0x27B9 DUP3 PUSH2 0x31E9 JUMP JUMPDEST DUP2 DUP2 MSTORE DUP4 DUP2 ADD SWAP1 DUP4 DUP6 ADD PUSH1 0x80 DUP1 DUP6 MUL DUP7 ADD DUP8 ADD DUP12 LT ISZERO PUSH2 0x29C6 JUMPI DUP8 DUP9 REVERT JUMPDEST DUP8 SWAP6 POP JUMPDEST DUP5 DUP7 LT ISZERO PUSH2 0x29F2 JUMPI PUSH2 0x29DC DUP12 DUP4 PUSH2 0x26AE JUMP JUMPDEST DUP5 MSTORE PUSH1 0x1 SWAP6 SWAP1 SWAP6 ADD SWAP5 SWAP3 DUP7 ADD SWAP3 SWAP1 DUP2 ADD SWAP1 PUSH2 0x29CA JUMP JUMPDEST POP SWAP7 SWAP10 SWAP1 SWAP9 POP SWAP7 POP POP POP POP POP POP POP JUMP JUMPDEST PUSH1 0x0 DUP1 PUSH1 0xA0 DUP4 DUP6 SUB SLT ISZERO PUSH2 0x2A14 JUMPI DUP2 DUP3 REVERT JUMPDEST DUP3 CALLDATALOAD SWAP2 POP PUSH2 0x2A25 DUP5 PUSH1 0x20 DUP6 ADD PUSH2 0x26AE JUMP JUMPDEST SWAP1 POP SWAP3 POP SWAP3 SWAP1 POP JUMP JUMPDEST PUSH1 0x0 DUP1 PUSH1 0x40 DUP4 DUP6 SUB SLT ISZERO PUSH2 0x2A40 JUMPI DUP2 DUP3 REVERT JUMPDEST POP POP DUP1 CALLDATALOAD SWAP3 PUSH1 0x20 SWAP1 SWAP2 ADD CALLDATALOAD SWAP2 POP JUMP JUMPDEST PUSH1 0x0 DUP1 PUSH1 0x40 DUP4 DUP6 SUB SLT ISZERO PUSH2 0x2A61 JUMPI DUP2 DUP3 REVERT JUMPDEST DUP3 CALLDATALOAD SWAP2 POP PUSH1 0x20 DUP4 ADD CALLDATALOAD PUSH1 0x1 PUSH1 0x1 PUSH1 0x40 SHL SUB DUP2 AND DUP2 EQ PUSH2 0x2A7E JUMPI DUP2 DUP3 REVERT JUMPDEST DUP1 SWAP2 POP POP SWAP3 POP SWAP3 SWAP1 POP JUMP JUMPDEST PUSH1 0x0 PUSH1 0x20 DUP3 DUP5 SUB SLT ISZERO PUSH2 0x2A9A JUMPI DUP1 DUP2 REVERT JUMPDEST DUP2 CALLDATALOAD PUSH2 0x1EB3 DUP2 PUSH2 0x324C JUMP JUMPDEST PUSH1 0x0 DUP1 PUSH1 0x0 PUSH1 0x60 DUP5 DUP7 SUB SLT ISZERO PUSH2 0x2AB9 JUMPI DUP1 DUP2 REVERT JUMPDEST DUP4 CALLDATALOAD PUSH2 0x2AC4 DUP2 PUSH2 0x324C JUMP JUMPDEST SWAP3 POP PUSH1 0x20 DUP5 ADD CALLDATALOAD PUSH2 0x2AD4 DUP2 PUSH2 0x324C JUMP JUMPDEST SWAP2 POP PUSH1 0x40 DUP5 ADD CALLDATALOAD PUSH2 0x2AE4 DUP2 PUSH2 0x324C JUMP JUMPDEST DUP1 SWAP2 POP POP SWAP3 POP SWAP3 POP SWAP3 JUMP JUMPDEST DUP1 PUSH1 0x0 JUMPDEST PUSH1 0x4 DUP2 LT ISZERO PUSH2 0x10F2 JUMPI DUP2 MLOAD PUSH1 0xFF AND DUP5 MSTORE PUSH1 0x20 SWAP4 DUP5 ADD SWAP4 SWAP1 SWAP2 ADD SWAP1 PUSH1 0x1 ADD PUSH2 0x2AF3 JUMP JUMPDEST PUSH1 0x0 DUP3 MLOAD PUSH2 0x2B27 DUP2 DUP5 PUSH1 0x20 DUP8 ADD PUSH2 0x3208 JUMP JUMPDEST SWAP2 SWAP1 SWAP2 ADD SWAP3 SWAP2 POP POP JUMP JUMPDEST PUSH1 0x1 PUSH1 0x1 PUSH1 0xA0 SHL SUB SWAP2 SWAP1 SWAP2 AND DUP2 MSTORE PUSH1 0x20 ADD SWAP1 JUMP JUMPDEST PUSH1 0x1 PUSH1 0x1 PUSH1 0xA0 SHL SUB DUP6 AND DUP2 MSTORE PUSH1 0xE0 DUP2 ADD PUSH2 0x2B62 PUSH1 0x20 DUP4 ADD DUP7 PUSH2 0x2AEF JUMP JUMPDEST PUSH1 0xA0 DUP3 ADD SWAP4 SWAP1 SWAP4 MSTORE PUSH1 0xC0 ADD MSTORE SWAP3 SWAP2 POP POP JUMP JUMPDEST PUSH1 0x1 PUSH1 0x1 PUSH1 0xA0 SHL SUB SWAP4 DUP5 AND DUP2 MSTORE SWAP2 SWAP1 SWAP3 AND PUSH1 0x20 DUP3 ADD MSTORE PUSH1 0x40 DUP2 ADD SWAP2 SWAP1 SWAP2 MSTORE PUSH1 0x60 ADD SWAP1 JUMP JUMPDEST PUSH1 0x1 PUSH1 0x1 PUSH1 0xA0 SHL SUB SWAP3 SWAP1 SWAP3 AND DUP3 MSTORE PUSH1 0x20 DUP3 ADD MSTORE PUSH1 0x40 ADD SWAP1 JUMP JUMPDEST PUSH1 0x20 DUP1 DUP3 MSTORE DUP3 MLOAD DUP3 DUP3 ADD DUP2 SWAP1 MSTORE PUSH1 0x0 SWAP2 SWAP1 DUP5 DUP3 ADD SWAP1 PUSH1 0x40 DUP6 ADD SWAP1 DUP5 JUMPDEST DUP2 DUP2 LT ISZERO PUSH2 0x2BE9 JUMPI DUP4 MLOAD DUP4 MSTORE SWAP3 DUP5 ADD SWAP3 SWAP2 DUP5 ADD SWAP2 PUSH1 0x1 ADD PUSH2 0x2BCD JUMP JUMPDEST POP SWAP1 SWAP7 SWAP6 POP POP POP POP POP POP JUMP JUMPDEST PUSH2 0x160 DUP2 ADD DUP2 DUP4 PUSH1 0x0 JUMPDEST PUSH1 0xB DUP2 LT ISZERO PUSH2 0x2708 JUMPI DUP2 MLOAD PUSH1 0x1 PUSH1 0x1 PUSH1 0x40 SHL SUB AND DUP4 MSTORE PUSH1 0x20 SWAP3 DUP4 ADD SWAP3 SWAP1 SWAP2 ADD SWAP1 PUSH1 0x1 ADD PUSH2 0x2BFF JUMP JUMPDEST SWAP1 SLOAD PUSH1 0xFF DUP1 DUP3 AND DUP4 MSTORE PUSH1 0x8 DUP3 SWAP1 SHR DUP2 AND PUSH1 0x20 DUP5 ADD MSTORE PUSH1 0x10 DUP3 SWAP1 SHR DUP2 AND PUSH1 0x40 DUP5 ADD MSTORE PUSH1 0x18 SWAP2 SWAP1 SWAP2 SHR AND PUSH1 0x60 DUP3 ADD MSTORE PUSH1 0x80 ADD SWAP1 JUMP JUMPDEST SWAP1 ISZERO ISZERO DUP2 MSTORE PUSH1 0x20 ADD SWAP1 JUMP JUMPDEST SWAP3 DUP4 MSTORE PUSH1 0x20 DUP4 ADD SWAP2 SWAP1 SWAP2 MSTORE PUSH1 0x40 DUP3 ADD MSTORE PUSH1 0x60 ADD SWAP1 JUMP JUMPDEST SWAP4 DUP5 MSTORE PUSH1 0x20 DUP5 ADD SWAP3 SWAP1 SWAP3 MSTORE PUSH1 0x40 DUP4 ADD MSTORE PUSH1 0x60 DUP3 ADD MSTORE PUSH1 0x80 ADD SWAP1 JUMP JUMPDEST PUSH1 0x0 PUSH1 0x20 DUP3 MSTORE DUP3 MLOAD DUP1 PUSH1 0x20 DUP5 ADD MSTORE PUSH2 0x2CB5 DUP2 PUSH1 0x40 DUP6 ADD PUSH1 0x20 DUP8 ADD PUSH2 0x3208 JUMP JUMPDEST PUSH1 0x1F ADD PUSH1 0x1F NOT AND SWAP2 SWAP1 SWAP2 ADD PUSH1 0x40 ADD SWAP3 SWAP2 POP POP JUMP JUMPDEST PUSH1 0x20 DUP1 DUP3 MSTORE PUSH1 0x6 SWAP1 DUP3 ADD MSTORE PUSH6 0x72657365743F PUSH1 0xD0 SHL PUSH1 0x40 DUP3 ADD MSTORE PUSH1 0x60 ADD SWAP1 JUMP JUMPDEST PUSH1 0x20 DUP1 DUP3 MSTORE PUSH1 0xA SWAP1 DUP3 ADD MSTORE PUSH10 0x1B9BDD08191C985DD959 PUSH1 0xB2 SHL PUSH1 0x40 DUP3 ADD MSTORE PUSH1 0x60 ADD SWAP1 JUMP JUMPDEST PUSH1 0x20 DUP1 DUP3 MSTORE PUSH1 0x13 SWAP1 DUP3 ADD MSTORE PUSH19 0x657863656564206E756D6265722073636F7065 PUSH1 0x68 SHL PUSH1 0x40 DUP3 ADD MSTORE PUSH1 0x60 ADD SWAP1 JUMP JUMPDEST PUSH1 0x20 DUP1 DUP3 MSTORE PUSH1 0x19 SWAP1 DUP3 ADD MSTORE PUSH32 0x5F6973737565496E646578203C3D206973737565496E64657800000000000000 PUSH1 0x40 DUP3 ADD MSTORE PUSH1 0x60 ADD SWAP1 JUMP JUMPDEST PUSH1 0x20 DUP1 DUP3 MSTORE PUSH1 0x26 SWAP1 DUP3 ADD MSTORE PUSH32 0x4F776E61626C653A206E6577206F776E657220697320746865207A65726F2061 PUSH1 0x40 DUP3 ADD MSTORE PUSH6 0x646472657373 PUSH1 0xD0 SHL PUSH1 0x60 DUP3 ADD MSTORE PUSH1 0x80 ADD SWAP1 JUMP JUMPDEST PUSH1 0x20 DUP1 DUP3 MSTORE PUSH1 0x1B SWAP1 DUP3 ADD MSTORE PUSH32 0x536166654D6174683A206164646974696F6E206F766572666C6F770000000000 PUSH1 0x40 DUP3 ADD MSTORE PUSH1 0x60 ADD SWAP1 JUMP JUMPDEST PUSH1 0x20 DUP1 DUP3 MSTORE PUSH1 0x12 SWAP1 DUP3 ADD MSTORE PUSH18 0x65786365656420746865206D6178696D756D PUSH1 0x70 SHL PUSH1 0x40 DUP3 ADD MSTORE PUSH1 0x60 ADD SWAP1 JUMP JUMPDEST PUSH1 0x20 DUP1 DUP3 MSTORE PUSH1 0x1E SWAP1 DUP3 ADD MSTORE PUSH32 0x536166654D6174683A207375627472616374696F6E206F766572666C6F770000 PUSH1 0x40 DUP3 ADD MSTORE PUSH1 0x60 ADD SWAP1 JUMP JUMPDEST PUSH1 0x20 DUP1 DUP3 MSTORE PUSH1 0x26 SWAP1 DUP3 ADD MSTORE PUSH32 0x416464726573733A20696E73756666696369656E742062616C616E636520666F PUSH1 0x40 DUP3 ADD MSTORE PUSH6 0x1C8818D85B1B PUSH1 0xD2 SHL PUSH1 0x60 DUP3 ADD MSTORE PUSH1 0x80 ADD SWAP1 JUMP JUMPDEST PUSH1 0x20 DUP1 DUP3 MSTORE PUSH1 0xE SWAP1 DUP3 ADD MSTORE PUSH14 0x3737BA10333937B69037BBB732B9 PUSH1 0x91 SHL PUSH1 0x40 DUP3 ADD MSTORE PUSH1 0x60 ADD SWAP1 JUMP JUMPDEST PUSH1 0x20 DUP1 DUP3 MSTORE PUSH1 0x1A SWAP1 DUP3 ADD MSTORE PUSH32 0x536166654D6174683A206469766973696F6E206279207A65726F000000000000 PUSH1 0x40 DUP3 ADD MSTORE PUSH1 0x60 ADD SWAP1 JUMP JUMPDEST PUSH1 0x20 DUP1 DUP3 MSTORE PUSH1 0x19 SWAP1 DUP3 ADD MSTORE PUSH32 0x656E7465722064726177696E6720706861736520666972737400000000000000 PUSH1 0x40 DUP3 ADD MSTORE PUSH1 0x60 ADD SWAP1 JUMP JUMPDEST PUSH1 0x20 DUP1 DUP3 MSTORE PUSH1 0x7 SWAP1 DUP3 ADD MSTORE PUSH7 0x18DB185A5B5959 PUSH1 0xCA SHL PUSH1 0x40 DUP3 ADD MSTORE PUSH1 0x60 ADD SWAP1 JUMP JUMPDEST PUSH1 0x20 DUP1 DUP3 MSTORE PUSH1 0x18 SWAP1 DUP3 ADD MSTORE PUSH32 0x64726177696E672C2063616E206E6F7420627579206E6F770000000000000000 PUSH1 0x40 DUP3 ADD MSTORE PUSH1 0x60 ADD SWAP1 JUMP JUMPDEST PUSH1 0x20 DUP1 DUP3 MSTORE PUSH1 0x2E SWAP1 DUP3 ADD MSTORE PUSH32 0x496E697469616C697A61626C653A20636F6E747261637420697320616C726561 PUSH1 0x40 DUP3 ADD MSTORE PUSH14 0x191E481A5B9A5D1A585B1A5E9959 PUSH1 0x92 SHL PUSH1 0x60 DUP3 ADD MSTORE PUSH1 0x80 ADD SWAP1 JUMP JUMPDEST PUSH1 0x20 DUP1 DUP3 MSTORE PUSH1 0x19 SWAP1 DUP3 ADD MSTORE PUSH32 0x7072696365206D7573742061626F7665206D696E507269636500000000000000 PUSH1 0x40 DUP3 ADD MSTORE PUSH1 0x60 ADD SWAP1 JUMP JUMPDEST PUSH1 0x20 DUP1 DUP3 MSTORE PUSH1 0x21 SWAP1 DUP3 ADD MSTORE PUSH32 0x536166654D6174683A206D756C7469706C69636174696F6E206F766572666C6F PUSH1 0x40 DUP3 ADD MSTORE PUSH1 0x77 PUSH1 0xF8 SHL PUSH1 0x60 DUP3 ADD MSTORE PUSH1 0x80 ADD SWAP1 JUMP JUMPDEST PUSH1 0x20 DUP1 DUP3 MSTORE PUSH1 0x17 SWAP1 DUP3 ADD MSTORE PUSH32 0x6472617765642C2063616E206E6F7420627579206E6F77000000000000000000 PUSH1 0x40 DUP3 ADD MSTORE PUSH1 0x60 ADD SWAP1 JUMP JUMPDEST PUSH1 0x20 DUP1 DUP3 MSTORE DUP2 DUP2 ADD MSTORE PUSH32 0x4F776E61626C653A2063616C6C6572206973206E6F7420746865206F776E6572 PUSH1 0x40 DUP3 ADD MSTORE PUSH1 0x60 ADD SWAP1 JUMP JUMPDEST PUSH1 0x20 DUP1 DUP3 MSTORE PUSH1 0xB SWAP1 DUP3 ADD MSTORE PUSH11 0x61646D696E3A207775743F PUSH1 0xA8 SHL PUSH1 0x40 DUP3 ADD MSTORE PUSH1 0x60 ADD SWAP1 JUMP JUMPDEST PUSH1 0x20 DUP1 DUP3 MSTORE PUSH1 0x1D SWAP1 DUP3 ADD MSTORE PUSH32 0x416464726573733A2063616C6C20746F206E6F6E2D636F6E7472616374000000 PUSH1 0x40 DUP3 ADD MSTORE PUSH1 0x60 ADD SWAP1 JUMP JUMPDEST PUSH1 0x20 DUP1 DUP3 MSTORE PUSH1 0x7 SWAP1 DUP3 ADD MSTORE PUSH7 0x6472617765643F PUSH1 0xC8 SHL PUSH1 0x40 DUP3 ADD MSTORE PUSH1 0x60 ADD SWAP1 JUMP JUMPDEST PUSH1 0x20 DUP1 DUP3 MSTORE PUSH1 0x2A SWAP1 DUP3 ADD MSTORE PUSH32 0x5361666545524332303A204552433230206F7065726174696F6E20646964206E PUSH1 0x40 DUP3 ADD MSTORE PUSH10 0x1BDD081CDD58D8D95959 PUSH1 0xB2 SHL PUSH1 0x60 DUP3 ADD MSTORE PUSH1 0x80 ADD SWAP1 JUMP JUMPDEST PUSH1 0x20 DUP1 DUP3 MSTORE PUSH1 0x6 SWAP1 DUP3 ADD MSTORE PUSH6 0x191C985DD959 PUSH1 0xD2 SHL PUSH1 0x40 DUP3 ADD MSTORE PUSH1 0x60 ADD SWAP1 JUMP JUMPDEST SWAP1 DUP2 MSTORE PUSH1 0x20 ADD SWAP1 JUMP JUMPDEST SWAP2 DUP3 MSTORE PUSH1 0x20 DUP3 ADD MSTORE PUSH1 0x40 ADD SWAP1 JUMP JUMPDEST PUSH1 0xFF SWAP2 SWAP1 SWAP2 AND DUP2 MSTORE PUSH1 0x20 ADD SWAP1 JUMP JUMPDEST PUSH1 0x40 MLOAD DUP2 DUP2 ADD PUSH1 0x1 PUSH1 0x1 PUSH1 0x40 SHL SUB DUP2 GT DUP3 DUP3 LT OR ISZERO PUSH2 0x31E1 JUMPI PUSH1 0x0 DUP1 REVERT JUMPDEST PUSH1 0x40 MSTORE SWAP2 SWAP1 POP JUMP JUMPDEST PUSH1 0x0 PUSH1 0x1 PUSH1 0x1 PUSH1 0x40 SHL SUB DUP3 GT ISZERO PUSH2 0x31FE JUMPI DUP1 DUP2 REVERT JUMPDEST POP PUSH1 0x20 SWAP1 DUP2 MUL ADD SWAP1 JUMP JUMPDEST PUSH1 0x0 JUMPDEST DUP4 DUP2 LT ISZERO PUSH2 0x3223 JUMPI DUP2 DUP2 ADD MLOAD DUP4 DUP3 ADD MSTORE PUSH1 0x20 ADD PUSH2 0x320B JUMP JUMPDEST DUP4 DUP2 GT ISZERO PUSH2 0x10F2 JUMPI POP POP PUSH1 0x0 SWAP2 ADD MSTORE JUMP JUMPDEST PUSH1 0x1 PUSH1 0x1 PUSH1 0xA0 SHL SUB DUP2 AND DUP2 EQ PUSH2 0x3249 JUMPI PUSH1 0x0 DUP1 REVERT JUMPDEST POP JUMP JUMPDEST PUSH1 0xFF DUP2 AND DUP2 EQ PUSH2 0x3249 JUMPI PUSH1 0x0 DUP1 REVERT INVALID LOG2 PUSH5 0x6970667358 0x22 SLT KECCAK256 PUSH2 0xF6CC CHAINID 0x5E CREATE 0xF9 0x4A PUSH25 0xF52191BED4555FED8FEEA6B43814E4AFD0B61B79231CD66473 PUSH16 0x6C634300060C00330000000000000000 "
		},
		"gasEstimates": {
			"creation": {
				"codeDepositCost": "2589000",
				"executionCost": "infinite",
				"totalCost": "infinite"
			},
			"external": {
				"adminAddress()": "1202",
				"adminWithdraw(uint256)": "infinite",
				"allocation(uint256)": "2854",
				"buy(uint256,uint8[4])": "infinite",
				"claimReward(uint256)": "infinite",
				"drawed()": "1090",
				"drawing(uint256)": "infinite",
				"drawingPhase()": "1130",
				"enterDrawingPhase()": "22713",
				"generateNumberIndexKey(uint8[4])": "infinite",
				"getMatchingRewardAmount(uint256,uint256)": "2188",
				"getRewardView(uint256)": "infinite",
				"getTotalRewards(uint256)": "4629",
				"historyAmount(uint256,uint256)": "2131",
				"historyNumbers(uint256,uint256)": "2965",
				"initialize(address,address,uint256,uint8,address,address)": "infinite",
				"issueIndex()": "1074",
				"lastTimestamp()": "1119",
				"lotteryInfo(uint256,uint256)": "2219",
				"lotteryNFT()": "1158",
				"maxNumber()": "1109",
				"minPrice()": "1094",
				"multiBuy(uint256,uint8[4][])": "infinite",
				"multiClaim(uint256[])": "infinite",
				"owner()": "1159",
				"renounceOwnership()": "24255",
				"reset()": "infinite",
				"setAdmin(address)": "22073",
				"setAllocation(uint8,uint8,uint8)": "infinite",
				"setMaxNumber(uint8)": "22126",
				"setMinPrice(uint256)": "21175",
				"totalAddresses()": "1095",
				"totalAmount()": "1141",
				"transferOwnership(address)": "24504",
				"uns()": "1138",
				"userBuyAmountSum(uint256,uint64)": "1432",
				"userInfo(address,uint256)": "2227",
				"winningNumbers(uint256)": "2921"
			},
			"internal": {
				"calculateMatchingRewardAmount()": "infinite",
				"internalBuy(uint256,uint8[4] memory)": "infinite"
			}
		},
		"methodIdentifiers": {
			"adminAddress()": "fc6f9468",
			"adminWithdraw(uint256)": "7c5b4a37",
			"allocation(uint256)": "850bad94",
			"buy(uint256,uint8[4])": "14c20d57",
			"claimReward(uint256)": "ae169a50",
			"drawed()": "e1345416",
			"drawing(uint256)": "a42206c9",
			"drawingPhase()": "438209f5",
			"enterDrawingPhase()": "1ff68866",
			"generateNumberIndexKey(uint8[4])": "85dcdf1b",
			"getMatchingRewardAmount(uint256,uint256)": "d1f7dbcf",
			"getRewardView(uint256)": "d411b0fa",
			"getTotalRewards(uint256)": "552164ee",
			"historyAmount(uint256,uint256)": "c39f49c0",
			"historyNumbers(uint256,uint256)": "59bcbd68",
			"initialize(address,address,uint256,uint8,address,address)": "11e42065",
			"issueIndex()": "6a28f828",
			"lastTimestamp()": "19d8ac61",
			"lotteryInfo(uint256,uint256)": "6575243f",
			"lotteryNFT()": "e8adfbc7",
			"maxNumber()": "3a4f6999",
			"minPrice()": "e45be8eb",
			"multiBuy(uint256,uint8[4][])": "2bdff851",
			"multiClaim(uint256[])": "4ed73d28",
			"owner()": "8da5cb5b",
			"renounceOwnership()": "715018a6",
			"reset()": "d826f88f",
			"setAdmin(address)": "704b6c02",
			"setAllocation(uint8,uint8,uint8)": "5c17623a",
			"setMaxNumber(uint8)": "324a5562",
			"setMinPrice(uint256)": "5ea8cd12",
			"totalAddresses()": "cfad5277",
			"totalAmount()": "1a39d8ef",
			"transferOwnership(address)": "f2fde38b",
			"uns()": "3c6f44bf",
			"userBuyAmountSum(uint256,uint64)": "2f506b20",
			"userInfo(address,uint256)": "21ce919d",
			"winningNumbers(uint256)": "4e45f095"
		}
	},
	"abi": [
		{
			"inputs": [],
			"stateMutability": "nonpayable",
			"type": "constructor"
		},
		{
			"anonymous": false,
			"inputs": [
				{
					"indexed": true,
					"internalType": "address",
					"name": "user",
					"type": "address"
				},
				{
					"indexed": false,
					"internalType": "uint256",
					"name": "tokenId",
					"type": "uint256"
				}
			],
			"name": "Buy",
			"type": "event"
		},
		{
			"anonymous": false,
			"inputs": [
				{
					"indexed": true,
					"internalType": "address",
					"name": "user",
					"type": "address"
				},
				{
					"indexed": false,
					"internalType": "uint256",
					"name": "tokenid",
					"type": "uint256"
				},
				{
					"indexed": false,
					"internalType": "uint256",
					"name": "amount",
					"type": "uint256"
				}
			],
			"name": "Claim",
			"type": "event"
		},
		{
			"anonymous": false,
			"inputs": [
				{
					"indexed": true,
					"internalType": "address",
					"name": "user",
					"type": "address"
				},
				{
					"indexed": false,
					"internalType": "uint256",
					"name": "amount",
					"type": "uint256"
				}
			],
			"name": "DevWithdraw",
			"type": "event"
		},
		{
			"anonymous": false,
			"inputs": [
				{
					"indexed": true,
					"internalType": "uint256",
					"name": "issueIndex",
					"type": "uint256"
				},
				{
					"indexed": false,
					"internalType": "uint8[4]",
					"name": "winningNumbers",
					"type": "uint8[4]"
				}
			],
			"name": "Drawing",
			"type": "event"
		},
		{
			"anonymous": false,
			"inputs": [
				{
					"indexed": true,
					"internalType": "address",
					"name": "user",
					"type": "address"
				},
				{
					"indexed": false,
					"internalType": "uint256",
					"name": "amount",
					"type": "uint256"
				}
			],
			"name": "MultiBuy",
			"type": "event"
		},
		{
			"anonymous": false,
			"inputs": [
				{
					"indexed": true,
					"internalType": "address",
					"name": "user",
					"type": "address"
				},
				{
					"indexed": false,
					"internalType": "uint256",
					"name": "amount",
					"type": "uint256"
				}
			],
			"name": "MultiClaim",
			"type": "event"
		},
		{
			"anonymous": false,
			"inputs": [
				{
					"indexed": true,
					"internalType": "address",
					"name": "previousOwner",
					"type": "address"
				},
				{
					"indexed": true,
					"internalType": "address",
					"name": "newOwner",
					"type": "address"
				}
			],
			"name": "OwnershipTransferred",
			"type": "event"
		},
		{
			"anonymous": false,
			"inputs": [
				{
					"indexed": true,
					"internalType": "uint256",
					"name": "issueIndex",
					"type": "uint256"
				}
			],
			"name": "Reset",
			"type": "event"
		},
		{
			"inputs": [],
			"name": "adminAddress",
			"outputs": [
				{
					"internalType": "address",
					"name": "",
					"type": "address"
				}
			],
			"stateMutability": "view",
			"type": "function"
		},
		{
			"inputs": [
				{
					"internalType": "uint256",
					"name": "_amount",
					"type": "uint256"
				}
			],
			"name": "adminWithdraw",
			"outputs": [],
			"stateMutability": "nonpayable",
			"type": "function"
		},
		{
			"inputs": [
				{
					"internalType": "uint256",
					"name": "",
					"type": "uint256"
				}
			],
			"name": "allocation",
			"outputs": [
				{
					"internalType": "uint8",
					"name": "",
					"type": "uint8"
				}
			],
			"stateMutability": "view",
			"type": "function"
		},
		{
			"inputs": [
				{
					"internalType": "uint256",
					"name": "_price",
					"type": "uint256"
				},
				{
					"internalType": "uint8[4]",
					"name": "_numbers",
					"type": "uint8[4]"
				}
			],
			"name": "buy",
			"outputs": [],
			"stateMutability": "nonpayable",
			"type": "function"
		},
		{
			"inputs": [
				{
					"internalType": "uint256",
					"name": "_tokenId",
					"type": "uint256"
				}
			],
			"name": "claimReward",
			"outputs": [],
			"stateMutability": "nonpayable",
			"type": "function"
		},
		{
			"inputs": [],
			"name": "drawed",
			"outputs": [
				{
					"internalType": "bool",
					"name": "",
					"type": "bool"
				}
			],
			"stateMutability": "view",
			"type": "function"
		},
		{
			"inputs": [
				{
					"internalType": "uint256",
					"name": "_externalRandomNumber",
					"type": "uint256"
				}
			],
			"name": "drawing",
			"outputs": [],
			"stateMutability": "nonpayable",
			"type": "function"
		},
		{
			"inputs": [],
			"name": "drawingPhase",
			"outputs": [
				{
					"internalType": "bool",
					"name": "",
					"type": "bool"
				}
			],
			"stateMutability": "view",
			"type": "function"
		},
		{
			"inputs": [],
			"name": "enterDrawingPhase",
			"outputs": [],
			"stateMutability": "nonpayable",
			"type": "function"
		},
		{
			"inputs": [
				{
					"internalType": "uint8[4]",
					"name": "number",
					"type": "uint8[4]"
				}
			],
			"name": "generateNumberIndexKey",
			"outputs": [
				{
					"internalType": "uint64[11]",
					"name": "",
					"type": "uint64[11]"
				}
			],
			"stateMutability": "pure",
			"type": "function"
		},
		{
			"inputs": [
				{
					"internalType": "uint256",
					"name": "_issueIndex",
					"type": "uint256"
				},
				{
					"internalType": "uint256",
					"name": "_matchingNumber",
					"type": "uint256"
				}
			],
			"name": "getMatchingRewardAmount",
			"outputs": [
				{
					"internalType": "uint256",
					"name": "",
					"type": "uint256"
				}
			],
			"stateMutability": "view",
			"type": "function"
		},
		{
			"inputs": [
				{
					"internalType": "uint256",
					"name": "_tokenId",
					"type": "uint256"
				}
			],
			"name": "getRewardView",
			"outputs": [
				{
					"internalType": "uint256",
					"name": "",
					"type": "uint256"
				}
			],
			"stateMutability": "view",
			"type": "function"
		},
		{
			"inputs": [
				{
					"internalType": "uint256",
					"name": "_issueIndex",
					"type": "uint256"
				}
			],
			"name": "getTotalRewards",
			"outputs": [
				{
					"internalType": "uint256",
					"name": "",
					"type": "uint256"
				}
			],
			"stateMutability": "view",
			"type": "function"
		},
		{
			"inputs": [
				{
					"internalType": "uint256",
					"name": "",
					"type": "uint256"
				},
				{
					"internalType": "uint256",
					"name": "",
					"type": "uint256"
				}
			],
			"name": "historyAmount",
			"outputs": [
				{
					"internalType": "uint256",
					"name": "",
					"type": "uint256"
				}
			],
			"stateMutability": "view",
			"type": "function"
		},
		{
			"inputs": [
				{
					"internalType": "uint256",
					"name": "",
					"type": "uint256"
				},
				{
					"internalType": "uint256",
					"name": "",
					"type": "uint256"
				}
			],
			"name": "historyNumbers",
			"outputs": [
				{
					"internalType": "uint8",
					"name": "",
					"type": "uint8"
				}
			],
			"stateMutability": "view",
			"type": "function"
		},
		{
			"inputs": [
				{
					"internalType": "contract IERC20",
					"name": "_uns",
					"type": "address"
				},
				{
					"internalType": "contract LotteryNFT",
					"name": "_lottery",
					"type": "address"
				},
				{
					"internalType": "uint256",
					"name": "_minPrice",
					"type": "uint256"
				},
				{
					"internalType": "uint8",
					"name": "_maxNumber",
					"type": "uint8"
				},
				{
					"internalType": "address",
					"name": "_owner",
					"type": "address"
				},
				{
					"internalType": "address",
					"name": "_adminAddress",
					"type": "address"
				}
			],
			"name": "initialize",
			"outputs": [],
			"stateMutability": "nonpayable",
			"type": "function"
		},
		{
			"inputs": [],
			"name": "issueIndex",
			"outputs": [
				{
					"internalType": "uint256",
					"name": "",
					"type": "uint256"
				}
			],
			"stateMutability": "view",
			"type": "function"
		},
		{
			"inputs": [],
			"name": "lastTimestamp",
			"outputs": [
				{
					"internalType": "uint256",
					"name": "",
					"type": "uint256"
				}
			],
			"stateMutability": "view",
			"type": "function"
		},
		{
			"inputs": [
				{
					"internalType": "uint256",
					"name": "",
					"type": "uint256"
				},
				{
					"internalType": "uint256",
					"name": "",
					"type": "uint256"
				}
			],
			"name": "lotteryInfo",
			"outputs": [
				{
					"internalType": "uint256",
					"name": "",
					"type": "uint256"
				}
			],
			"stateMutability": "view",
			"type": "function"
		},
		{
			"inputs": [],
			"name": "lotteryNFT",
			"outputs": [
				{
					"internalType": "contract LotteryNFT",
					"name": "",
					"type": "address"
				}
			],
			"stateMutability": "view",
			"type": "function"
		},
		{
			"inputs": [],
			"name": "maxNumber",
			"outputs": [
				{
					"internalType": "uint8",
					"name": "",
					"type": "uint8"
				}
			],
			"stateMutability": "view",
			"type": "function"
		},
		{
			"inputs": [],
			"name": "minPrice",
			"outputs": [
				{
					"internalType": "uint256",
					"name": "",
					"type": "uint256"
				}
			],
			"stateMutability": "view",
			"type": "function"
		},
		{
			"inputs": [
				{
					"internalType": "uint256",
					"name": "_price",
					"type": "uint256"
				},
				{
					"internalType": "uint8[4][]",
					"name": "_numbers",
					"type": "uint8[4][]"
				}
			],
			"name": "multiBuy",
			"outputs": [],
			"stateMutability": "nonpayable",
			"type": "function"
		},
		{
			"inputs": [
				{
					"internalType": "uint256[]",
					"name": "_tickets",
					"type": "uint256[]"
				}
			],
			"name": "multiClaim",
			"outputs": [],
			"stateMutability": "nonpayable",
			"type": "function"
		},
		{
			"inputs": [],
			"name": "owner",
			"outputs": [
				{
					"internalType": "address",
					"name": "",
					"type": "address"
				}
			],
			"stateMutability": "view",
			"type": "function"
		},
		{
			"inputs": [],
			"name": "renounceOwnership",
			"outputs": [],
			"stateMutability": "nonpayable",
			"type": "function"
		},
		{
			"inputs": [],
			"name": "reset",
			"outputs": [],
			"stateMutability": "nonpayable",
			"type": "function"
		},
		{
			"inputs": [
				{
					"internalType": "address",
					"name": "_adminAddress",
					"type": "address"
				}
			],
			"name": "setAdmin",
			"outputs": [],
			"stateMutability": "nonpayable",
			"type": "function"
		},
		{
			"inputs": [
				{
					"internalType": "uint8",
					"name": "_allcation1",
					"type": "uint8"
				},
				{
					"internalType": "uint8",
					"name": "_allcation2",
					"type": "uint8"
				},
				{
					"internalType": "uint8",
					"name": "_allcation3",
					"type": "uint8"
				}
			],
			"name": "setAllocation",
			"outputs": [],
			"stateMutability": "nonpayable",
			"type": "function"
		},
		{
			"inputs": [
				{
					"internalType": "uint8",
					"name": "_maxNumber",
					"type": "uint8"
				}
			],
			"name": "setMaxNumber",
			"outputs": [],
			"stateMutability": "nonpayable",
			"type": "function"
		},
		{
			"inputs": [
				{
					"internalType": "uint256",
					"name": "_price",
					"type": "uint256"
				}
			],
			"name": "setMinPrice",
			"outputs": [],
			"stateMutability": "nonpayable",
			"type": "function"
		},
		{
			"inputs": [],
			"name": "totalAddresses",
			"outputs": [
				{
					"internalType": "uint256",
					"name": "",
					"type": "uint256"
				}
			],
			"stateMutability": "view",
			"type": "function"
		},
		{
			"inputs": [],
			"name": "totalAmount",
			"outputs": [
				{
					"internalType": "uint256",
					"name": "",
					"type": "uint256"
				}
			],
			"stateMutability": "view",
			"type": "function"
		},
		{
			"inputs": [
				{
					"internalType": "address",
					"name": "newOwner",
					"type": "address"
				}
			],
			"name": "transferOwnership",
			"outputs": [],
			"stateMutability": "nonpayable",
			"type": "function"
		},
		{
			"inputs": [],
			"name": "uns",
			"outputs": [
				{
					"internalType": "contract IERC20",
					"name": "",
					"type": "address"
				}
			],
			"stateMutability": "view",
			"type": "function"
		},
		{
			"inputs": [
				{
					"internalType": "uint256",
					"name": "",
					"type": "uint256"
				},
				{
					"internalType": "uint64",
					"name": "",
					"type": "uint64"
				}
			],
			"name": "userBuyAmountSum",
			"outputs": [
				{
					"internalType": "uint256",
					"name": "",
					"type": "uint256"
				}
			],
			"stateMutability": "view",
			"type": "function"
		},
		{
			"inputs": [
				{
					"internalType": "address",
					"name": "",
					"type": "address"
				},
				{
					"internalType": "uint256",
					"name": "",
					"type": "uint256"
				}
			],
			"name": "userInfo",
			"outputs": [
				{
					"internalType": "uint256",
					"name": "",
					"type": "uint256"
				}
			],
			"stateMutability": "view",
			"type": "function"
		},
		{
			"inputs": [
				{
					"internalType": "uint256",
					"name": "",
					"type": "uint256"
				}
			],
			"name": "winningNumbers",
			"outputs": [
				{
					"internalType": "uint8",
					"name": "",
					"type": "uint8"
				}
			],
			"stateMutability": "view",
			"type": "function"
		}
	]
}