{
	"data": {
		"bytecode": {
			"linkReferences": {},
			"object": "60806040523480156200001157600080fd5b5060405162001f9238038062001f928339810160408190526200003491620000db565b600062000040620000d7565b600080546001600160a01b0319166001600160a01b0383169081178255604051929350917f8be0079c531659141344cd1fd0a4f28419497f9722a3daafe3b4186f6b6457e0908290a350600380546001600160a01b039485166001600160a01b0319918216179091556001805493851693821693909317909255600280549190931691161790556006805460ff1916905562000147565b3390565b600080600060608486031215620000f0578283fd5b8351620000fd816200012e565b602085015190935062000110816200012e565b604085015190925062000123816200012e565b809150509250925092565b6001600160a01b03811681146200014457600080fd5b50565b611e3b80620001576000396000f3fe608060405234801561001057600080fd5b50600436106101375760003560e01c8063715018a6116100b8578063b702ad9c1161007c578063b702ad9c14610264578063b88a802f1461026c578063d6948c4714610274578063e8c5408d1461027c578063ef8a92351461028f578063f2fde38b146102a457610137565b8063715018a6146102075780637f3684f11461020f5780637f8cfbb4146102225780638da5cb5b14610237578063a849d38f1461023f57610137565b80633c130d90116100ff5780633c130d90146101af5780633dd452d6146101c457806342fe07e3146101d957806343d6f88b146101ec578063675934a7146101ff57610137565b80630ae137061461013c5780630ef162ab14610151578063141908c81461016f5780631aa3a008146101845780631de403e31461018c575b600080fd5b61014f61014a36600461154e565b6102b7565b005b6101596103e4565b6040516101669190611d9c565b60405180910390f35b6101776103f4565b60405161016691906117b8565b61014f610403565b61019f61019a366004611532565b61059a565b6040516101669493929190611d7d565b6101b76105c7565b60405161016691906119ba565b6101cc610655565b6040516101669190611d74565b61014f6101e736600461167f565b61065a565b61014f6101fa3660046115fe565b610773565b610177610803565b61014f610812565b61014f61021d36600461162e565b61089b565b61022a610992565b6040516101669190611903565b610177610ab7565b61025261024d366004611532565b610ac6565b6040516101669695949392919061197a565b610177610c20565b61014f610c2f565b6101cc610f45565b61014f61028a3660046115df565b610f4b565b610297611139565b60405161016691906119a6565b61014f6102b2366004611532565b611142565b6102bf611202565b6001600160a01b03166102d0610ab7565b6001600160a01b0316146102ff5760405162461bcd60e51b81526004016102f690611c6e565b60405180910390fd5b600260065460ff16600481111561031257fe5b1461032f5760405162461bcd60e51b81526004016102f690611cc7565b60048111156103505760405162461bcd60e51b81526004016102f690611b26565b60005b828110156103a357816007600086868581811061036c57fe5b90506020020160208101906103819190611532565b6001600160a01b03168152602081019190915260400160002055600101610353565b507f6de9db9918823e10b6af7ae4803f0d3d676806f2ecc2da6e9aecd9f0c2216ff78383836040516103d7939291906118ad565b60405180910390a1505050565b600354600160a01b900460ff1681565b6001546001600160a01b031681565b600061040d611202565b6001600160a01b03811660009081526007602052604090206002015490915060ff161561044c5760405162461bcd60e51b81526004016102f690611c21565b600060065460ff16600481111561045f57fe5b1461047c5760405162461bcd60e51b81526004016102f6906119ed565b600354604051634c3f70ab60e11b815260009182916001600160a01b039091169063987ee156906104b19086906004016117b8565b60c06040518083038186803b1580156104c957600080fd5b505afa1580156104dd573d6000803e3d6000fd5b505050506040513d601f19601f82011682018060405250810190610501919061170e565b92965091945084935061052a925050505760405162461bcd60e51b81526004016102f690611ca3565b6001600160a01b03831660009081526007602052604090819020600180820185905560028201805460ff1916909117905590517fdec4c13f1daa034ca2a06b9cee6c16accc0bd81ad27afacc15604c4f5cea09bb9061058c9086908690611873565b60405180910390a150505050565b60076020526000908152604090208054600182015460029092015490919060ff8082169161010090041684565b6005805460408051602060026001851615610100026000190190941693909304601f8101849004840282018401909252818152929183018282801561064d5780601f106106225761010080835404028352916020019161064d565b820191906000526020600020905b81548152906001019060200180831161063057829003601f168201915b505050505081565b600381565b610662611202565b6001600160a01b0316610673610ab7565b6001600160a01b0316146106995760405162461bcd60e51b81526004016102f690611c6e565b600260065460ff1660048111156106ac57fe5b146106c95760405162461bcd60e51b81526004016102f690611cc7565b6000841180156106da575060038411155b6106f65760405162461bcd60e51b81526004016102f690611b6a565b600e8160ff16116107195760405162461bcd60e51b81526004016102f690611bdb565b600484905561072a6005848461140b565b506003805460ff60a01b1916600160a01b60ff8416021790556040517f888c23f0b9ffe0f2878e3b4eaf2414ed7ea3172647e4773cbbef57966c8fd7619061058c908690611d74565b61077b611202565b6001600160a01b031661078c610ab7565b6001600160a01b0316146107b25760405162461bcd60e51b81526004016102f690611c6e565b600460065460ff1660048111156107c557fe5b146107e25760405162461bcd60e51b81526004016102f690611bff565b6108006107ed611202565b6002546001600160a01b03169083611206565b50565b6003546001600160a01b031681565b61081a611202565b6001600160a01b031661082b610ab7565b6001600160a01b0316146108515760405162461bcd60e51b81526004016102f690611c6e565b600080546040516001600160a01b03909116907f8be0079c531659141344cd1fd0a4f28419497f9722a3daafe3b4186f6b6457e0908390a3600080546001600160a01b0319169055565b6108a3611202565b6001600160a01b03166108b4610ab7565b6001600160a01b0316146108da5760405162461bcd60e51b81526004016102f690611c6e565b600260065460ff1660048111156108ed57fe5b1461090a5760405162461bcd60e51b81526004016102f690611cc7565b600084815260086020526040902061092490846005611489565b506000848152600860205260409020610944906005908101908490611489565b50600084815260086020526040902061096290600a01826005611489565b507f975e819e964a851cc1d16e54bb4a815e8f5af37c7b5863d23c29614b5a9973b08460405161058c9190611d74565b60408051600380825260808201909252606091829190816020015b6109b56114b6565b8152602001906001900390816109ad57905050905060005b6003811015610ab15760018101600090815260086020526040908190208151610100810190925281606081018260058282826020028201915b815481526020019060010190808311610a065750505091835250506040805160a08101918290526020909201919060058481019182845b815481526020019060010190808311610a3d5750505091835250506040805160a081019182905260209092019190600a84019060059082845b815481526020019060010190808311610a7657505050505081525050828281518110610a9e57fe5b60209081029190910101526001016109cd565b50905090565b6000546001600160a01b031690565b6001600160a01b0381166000908152600760205260408120600201548190819081908190819060ff16600360065460ff166004811115610b0257fe5b14158015610b215750600460065460ff166004811115610b1e57fe5b14155b15610b3d57955060009450849350839250829150819050610c17565b80610b5957955060009450849350839250829150819050610c17565b6001600160a01b03881660009081526007602090815260408083208054600190910154808552600890935290832090929060059081019084908110610b9a57fe5b0154600083815260086020526040812091925090600a018460058110610bbc57fe5b01546001600160a01b038d16600090815260076020526040812060020154600454929350610100900460ff169185148015610bf75750600086115b15610c00575060015b959b5099509297509550909350909150610c179050565b91939550919395565b6002546001600160a01b031681565b6000610c39611202565b6001600160a01b03811660009081526007602052604090206002015490915060ff16610c775760405162461bcd60e51b81526004016102f690611aaa565b6001600160a01b038116600090815260076020526040902060020154610100900460ff1615610cb85760405162461bcd60e51b81526004016102f690611c49565b600360065460ff166004811115610ccb57fe5b14610ce85760405162461bcd60e51b81526004016102f690611ceb565b6001600160a01b038116600090815260076020526040902060028101805461ff001916610100179055805460019190910154610d226114b6565b600082815260086020526040908190208151610100810190925281606081018260058282826020028201915b815481526020019060010190808311610d4e5750505091835250506040805160a08101918290526020909201919060058481019182845b815481526020019060010190808311610d855750505091835250506040805160a081019182905260209092019190600a84019060059082845b815481526020019060010190808311610dbe5750505050508152505090506000831115610eb157610e118482602001518560058110610df957fe5b60200201516002546001600160a01b03169190611206565b600454821415610eb1576001546003546040516307c2e5ad60e11b81526001600160a01b0390921691630f85cb5a91610e5d918891600591600160a01b90910460ff16906004016117cc565b602060405180830381600087803b158015610e7757600080fd5b505af1158015610e8b573d6000803e3d6000fd5b505050506040513d601f19601f82011682018060405250810190610eaf9190611616565b505b60035460408201516001600160a01b0390911690631bdc17f69086908660058110610ed857fe5b602002015184518760058110610eea57fe5b60200201516040518463ffffffff1660e01b8152600401610f0d9392919061188c565b600060405180830381600087803b158015610f2757600080fd5b505af1158015610f3b573d6000803e3d6000fd5b5050505050505050565b60045481565b610f53611202565b6001600160a01b0316610f64610ab7565b6001600160a01b031614610f8a5760405162461bcd60e51b81526004016102f690611c6e565b6000816004811115610f9857fe5b1415610fb65760405162461bcd60e51b81526004016102f690611d4b565b6001816004811115610fc457fe5b1415610fff57600060065460ff166004811115610fdd57fe5b14610ffa5760405162461bcd60e51b81526004016102f6906119ed565b6110d9565b600281600481111561100d57fe5b141561104357600160065460ff16600481111561102657fe5b14610ffa5760405162461bcd60e51b81526004016102f690611b48565b600381600481111561105157fe5b14156110a9576000600454116110795760405162461bcd60e51b81526004016102f690611ad2565b600260065460ff16600481111561108c57fe5b14610ffa5760405162461bcd60e51b81526004016102f690611cc7565b600360065460ff1660048111156110bc57fe5b146110d95760405162461bcd60e51b81526004016102f690611b00565b6006805482919060ff191660018360048111156110f257fe5b02179055506006546040517f764216cc87d672d651534a1b124f00f678d3ed29aaf5e649af8e92590cbf9f119161112e9160ff909116906119a6565b60405180910390a150565b60065460ff1681565b61114a611202565b6001600160a01b031661115b610ab7565b6001600160a01b0316146111815760405162461bcd60e51b81526004016102f690611c6e565b6001600160a01b0381166111a75760405162461bcd60e51b81526004016102f690611a64565b600080546040516001600160a01b03808516939216917f8be0079c531659141344cd1fd0a4f28419497f9722a3daafe3b4186f6b6457e091a3600080546001600160a01b0319166001600160a01b0392909216919091179055565b3390565b61125c8363a9059cbb60e01b8484604051602401611225929190611873565b60408051601f198184030181529190526020810180516001600160e01b03166001600160e01b031990931692909217909152611261565b505050565b60606112b6826040518060400160405280602081526020017f5361666542455032303a206c6f772d6c6576656c2063616c6c206661696c6564815250856001600160a01b03166112f09092919063ffffffff16565b80519091501561125c57808060200190518101906112d491906115c3565b61125c5760405162461bcd60e51b81526004016102f690611a1a565b60606112ff8484600085611309565b90505b9392505050565b60608247101561132b5760405162461bcd60e51b81526004016102f690611b95565b611334856113cc565b6113505760405162461bcd60e51b81526004016102f690611d14565b60006060866001600160a01b0316858760405161136d919061179c565b60006040518083038185875af1925050503d80600081146113aa576040519150601f19603f3d011682016040523d82523d6000602084013e6113af565b606091505b50915091506113bf8282866113d2565b925050505b949350505050565b3b151590565b606083156113e1575081611302565b8251156113f15782518084602001fd5b8160405162461bcd60e51b81526004016102f691906119ba565b828054600181600116156101000203166002900490600052602060002090601f016020900481019282601f1061144c5782800160ff19823516178555611479565b82800160010185558215611479579182015b8281111561147957823582559160200191906001019061145e565b506114859291506114e8565b5090565b8260058101928215611479579160200282018281111561147957823582559160200191906001019061145e565b60405180606001604052806114c96114fd565b81526020016114d66114fd565b81526020016114e36114fd565b905290565b5b8082111561148557600081556001016114e9565b6040518060a001604052806005906020820280368337509192915050565b8060a0810183101561152c57600080fd5b92915050565b600060208284031215611543578081fd5b813561130281611de2565b600080600060408486031215611562578182fd5b833567ffffffffffffffff80821115611579578384fd5b818601915086601f83011261158c578384fd5b81358181111561159a578485fd5b87602080830285010111156115ad578485fd5b6020928301989097509590910135949350505050565b6000602082840312156115d4578081fd5b815161130281611df7565b6000602082840312156115f0578081fd5b813560058110611302578182fd5b60006020828403121561160f578081fd5b5035919050565b600060208284031215611627578081fd5b5051919050565b6000806000806102008587031215611644578081fd5b84359350611655866020870161151b565b92506116648660c0870161151b565b915061167486610160870161151b565b905092959194509250565b60008060008060608587031215611694578384fd5b84359350602085013567ffffffffffffffff808211156116b2578485fd5b818701915087601f8301126116c5578485fd5b8135818111156116d3578586fd5b8860208285010111156116e4578586fd5b602083019550809450505050604085013560ff81168114611703578182fd5b939692955090935050565b60008060008060008060c08789031215611726578182fd5b865195506020870151945060408701519350606087015161174681611de2565b608088015160a0890151919450925061175e81611df7565b809150509295509295509295565b8060005b600581101561178f578151845260209384019390910190600101611770565b50505050565b60ff169052565b600082516117ae818460208701611db6565b9190910192915050565b6001600160a01b0391909116815260200190565b60006060820160018060a01b0386168352602060608185015282865460018082166000811461180257600181146118225761185d565b611812607f600285041687611d74565b60ff19841681528501935061185d565b600283046118308188611d74565b6118398c611daa565b895b838110156118545781548382015290850190880161183b565b91909101955050505b5050508093505050506113c46040830184611795565b6001600160a01b03929092168252602082015260400190565b6001600160a01b039390931683526020830191909152604082015260600190565b6040808252810183905260008460608301825b868110156118f057602083356118d581611de2565b6001600160a01b0316835292830192909101906001016118c0565b5060209390930193909352509392505050565b602080825282518282018190526000919060409081850190868401855b8281101561196d57815161193585825161176c565b8681015161194660a087018261176c565b5085015161195861014086018261176c565b506101e0939093019290850190600101611920565b5091979650505050505050565b95151586529315156020860152604085019290925260608401526080830152151560a082015260c00190565b60208101600583106119b457fe5b91905290565b60006020825282518060208401526119d9816040850160208701611db6565b601f01601f19169190910160400192915050565b6020808252601390820152722727aa2fa4a72fa922a3a4a9aa2920aa24a7a760691b604082015260600190565b6020808252602a908201527f5361666542455032303a204245503230206f7065726174696f6e20646964206e6040820152691bdd081cdd58d8d9595960b21b606082015260800190565b60208082526026908201527f4f776e61626c653a206e6577206f776e657220697320746865207a65726f206160408201526564647265737360d01b606082015260800190565b6020808252600e908201526d1393d517d49151d254d51154915160921b604082015260600190565b60208082526014908201527315d25393925391d7d511505357d393d517d4d15560621b604082015260600190565b6020808252600c908201526b4e4f545f434c41494d494e4760a01b604082015260600190565b6020808252600890820152670a89e9ebe90928e960c31b604082015260600190565b6020808252600890820152672727aa2fa7a822a760c11b604082015260600190565b6020808252601190820152701393d517d59053125117d511505357d251607a1b604082015260600190565b60208082526026908201527f416464726573733a20696e73756666696369656e742062616c616e636520666f6040820152651c8818d85b1b60d21b606082015260800190565b6020808252600a908201526949445f544f4f5f4c4f5760b01b604082015260600190565b6020808252600890820152672727aa2fa7ab22a960c11b604082015260600190565b6020808252600e908201526d121054d7d49151d254d51154915160921b604082015260600190565b6020808252600b908201526a121054d7d0d3105253515160aa1b604082015260600190565b6020808252818101527f4f776e61626c653a2063616c6c6572206973206e6f7420746865206f776e6572604082015260600190565b6020808252600a90820152694e4f545f41435449564560b01b604082015260600190565b6020808252600a90820152691393d517d0d313d4d15160b21b604082015260600190565b6020808252600f908201526e4e4f545f494e5f434c41494d494e4760881b604082015260600190565b6020808252601d908201527f416464726573733a2063616c6c20746f206e6f6e2d636f6e7472616374000000604082015260600190565b6020808252600f908201526e24a72fa922a3a4a9aa2920aa24a7a760891b604082015260600190565b90815260200190565b9384526020840192909252151560408301521515606082015260800190565b60ff91909116815260200190565b60009081526020902090565b60005b83811015611dd1578181015183820152602001611db9565b8381111561178f5750506000910152565b6001600160a01b038116811461080057600080fd5b801515811461080057600080fdfea2646970667358221220028be5b2c96a8db01a1f47efa90c25680d39b7ca69005ab85281b39e7f85f3b264736f6c634300060c0033",
			"opcodes": "PUSH1 0x80 PUSH1 0x40 MSTORE CALLVALUE DUP1 ISZERO PUSH3 0x11 JUMPI PUSH1 0x0 DUP1 REVERT JUMPDEST POP PUSH1 0x40 MLOAD PUSH3 0x1F92 CODESIZE SUB DUP1 PUSH3 0x1F92 DUP4 CODECOPY DUP2 ADD PUSH1 0x40 DUP2 SWAP1 MSTORE PUSH3 0x34 SWAP2 PUSH3 0xDB JUMP JUMPDEST PUSH1 0x0 PUSH3 0x40 PUSH3 0xD7 JUMP JUMPDEST PUSH1 0x0 DUP1 SLOAD PUSH1 0x1 PUSH1 0x1 PUSH1 0xA0 SHL SUB NOT AND PUSH1 0x1 PUSH1 0x1 PUSH1 0xA0 SHL SUB DUP4 AND SWAP1 DUP2 OR DUP3 SSTORE PUSH1 0x40 MLOAD SWAP3 SWAP4 POP SWAP2 PUSH32 0x8BE0079C531659141344CD1FD0A4F28419497F9722A3DAAFE3B4186F6B6457E0 SWAP1 DUP3 SWAP1 LOG3 POP PUSH1 0x3 DUP1 SLOAD PUSH1 0x1 PUSH1 0x1 PUSH1 0xA0 SHL SUB SWAP5 DUP6 AND PUSH1 0x1 PUSH1 0x1 PUSH1 0xA0 SHL SUB NOT SWAP2 DUP3 AND OR SWAP1 SWAP2 SSTORE PUSH1 0x1 DUP1 SLOAD SWAP4 DUP6 AND SWAP4 DUP3 AND SWAP4 SWAP1 SWAP4 OR SWAP1 SWAP3 SSTORE PUSH1 0x2 DUP1 SLOAD SWAP2 SWAP1 SWAP4 AND SWAP2 AND OR SWAP1 SSTORE PUSH1 0x6 DUP1 SLOAD PUSH1 0xFF NOT AND SWAP1 SSTORE PUSH3 0x147 JUMP JUMPDEST CALLER SWAP1 JUMP JUMPDEST PUSH1 0x0 DUP1 PUSH1 0x0 PUSH1 0x60 DUP5 DUP7 SUB SLT ISZERO PUSH3 0xF0 JUMPI DUP3 DUP4 REVERT JUMPDEST DUP4 MLOAD PUSH3 0xFD DUP2 PUSH3 0x12E JUMP JUMPDEST PUSH1 0x20 DUP6 ADD MLOAD SWAP1 SWAP4 POP PUSH3 0x110 DUP2 PUSH3 0x12E JUMP JUMPDEST PUSH1 0x40 DUP6 ADD MLOAD SWAP1 SWAP3 POP PUSH3 0x123 DUP2 PUSH3 0x12E JUMP JUMPDEST DUP1 SWAP2 POP POP SWAP3 POP SWAP3 POP SWAP3 JUMP JUMPDEST PUSH1 0x1 PUSH1 0x1 PUSH1 0xA0 SHL SUB DUP2 AND DUP2 EQ PUSH3 0x144 JUMPI PUSH1 0x0 DUP1 REVERT JUMPDEST POP JUMP JUMPDEST PUSH2 0x1E3B DUP1 PUSH3 0x157 PUSH1 0x0 CODECOPY PUSH1 0x0 RETURN INVALID PUSH1 0x80 PUSH1 0x40 MSTORE CALLVALUE DUP1 ISZERO PUSH2 0x10 JUMPI PUSH1 0x0 DUP1 REVERT JUMPDEST POP PUSH1 0x4 CALLDATASIZE LT PUSH2 0x137 JUMPI PUSH1 0x0 CALLDATALOAD PUSH1 0xE0 SHR DUP1 PUSH4 0x715018A6 GT PUSH2 0xB8 JUMPI DUP1 PUSH4 0xB702AD9C GT PUSH2 0x7C JUMPI DUP1 PUSH4 0xB702AD9C EQ PUSH2 0x264 JUMPI DUP1 PUSH4 0xB88A802F EQ PUSH2 0x26C JUMPI DUP1 PUSH4 0xD6948C47 EQ PUSH2 0x274 JUMPI DUP1 PUSH4 0xE8C5408D EQ PUSH2 0x27C JUMPI DUP1 PUSH4 0xEF8A9235 EQ PUSH2 0x28F JUMPI DUP1 PUSH4 0xF2FDE38B EQ PUSH2 0x2A4 JUMPI PUSH2 0x137 JUMP JUMPDEST DUP1 PUSH4 0x715018A6 EQ PUSH2 0x207 JUMPI DUP1 PUSH4 0x7F3684F1 EQ PUSH2 0x20F JUMPI DUP1 PUSH4 0x7F8CFBB4 EQ PUSH2 0x222 JUMPI DUP1 PUSH4 0x8DA5CB5B EQ PUSH2 0x237 JUMPI DUP1 PUSH4 0xA849D38F EQ PUSH2 0x23F JUMPI PUSH2 0x137 JUMP JUMPDEST DUP1 PUSH4 0x3C130D90 GT PUSH2 0xFF JUMPI DUP1 PUSH4 0x3C130D90 EQ PUSH2 0x1AF JUMPI DUP1 PUSH4 0x3DD452D6 EQ PUSH2 0x1C4 JUMPI DUP1 PUSH4 0x42FE07E3 EQ PUSH2 0x1D9 JUMPI DUP1 PUSH4 0x43D6F88B EQ PUSH2 0x1EC JUMPI DUP1 PUSH4 0x675934A7 EQ PUSH2 0x1FF JUMPI PUSH2 0x137 JUMP JUMPDEST DUP1 PUSH4 0xAE13706 EQ PUSH2 0x13C JUMPI DUP1 PUSH4 0xEF162AB EQ PUSH2 0x151 JUMPI DUP1 PUSH4 0x141908C8 EQ PUSH2 0x16F JUMPI DUP1 PUSH4 0x1AA3A008 EQ PUSH2 0x184 JUMPI DUP1 PUSH4 0x1DE403E3 EQ PUSH2 0x18C JUMPI JUMPDEST PUSH1 0x0 DUP1 REVERT JUMPDEST PUSH2 0x14F PUSH2 0x14A CALLDATASIZE PUSH1 0x4 PUSH2 0x154E JUMP JUMPDEST PUSH2 0x2B7 JUMP JUMPDEST STOP JUMPDEST PUSH2 0x159 PUSH2 0x3E4 JUMP JUMPDEST PUSH1 0x40 MLOAD PUSH2 0x166 SWAP2 SWAP1 PUSH2 0x1D9C JUMP JUMPDEST PUSH1 0x40 MLOAD DUP1 SWAP2 SUB SWAP1 RETURN JUMPDEST PUSH2 0x177 PUSH2 0x3F4 JUMP JUMPDEST PUSH1 0x40 MLOAD PUSH2 0x166 SWAP2 SWAP1 PUSH2 0x17B8 JUMP JUMPDEST PUSH2 0x14F PUSH2 0x403 JUMP JUMPDEST PUSH2 0x19F PUSH2 0x19A CALLDATASIZE PUSH1 0x4 PUSH2 0x1532 JUMP JUMPDEST PUSH2 0x59A JUMP JUMPDEST PUSH1 0x40 MLOAD PUSH2 0x166 SWAP5 SWAP4 SWAP3 SWAP2 SWAP1 PUSH2 0x1D7D JUMP JUMPDEST PUSH2 0x1B7 PUSH2 0x5C7 JUMP JUMPDEST PUSH1 0x40 MLOAD PUSH2 0x166 SWAP2 SWAP1 PUSH2 0x19BA JUMP JUMPDEST PUSH2 0x1CC PUSH2 0x655 JUMP JUMPDEST PUSH1 0x40 MLOAD PUSH2 0x166 SWAP2 SWAP1 PUSH2 0x1D74 JUMP JUMPDEST PUSH2 0x14F PUSH2 0x1E7 CALLDATASIZE PUSH1 0x4 PUSH2 0x167F JUMP JUMPDEST PUSH2 0x65A JUMP JUMPDEST PUSH2 0x14F PUSH2 0x1FA CALLDATASIZE PUSH1 0x4 PUSH2 0x15FE JUMP JUMPDEST PUSH2 0x773 JUMP JUMPDEST PUSH2 0x177 PUSH2 0x803 JUMP JUMPDEST PUSH2 0x14F PUSH2 0x812 JUMP JUMPDEST PUSH2 0x14F PUSH2 0x21D CALLDATASIZE PUSH1 0x4 PUSH2 0x162E JUMP JUMPDEST PUSH2 0x89B JUMP JUMPDEST PUSH2 0x22A PUSH2 0x992 JUMP JUMPDEST PUSH1 0x40 MLOAD PUSH2 0x166 SWAP2 SWAP1 PUSH2 0x1903 JUMP JUMPDEST PUSH2 0x177 PUSH2 0xAB7 JUMP JUMPDEST PUSH2 0x252 PUSH2 0x24D CALLDATASIZE PUSH1 0x4 PUSH2 0x1532 JUMP JUMPDEST PUSH2 0xAC6 JUMP JUMPDEST PUSH1 0x40 MLOAD PUSH2 0x166 SWAP7 SWAP6 SWAP5 SWAP4 SWAP3 SWAP2 SWAP1 PUSH2 0x197A JUMP JUMPDEST PUSH2 0x177 PUSH2 0xC20 JUMP JUMPDEST PUSH2 0x14F PUSH2 0xC2F JUMP JUMPDEST PUSH2 0x1CC PUSH2 0xF45 JUMP JUMPDEST PUSH2 0x14F PUSH2 0x28A CALLDATASIZE PUSH1 0x4 PUSH2 0x15DF JUMP JUMPDEST PUSH2 0xF4B JUMP JUMPDEST PUSH2 0x297 PUSH2 0x1139 JUMP JUMPDEST PUSH1 0x40 MLOAD PUSH2 0x166 SWAP2 SWAP1 PUSH2 0x19A6 JUMP JUMPDEST PUSH2 0x14F PUSH2 0x2B2 CALLDATASIZE PUSH1 0x4 PUSH2 0x1532 JUMP JUMPDEST PUSH2 0x1142 JUMP JUMPDEST PUSH2 0x2BF PUSH2 0x1202 JUMP JUMPDEST PUSH1 0x1 PUSH1 0x1 PUSH1 0xA0 SHL SUB AND PUSH2 0x2D0 PUSH2 0xAB7 JUMP JUMPDEST PUSH1 0x1 PUSH1 0x1 PUSH1 0xA0 SHL SUB AND EQ PUSH2 0x2FF JUMPI PUSH1 0x40 MLOAD PUSH3 0x461BCD PUSH1 0xE5 SHL DUP2 MSTORE PUSH1 0x4 ADD PUSH2 0x2F6 SWAP1 PUSH2 0x1C6E JUMP JUMPDEST PUSH1 0x40 MLOAD DUP1 SWAP2 SUB SWAP1 REVERT JUMPDEST PUSH1 0x2 PUSH1 0x6 SLOAD PUSH1 0xFF AND PUSH1 0x4 DUP2 GT ISZERO PUSH2 0x312 JUMPI INVALID JUMPDEST EQ PUSH2 0x32F JUMPI PUSH1 0x40 MLOAD PUSH3 0x461BCD PUSH1 0xE5 SHL DUP2 MSTORE PUSH1 0x4 ADD PUSH2 0x2F6 SWAP1 PUSH2 0x1CC7 JUMP JUMPDEST PUSH1 0x4 DUP2 GT ISZERO PUSH2 0x350 JUMPI PUSH1 0x40 MLOAD PUSH3 0x461BCD PUSH1 0xE5 SHL DUP2 MSTORE PUSH1 0x4 ADD PUSH2 0x2F6 SWAP1 PUSH2 0x1B26 JUMP JUMPDEST PUSH1 0x0 JUMPDEST DUP3 DUP2 LT ISZERO PUSH2 0x3A3 JUMPI DUP2 PUSH1 0x7 PUSH1 0x0 DUP7 DUP7 DUP6 DUP2 DUP2 LT PUSH2 0x36C JUMPI INVALID JUMPDEST SWAP1 POP PUSH1 0x20 MUL ADD PUSH1 0x20 DUP2 ADD SWAP1 PUSH2 0x381 SWAP2 SWAP1 PUSH2 0x1532 JUMP JUMPDEST PUSH1 0x1 PUSH1 0x1 PUSH1 0xA0 SHL SUB AND DUP2 MSTORE PUSH1 0x20 DUP2 ADD SWAP2 SWAP1 SWAP2 MSTORE PUSH1 0x40 ADD PUSH1 0x0 KECCAK256 SSTORE PUSH1 0x1 ADD PUSH2 0x353 JUMP JUMPDEST POP PUSH32 0x6DE9DB9918823E10B6AF7AE4803F0D3D676806F2ECC2DA6E9AECD9F0C2216FF7 DUP4 DUP4 DUP4 PUSH1 0x40 MLOAD PUSH2 0x3D7 SWAP4 SWAP3 SWAP2 SWAP1 PUSH2 0x18AD JUMP JUMPDEST PUSH1 0x40 MLOAD DUP1 SWAP2 SUB SWAP1 LOG1 POP POP POP JUMP JUMPDEST PUSH1 0x3 SLOAD PUSH1 0x1 PUSH1 0xA0 SHL SWAP1 DIV PUSH1 0xFF AND DUP2 JUMP JUMPDEST PUSH1 0x1 SLOAD PUSH1 0x1 PUSH1 0x1 PUSH1 0xA0 SHL SUB AND DUP2 JUMP JUMPDEST PUSH1 0x0 PUSH2 0x40D PUSH2 0x1202 JUMP JUMPDEST PUSH1 0x1 PUSH1 0x1 PUSH1 0xA0 SHL SUB DUP2 AND PUSH1 0x0 SWAP1 DUP2 MSTORE PUSH1 0x7 PUSH1 0x20 MSTORE PUSH1 0x40 SWAP1 KECCAK256 PUSH1 0x2 ADD SLOAD SWAP1 SWAP2 POP PUSH1 0xFF AND ISZERO PUSH2 0x44C JUMPI PUSH1 0x40 MLOAD PUSH3 0x461BCD PUSH1 0xE5 SHL DUP2 MSTORE PUSH1 0x4 ADD PUSH2 0x2F6 SWAP1 PUSH2 0x1C21 JUMP JUMPDEST PUSH1 0x0 PUSH1 0x6 SLOAD PUSH1 0xFF AND PUSH1 0x4 DUP2 GT ISZERO PUSH2 0x45F JUMPI INVALID JUMPDEST EQ PUSH2 0x47C JUMPI PUSH1 0x40 MLOAD PUSH3 0x461BCD PUSH1 0xE5 SHL DUP2 MSTORE PUSH1 0x4 ADD PUSH2 0x2F6 SWAP1 PUSH2 0x19ED JUMP JUMPDEST PUSH1 0x3 SLOAD PUSH1 0x40 MLOAD PUSH4 0x4C3F70AB PUSH1 0xE1 SHL DUP2 MSTORE PUSH1 0x0 SWAP2 DUP3 SWAP2 PUSH1 0x1 PUSH1 0x1 PUSH1 0xA0 SHL SUB SWAP1 SWAP2 AND SWAP1 PUSH4 0x987EE156 SWAP1 PUSH2 0x4B1 SWAP1 DUP7 SWAP1 PUSH1 0x4 ADD PUSH2 0x17B8 JUMP JUMPDEST PUSH1 0xC0 PUSH1 0x40 MLOAD DUP1 DUP4 SUB DUP2 DUP7 DUP1 EXTCODESIZE ISZERO DUP1 ISZERO PUSH2 0x4C9 JUMPI PUSH1 0x0 DUP1 REVERT JUMPDEST POP GAS STATICCALL ISZERO DUP1 ISZERO PUSH2 0x4DD JUMPI RETURNDATASIZE PUSH1 0x0 DUP1 RETURNDATACOPY RETURNDATASIZE PUSH1 0x0 REVERT JUMPDEST POP POP POP POP PUSH1 0x40 MLOAD RETURNDATASIZE PUSH1 0x1F NOT PUSH1 0x1F DUP3 ADD AND DUP3 ADD DUP1 PUSH1 0x40 MSTORE POP DUP2 ADD SWAP1 PUSH2 0x501 SWAP2 SWAP1 PUSH2 0x170E JUMP JUMPDEST SWAP3 SWAP7 POP SWAP2 SWAP5 POP DUP5 SWAP4 POP PUSH2 0x52A SWAP3 POP POP POP JUMPI PUSH1 0x40 MLOAD PUSH3 0x461BCD PUSH1 0xE5 SHL DUP2 MSTORE PUSH1 0x4 ADD PUSH2 0x2F6 SWAP1 PUSH2 0x1CA3 JUMP JUMPDEST PUSH1 0x1 PUSH1 0x1 PUSH1 0xA0 SHL SUB DUP4 AND PUSH1 0x0 SWAP1 DUP2 MSTORE PUSH1 0x7 PUSH1 0x20 MSTORE PUSH1 0x40 SWAP1 DUP2 SWAP1 KECCAK256 PUSH1 0x1 DUP1 DUP3 ADD DUP6 SWAP1 SSTORE PUSH1 0x2 DUP3 ADD DUP1 SLOAD PUSH1 0xFF NOT AND SWAP1 SWAP2 OR SWAP1 SSTORE SWAP1 MLOAD PUSH32 0xDEC4C13F1DAA034CA2A06B9CEE6C16ACCC0BD81AD27AFACC15604C4F5CEA09BB SWAP1 PUSH2 0x58C SWAP1 DUP7 SWAP1 DUP7 SWAP1 PUSH2 0x1873 JUMP JUMPDEST PUSH1 0x40 MLOAD DUP1 SWAP2 SUB SWAP1 LOG1 POP POP POP POP JUMP JUMPDEST PUSH1 0x7 PUSH1 0x20 MSTORE PUSH1 0x0 SWAP1 DUP2 MSTORE PUSH1 0x40 SWAP1 KECCAK256 DUP1 SLOAD PUSH1 0x1 DUP3 ADD SLOAD PUSH1 0x2 SWAP1 SWAP3 ADD SLOAD SWAP1 SWAP2 SWAP1 PUSH1 0xFF DUP1 DUP3 AND SWAP2 PUSH2 0x100 SWAP1 DIV AND DUP5 JUMP JUMPDEST PUSH1 0x5 DUP1 SLOAD PUSH1 0x40 DUP1 MLOAD PUSH1 0x20 PUSH1 0x2 PUSH1 0x1 DUP6 AND ISZERO PUSH2 0x100 MUL PUSH1 0x0 NOT ADD SWAP1 SWAP5 AND SWAP4 SWAP1 SWAP4 DIV PUSH1 0x1F DUP2 ADD DUP5 SWAP1 DIV DUP5 MUL DUP3 ADD DUP5 ADD SWAP1 SWAP3 MSTORE DUP2 DUP2 MSTORE SWAP3 SWAP2 DUP4 ADD DUP3 DUP3 DUP1 ISZERO PUSH2 0x64D JUMPI DUP1 PUSH1 0x1F LT PUSH2 0x622 JUMPI PUSH2 0x100 DUP1 DUP4 SLOAD DIV MUL DUP4 MSTORE SWAP2 PUSH1 0x20 ADD SWAP2 PUSH2 0x64D JUMP JUMPDEST DUP3 ADD SWAP2 SWAP1 PUSH1 0x0 MSTORE PUSH1 0x20 PUSH1 0x0 KECCAK256 SWAP1 JUMPDEST DUP2 SLOAD DUP2 MSTORE SWAP1 PUSH1 0x1 ADD SWAP1 PUSH1 0x20 ADD DUP1 DUP4 GT PUSH2 0x630 JUMPI DUP3 SWAP1 SUB PUSH1 0x1F AND DUP3 ADD SWAP2 JUMPDEST POP POP POP POP POP DUP2 JUMP JUMPDEST PUSH1 0x3 DUP2 JUMP JUMPDEST PUSH2 0x662 PUSH2 0x1202 JUMP JUMPDEST PUSH1 0x1 PUSH1 0x1 PUSH1 0xA0 SHL SUB AND PUSH2 0x673 PUSH2 0xAB7 JUMP JUMPDEST PUSH1 0x1 PUSH1 0x1 PUSH1 0xA0 SHL SUB AND EQ PUSH2 0x699 JUMPI PUSH1 0x40 MLOAD PUSH3 0x461BCD PUSH1 0xE5 SHL DUP2 MSTORE PUSH1 0x4 ADD PUSH2 0x2F6 SWAP1 PUSH2 0x1C6E JUMP JUMPDEST PUSH1 0x2 PUSH1 0x6 SLOAD PUSH1 0xFF AND PUSH1 0x4 DUP2 GT ISZERO PUSH2 0x6AC JUMPI INVALID JUMPDEST EQ PUSH2 0x6C9 JUMPI PUSH1 0x40 MLOAD PUSH3 0x461BCD PUSH1 0xE5 SHL DUP2 MSTORE PUSH1 0x4 ADD PUSH2 0x2F6 SWAP1 PUSH2 0x1CC7 JUMP JUMPDEST PUSH1 0x0 DUP5 GT DUP1 ISZERO PUSH2 0x6DA JUMPI POP PUSH1 0x3 DUP5 GT ISZERO JUMPDEST PUSH2 0x6F6 JUMPI PUSH1 0x40 MLOAD PUSH3 0x461BCD PUSH1 0xE5 SHL DUP2 MSTORE PUSH1 0x4 ADD PUSH2 0x2F6 SWAP1 PUSH2 0x1B6A JUMP JUMPDEST PUSH1 0xE DUP2 PUSH1 0xFF AND GT PUSH2 0x719 JUMPI PUSH1 0x40 MLOAD PUSH3 0x461BCD PUSH1 0xE5 SHL DUP2 MSTORE PUSH1 0x4 ADD PUSH2 0x2F6 SWAP1 PUSH2 0x1BDB JUMP JUMPDEST PUSH1 0x4 DUP5 SWAP1 SSTORE PUSH2 0x72A PUSH1 0x5 DUP5 DUP5 PUSH2 0x140B JUMP JUMPDEST POP PUSH1 0x3 DUP1 SLOAD PUSH1 0xFF PUSH1 0xA0 SHL NOT AND PUSH1 0x1 PUSH1 0xA0 SHL PUSH1 0xFF DUP5 AND MUL OR SWAP1 SSTORE PUSH1 0x40 MLOAD PUSH32 0x888C23F0B9FFE0F2878E3B4EAF2414ED7EA3172647E4773CBBEF57966C8FD761 SWAP1 PUSH2 0x58C SWAP1 DUP7 SWAP1 PUSH2 0x1D74 JUMP JUMPDEST PUSH2 0x77B PUSH2 0x1202 JUMP JUMPDEST PUSH1 0x1 PUSH1 0x1 PUSH1 0xA0 SHL SUB AND PUSH2 0x78C PUSH2 0xAB7 JUMP JUMPDEST PUSH1 0x1 PUSH1 0x1 PUSH1 0xA0 SHL SUB AND EQ PUSH2 0x7B2 JUMPI PUSH1 0x40 MLOAD PUSH3 0x461BCD PUSH1 0xE5 SHL DUP2 MSTORE PUSH1 0x4 ADD PUSH2 0x2F6 SWAP1 PUSH2 0x1C6E JUMP JUMPDEST PUSH1 0x4 PUSH1 0x6 SLOAD PUSH1 0xFF AND PUSH1 0x4 DUP2 GT ISZERO PUSH2 0x7C5 JUMPI INVALID JUMPDEST EQ PUSH2 0x7E2 JUMPI PUSH1 0x40 MLOAD PUSH3 0x461BCD PUSH1 0xE5 SHL DUP2 MSTORE PUSH1 0x4 ADD PUSH2 0x2F6 SWAP1 PUSH2 0x1BFF JUMP JUMPDEST PUSH2 0x800 PUSH2 0x7ED PUSH2 0x1202 JUMP JUMPDEST PUSH1 0x2 SLOAD PUSH1 0x1 PUSH1 0x1 PUSH1 0xA0 SHL SUB AND SWAP1 DUP4 PUSH2 0x1206 JUMP JUMPDEST POP JUMP JUMPDEST PUSH1 0x3 SLOAD PUSH1 0x1 PUSH1 0x1 PUSH1 0xA0 SHL SUB AND DUP2 JUMP JUMPDEST PUSH2 0x81A PUSH2 0x1202 JUMP JUMPDEST PUSH1 0x1 PUSH1 0x1 PUSH1 0xA0 SHL SUB AND PUSH2 0x82B PUSH2 0xAB7 JUMP JUMPDEST PUSH1 0x1 PUSH1 0x1 PUSH1 0xA0 SHL SUB AND EQ PUSH2 0x851 JUMPI PUSH1 0x40 MLOAD PUSH3 0x461BCD PUSH1 0xE5 SHL DUP2 MSTORE PUSH1 0x4 ADD PUSH2 0x2F6 SWAP1 PUSH2 0x1C6E JUMP JUMPDEST PUSH1 0x0 DUP1 SLOAD PUSH1 0x40 MLOAD PUSH1 0x1 PUSH1 0x1 PUSH1 0xA0 SHL SUB SWAP1 SWAP2 AND SWAP1 PUSH32 0x8BE0079C531659141344CD1FD0A4F28419497F9722A3DAAFE3B4186F6B6457E0 SWAP1 DUP4 SWAP1 LOG3 PUSH1 0x0 DUP1 SLOAD PUSH1 0x1 PUSH1 0x1 PUSH1 0xA0 SHL SUB NOT AND SWAP1 SSTORE JUMP JUMPDEST PUSH2 0x8A3 PUSH2 0x1202 JUMP JUMPDEST PUSH1 0x1 PUSH1 0x1 PUSH1 0xA0 SHL SUB AND PUSH2 0x8B4 PUSH2 0xAB7 JUMP JUMPDEST PUSH1 0x1 PUSH1 0x1 PUSH1 0xA0 SHL SUB AND EQ PUSH2 0x8DA JUMPI PUSH1 0x40 MLOAD PUSH3 0x461BCD PUSH1 0xE5 SHL DUP2 MSTORE PUSH1 0x4 ADD PUSH2 0x2F6 SWAP1 PUSH2 0x1C6E JUMP JUMPDEST PUSH1 0x2 PUSH1 0x6 SLOAD PUSH1 0xFF AND PUSH1 0x4 DUP2 GT ISZERO PUSH2 0x8ED JUMPI INVALID JUMPDEST EQ PUSH2 0x90A JUMPI PUSH1 0x40 MLOAD PUSH3 0x461BCD PUSH1 0xE5 SHL DUP2 MSTORE PUSH1 0x4 ADD PUSH2 0x2F6 SWAP1 PUSH2 0x1CC7 JUMP JUMPDEST PUSH1 0x0 DUP5 DUP2 MSTORE PUSH1 0x8 PUSH1 0x20 MSTORE PUSH1 0x40 SWAP1 KECCAK256 PUSH2 0x924 SWAP1 DUP5 PUSH1 0x5 PUSH2 0x1489 JUMP JUMPDEST POP PUSH1 0x0 DUP5 DUP2 MSTORE PUSH1 0x8 PUSH1 0x20 MSTORE PUSH1 0x40 SWAP1 KECCAK256 PUSH2 0x944 SWAP1 PUSH1 0x5 SWAP1 DUP2 ADD SWAP1 DUP5 SWAP1 PUSH2 0x1489 JUMP JUMPDEST POP PUSH1 0x0 DUP5 DUP2 MSTORE PUSH1 0x8 PUSH1 0x20 MSTORE PUSH1 0x40 SWAP1 KECCAK256 PUSH2 0x962 SWAP1 PUSH1 0xA ADD DUP3 PUSH1 0x5 PUSH2 0x1489 JUMP JUMPDEST POP PUSH32 0x975E819E964A851CC1D16E54BB4A815E8F5AF37C7B5863D23C29614B5A9973B0 DUP5 PUSH1 0x40 MLOAD PUSH2 0x58C SWAP2 SWAP1 PUSH2 0x1D74 JUMP JUMPDEST PUSH1 0x40 DUP1 MLOAD PUSH1 0x3 DUP1 DUP3 MSTORE PUSH1 0x80 DUP3 ADD SWAP1 SWAP3 MSTORE PUSH1 0x60 SWAP2 DUP3 SWAP2 SWAP1 DUP2 PUSH1 0x20 ADD JUMPDEST PUSH2 0x9B5 PUSH2 0x14B6 JUMP JUMPDEST DUP2 MSTORE PUSH1 0x20 ADD SWAP1 PUSH1 0x1 SWAP1 SUB SWAP1 DUP2 PUSH2 0x9AD JUMPI SWAP1 POP POP SWAP1 POP PUSH1 0x0 JUMPDEST PUSH1 0x3 DUP2 LT ISZERO PUSH2 0xAB1 JUMPI PUSH1 0x1 DUP2 ADD PUSH1 0x0 SWAP1 DUP2 MSTORE PUSH1 0x8 PUSH1 0x20 MSTORE PUSH1 0x40 SWAP1 DUP2 SWAP1 KECCAK256 DUP2 MLOAD PUSH2 0x100 DUP2 ADD SWAP1 SWAP3 MSTORE DUP2 PUSH1 0x60 DUP2 ADD DUP3 PUSH1 0x5 DUP3 DUP3 DUP3 PUSH1 0x20 MUL DUP3 ADD SWAP2 JUMPDEST DUP2 SLOAD DUP2 MSTORE PUSH1 0x20 ADD SWAP1 PUSH1 0x1 ADD SWAP1 DUP1 DUP4 GT PUSH2 0xA06 JUMPI POP POP POP SWAP2 DUP4 MSTORE POP POP PUSH1 0x40 DUP1 MLOAD PUSH1 0xA0 DUP2 ADD SWAP2 DUP3 SWAP1 MSTORE PUSH1 0x20 SWAP1 SWAP3 ADD SWAP2 SWAP1 PUSH1 0x5 DUP5 DUP2 ADD SWAP2 DUP3 DUP5 JUMPDEST DUP2 SLOAD DUP2 MSTORE PUSH1 0x20 ADD SWAP1 PUSH1 0x1 ADD SWAP1 DUP1 DUP4 GT PUSH2 0xA3D JUMPI POP POP POP SWAP2 DUP4 MSTORE POP POP PUSH1 0x40 DUP1 MLOAD PUSH1 0xA0 DUP2 ADD SWAP2 DUP3 SWAP1 MSTORE PUSH1 0x20 SWAP1 SWAP3 ADD SWAP2 SWAP1 PUSH1 0xA DUP5 ADD SWAP1 PUSH1 0x5 SWAP1 DUP3 DUP5 JUMPDEST DUP2 SLOAD DUP2 MSTORE PUSH1 0x20 ADD SWAP1 PUSH1 0x1 ADD SWAP1 DUP1 DUP4 GT PUSH2 0xA76 JUMPI POP POP POP POP POP DUP2 MSTORE POP POP DUP3 DUP3 DUP2 MLOAD DUP2 LT PUSH2 0xA9E JUMPI INVALID JUMPDEST PUSH1 0x20 SWAP1 DUP2 MUL SWAP2 SWAP1 SWAP2 ADD ADD MSTORE PUSH1 0x1 ADD PUSH2 0x9CD JUMP JUMPDEST POP SWAP1 POP SWAP1 JUMP JUMPDEST PUSH1 0x0 SLOAD PUSH1 0x1 PUSH1 0x1 PUSH1 0xA0 SHL SUB AND SWAP1 JUMP JUMPDEST PUSH1 0x1 PUSH1 0x1 PUSH1 0xA0 SHL SUB DUP2 AND PUSH1 0x0 SWAP1 DUP2 MSTORE PUSH1 0x7 PUSH1 0x20 MSTORE PUSH1 0x40 DUP2 KECCAK256 PUSH1 0x2 ADD SLOAD DUP2 SWAP1 DUP2 SWAP1 DUP2 SWAP1 DUP2 SWAP1 DUP2 SWAP1 PUSH1 0xFF AND PUSH1 0x3 PUSH1 0x6 SLOAD PUSH1 0xFF AND PUSH1 0x4 DUP2 GT ISZERO PUSH2 0xB02 JUMPI INVALID JUMPDEST EQ ISZERO DUP1 ISZERO PUSH2 0xB21 JUMPI POP PUSH1 0x4 PUSH1 0x6 SLOAD PUSH1 0xFF AND PUSH1 0x4 DUP2 GT ISZERO PUSH2 0xB1E JUMPI INVALID JUMPDEST EQ ISZERO JUMPDEST ISZERO PUSH2 0xB3D JUMPI SWAP6 POP PUSH1 0x0 SWAP5 POP DUP5 SWAP4 POP DUP4 SWAP3 POP DUP3 SWAP2 POP DUP2 SWAP1 POP PUSH2 0xC17 JUMP JUMPDEST DUP1 PUSH2 0xB59 JUMPI SWAP6 POP PUSH1 0x0 SWAP5 POP DUP5 SWAP4 POP DUP4 SWAP3 POP DUP3 SWAP2 POP DUP2 SWAP1 POP PUSH2 0xC17 JUMP JUMPDEST PUSH1 0x1 PUSH1 0x1 PUSH1 0xA0 SHL SUB DUP9 AND PUSH1 0x0 SWAP1 DUP2 MSTORE PUSH1 0x7 PUSH1 0x20 SWAP1 DUP2 MSTORE PUSH1 0x40 DUP1 DUP4 KECCAK256 DUP1 SLOAD PUSH1 0x1 SWAP1 SWAP2 ADD SLOAD DUP1 DUP6 MSTORE PUSH1 0x8 SWAP1 SWAP4 MSTORE SWAP1 DUP4 KECCAK256 SWAP1 SWAP3 SWAP1 PUSH1 0x5 SWAP1 DUP2 ADD SWAP1 DUP5 SWAP1 DUP2 LT PUSH2 0xB9A JUMPI INVALID JUMPDEST ADD SLOAD PUSH1 0x0 DUP4 DUP2 MSTORE PUSH1 0x8 PUSH1 0x20 MSTORE PUSH1 0x40 DUP2 KECCAK256 SWAP2 SWAP3 POP SWAP1 PUSH1 0xA ADD DUP5 PUSH1 0x5 DUP2 LT PUSH2 0xBBC JUMPI INVALID JUMPDEST ADD SLOAD PUSH1 0x1 PUSH1 0x1 PUSH1 0xA0 SHL SUB DUP14 AND PUSH1 0x0 SWAP1 DUP2 MSTORE PUSH1 0x7 PUSH1 0x20 MSTORE PUSH1 0x40 DUP2 KECCAK256 PUSH1 0x2 ADD SLOAD PUSH1 0x4 SLOAD SWAP3 SWAP4 POP PUSH2 0x100 SWAP1 DIV PUSH1 0xFF AND SWAP2 DUP6 EQ DUP1 ISZERO PUSH2 0xBF7 JUMPI POP PUSH1 0x0 DUP7 GT JUMPDEST ISZERO PUSH2 0xC00 JUMPI POP PUSH1 0x1 JUMPDEST SWAP6 SWAP12 POP SWAP10 POP SWAP3 SWAP8 POP SWAP6 POP SWAP1 SWAP4 POP SWAP1 SWAP2 POP PUSH2 0xC17 SWAP1 POP JUMP JUMPDEST SWAP2 SWAP4 SWAP6 POP SWAP2 SWAP4 SWAP6 JUMP JUMPDEST PUSH1 0x2 SLOAD PUSH1 0x1 PUSH1 0x1 PUSH1 0xA0 SHL SUB AND DUP2 JUMP JUMPDEST PUSH1 0x0 PUSH2 0xC39 PUSH2 0x1202 JUMP JUMPDEST PUSH1 0x1 PUSH1 0x1 PUSH1 0xA0 SHL SUB DUP2 AND PUSH1 0x0 SWAP1 DUP2 MSTORE PUSH1 0x7 PUSH1 0x20 MSTORE PUSH1 0x40 SWAP1 KECCAK256 PUSH1 0x2 ADD SLOAD SWAP1 SWAP2 POP PUSH1 0xFF AND PUSH2 0xC77 JUMPI PUSH1 0x40 MLOAD PUSH3 0x461BCD PUSH1 0xE5 SHL DUP2 MSTORE PUSH1 0x4 ADD PUSH2 0x2F6 SWAP1 PUSH2 0x1AAA JUMP JUMPDEST PUSH1 0x1 PUSH1 0x1 PUSH1 0xA0 SHL SUB DUP2 AND PUSH1 0x0 SWAP1 DUP2 MSTORE PUSH1 0x7 PUSH1 0x20 MSTORE PUSH1 0x40 SWAP1 KECCAK256 PUSH1 0x2 ADD SLOAD PUSH2 0x100 SWAP1 DIV PUSH1 0xFF AND ISZERO PUSH2 0xCB8 JUMPI PUSH1 0x40 MLOAD PUSH3 0x461BCD PUSH1 0xE5 SHL DUP2 MSTORE PUSH1 0x4 ADD PUSH2 0x2F6 SWAP1 PUSH2 0x1C49 JUMP JUMPDEST PUSH1 0x3 PUSH1 0x6 SLOAD PUSH1 0xFF AND PUSH1 0x4 DUP2 GT ISZERO PUSH2 0xCCB JUMPI INVALID JUMPDEST EQ PUSH2 0xCE8 JUMPI PUSH1 0x40 MLOAD PUSH3 0x461BCD PUSH1 0xE5 SHL DUP2 MSTORE PUSH1 0x4 ADD PUSH2 0x2F6 SWAP1 PUSH2 0x1CEB JUMP JUMPDEST PUSH1 0x1 PUSH1 0x1 PUSH1 0xA0 SHL SUB DUP2 AND PUSH1 0x0 SWAP1 DUP2 MSTORE PUSH1 0x7 PUSH1 0x20 MSTORE PUSH1 0x40 SWAP1 KECCAK256 PUSH1 0x2 DUP2 ADD DUP1 SLOAD PUSH2 0xFF00 NOT AND PUSH2 0x100 OR SWAP1 SSTORE DUP1 SLOAD PUSH1 0x1 SWAP2 SWAP1 SWAP2 ADD SLOAD PUSH2 0xD22 PUSH2 0x14B6 JUMP JUMPDEST PUSH1 0x0 DUP3 DUP2 MSTORE PUSH1 0x8 PUSH1 0x20 MSTORE PUSH1 0x40 SWAP1 DUP2 SWAP1 KECCAK256 DUP2 MLOAD PUSH2 0x100 DUP2 ADD SWAP1 SWAP3 MSTORE DUP2 PUSH1 0x60 DUP2 ADD DUP3 PUSH1 0x5 DUP3 DUP3 DUP3 PUSH1 0x20 MUL DUP3 ADD SWAP2 JUMPDEST DUP2 SLOAD DUP2 MSTORE PUSH1 0x20 ADD SWAP1 PUSH1 0x1 ADD SWAP1 DUP1 DUP4 GT PUSH2 0xD4E JUMPI POP POP POP SWAP2 DUP4 MSTORE POP POP PUSH1 0x40 DUP1 MLOAD PUSH1 0xA0 DUP2 ADD SWAP2 DUP3 SWAP1 MSTORE PUSH1 0x20 SWAP1 SWAP3 ADD SWAP2 SWAP1 PUSH1 0x5 DUP5 DUP2 ADD SWAP2 DUP3 DUP5 JUMPDEST DUP2 SLOAD DUP2 MSTORE PUSH1 0x20 ADD SWAP1 PUSH1 0x1 ADD SWAP1 DUP1 DUP4 GT PUSH2 0xD85 JUMPI POP POP POP SWAP2 DUP4 MSTORE POP POP PUSH1 0x40 DUP1 MLOAD PUSH1 0xA0 DUP2 ADD SWAP2 DUP3 SWAP1 MSTORE PUSH1 0x20 SWAP1 SWAP3 ADD SWAP2 SWAP1 PUSH1 0xA DUP5 ADD SWAP1 PUSH1 0x5 SWAP1 DUP3 DUP5 JUMPDEST DUP2 SLOAD DUP2 MSTORE PUSH1 0x20 ADD SWAP1 PUSH1 0x1 ADD SWAP1 DUP1 DUP4 GT PUSH2 0xDBE JUMPI POP POP POP POP POP DUP2 MSTORE POP POP SWAP1 POP PUSH1 0x0 DUP4 GT ISZERO PUSH2 0xEB1 JUMPI PUSH2 0xE11 DUP5 DUP3 PUSH1 0x20 ADD MLOAD DUP6 PUSH1 0x5 DUP2 LT PUSH2 0xDF9 JUMPI INVALID JUMPDEST PUSH1 0x20 MUL ADD MLOAD PUSH1 0x2 SLOAD PUSH1 0x1 PUSH1 0x1 PUSH1 0xA0 SHL SUB AND SWAP2 SWAP1 PUSH2 0x1206 JUMP JUMPDEST PUSH1 0x4 SLOAD DUP3 EQ ISZERO PUSH2 0xEB1 JUMPI PUSH1 0x1 SLOAD PUSH1 0x3 SLOAD PUSH1 0x40 MLOAD PUSH4 0x7C2E5AD PUSH1 0xE1 SHL DUP2 MSTORE PUSH1 0x1 PUSH1 0x1 PUSH1 0xA0 SHL SUB SWAP1 SWAP3 AND SWAP2 PUSH4 0xF85CB5A SWAP2 PUSH2 0xE5D SWAP2 DUP9 SWAP2 PUSH1 0x5 SWAP2 PUSH1 0x1 PUSH1 0xA0 SHL SWAP1 SWAP2 DIV PUSH1 0xFF AND SWAP1 PUSH1 0x4 ADD PUSH2 0x17CC JUMP JUMPDEST PUSH1 0x20 PUSH1 0x40 MLOAD DUP1 DUP4 SUB DUP2 PUSH1 0x0 DUP8 DUP1 EXTCODESIZE ISZERO DUP1 ISZERO PUSH2 0xE77 JUMPI PUSH1 0x0 DUP1 REVERT JUMPDEST POP GAS CALL ISZERO DUP1 ISZERO PUSH2 0xE8B JUMPI RETURNDATASIZE PUSH1 0x0 DUP1 RETURNDATACOPY RETURNDATASIZE PUSH1 0x0 REVERT JUMPDEST POP POP POP POP PUSH1 0x40 MLOAD RETURNDATASIZE PUSH1 0x1F NOT PUSH1 0x1F DUP3 ADD AND DUP3 ADD DUP1 PUSH1 0x40 MSTORE POP DUP2 ADD SWAP1 PUSH2 0xEAF SWAP2 SWAP1 PUSH2 0x1616 JUMP JUMPDEST POP JUMPDEST PUSH1 0x3 SLOAD PUSH1 0x40 DUP3 ADD MLOAD PUSH1 0x1 PUSH1 0x1 PUSH1 0xA0 SHL SUB SWAP1 SWAP2 AND SWAP1 PUSH4 0x1BDC17F6 SWAP1 DUP7 SWAP1 DUP7 PUSH1 0x5 DUP2 LT PUSH2 0xED8 JUMPI INVALID JUMPDEST PUSH1 0x20 MUL ADD MLOAD DUP5 MLOAD DUP8 PUSH1 0x5 DUP2 LT PUSH2 0xEEA JUMPI INVALID JUMPDEST PUSH1 0x20 MUL ADD MLOAD PUSH1 0x40 MLOAD DUP5 PUSH4 0xFFFFFFFF AND PUSH1 0xE0 SHL DUP2 MSTORE PUSH1 0x4 ADD PUSH2 0xF0D SWAP4 SWAP3 SWAP2 SWAP1 PUSH2 0x188C JUMP JUMPDEST PUSH1 0x0 PUSH1 0x40 MLOAD DUP1 DUP4 SUB DUP2 PUSH1 0x0 DUP8 DUP1 EXTCODESIZE ISZERO DUP1 ISZERO PUSH2 0xF27 JUMPI PUSH1 0x0 DUP1 REVERT JUMPDEST POP GAS CALL ISZERO DUP1 ISZERO PUSH2 0xF3B JUMPI RETURNDATASIZE PUSH1 0x0 DUP1 RETURNDATACOPY RETURNDATASIZE PUSH1 0x0 REVERT JUMPDEST POP POP POP POP POP POP POP POP JUMP JUMPDEST PUSH1 0x4 SLOAD DUP2 JUMP JUMPDEST PUSH2 0xF53 PUSH2 0x1202 JUMP JUMPDEST PUSH1 0x1 PUSH1 0x1 PUSH1 0xA0 SHL SUB AND PUSH2 0xF64 PUSH2 0xAB7 JUMP JUMPDEST PUSH1 0x1 PUSH1 0x1 PUSH1 0xA0 SHL SUB AND EQ PUSH2 0xF8A JUMPI PUSH1 0x40 MLOAD PUSH3 0x461BCD PUSH1 0xE5 SHL DUP2 MSTORE PUSH1 0x4 ADD PUSH2 0x2F6 SWAP1 PUSH2 0x1C6E JUMP JUMPDEST PUSH1 0x0 DUP2 PUSH1 0x4 DUP2 GT ISZERO PUSH2 0xF98 JUMPI INVALID JUMPDEST EQ ISZERO PUSH2 0xFB6 JUMPI PUSH1 0x40 MLOAD PUSH3 0x461BCD PUSH1 0xE5 SHL DUP2 MSTORE PUSH1 0x4 ADD PUSH2 0x2F6 SWAP1 PUSH2 0x1D4B JUMP JUMPDEST PUSH1 0x1 DUP2 PUSH1 0x4 DUP2 GT ISZERO PUSH2 0xFC4 JUMPI INVALID JUMPDEST EQ ISZERO PUSH2 0xFFF JUMPI PUSH1 0x0 PUSH1 0x6 SLOAD PUSH1 0xFF AND PUSH1 0x4 DUP2 GT ISZERO PUSH2 0xFDD JUMPI INVALID JUMPDEST EQ PUSH2 0xFFA JUMPI PUSH1 0x40 MLOAD PUSH3 0x461BCD PUSH1 0xE5 SHL DUP2 MSTORE PUSH1 0x4 ADD PUSH2 0x2F6 SWAP1 PUSH2 0x19ED JUMP JUMPDEST PUSH2 0x10D9 JUMP JUMPDEST PUSH1 0x2 DUP2 PUSH1 0x4 DUP2 GT ISZERO PUSH2 0x100D JUMPI INVALID JUMPDEST EQ ISZERO PUSH2 0x1043 JUMPI PUSH1 0x1 PUSH1 0x6 SLOAD PUSH1 0xFF AND PUSH1 0x4 DUP2 GT ISZERO PUSH2 0x1026 JUMPI INVALID JUMPDEST EQ PUSH2 0xFFA JUMPI PUSH1 0x40 MLOAD PUSH3 0x461BCD PUSH1 0xE5 SHL DUP2 MSTORE PUSH1 0x4 ADD PUSH2 0x2F6 SWAP1 PUSH2 0x1B48 JUMP JUMPDEST PUSH1 0x3 DUP2 PUSH1 0x4 DUP2 GT ISZERO PUSH2 0x1051 JUMPI INVALID JUMPDEST EQ ISZERO PUSH2 0x10A9 JUMPI PUSH1 0x0 PUSH1 0x4 SLOAD GT PUSH2 0x1079 JUMPI PUSH1 0x40 MLOAD PUSH3 0x461BCD PUSH1 0xE5 SHL DUP2 MSTORE PUSH1 0x4 ADD PUSH2 0x2F6 SWAP1 PUSH2 0x1AD2 JUMP JUMPDEST PUSH1 0x2 PUSH1 0x6 SLOAD PUSH1 0xFF AND PUSH1 0x4 DUP2 GT ISZERO PUSH2 0x108C JUMPI INVALID JUMPDEST EQ PUSH2 0xFFA JUMPI PUSH1 0x40 MLOAD PUSH3 0x461BCD PUSH1 0xE5 SHL DUP2 MSTORE PUSH1 0x4 ADD PUSH2 0x2F6 SWAP1 PUSH2 0x1CC7 JUMP JUMPDEST PUSH1 0x3 PUSH1 0x6 SLOAD PUSH1 0xFF AND PUSH1 0x4 DUP2 GT ISZERO PUSH2 0x10BC JUMPI INVALID JUMPDEST EQ PUSH2 0x10D9 JUMPI PUSH1 0x40 MLOAD PUSH3 0x461BCD PUSH1 0xE5 SHL DUP2 MSTORE PUSH1 0x4 ADD PUSH2 0x2F6 SWAP1 PUSH2 0x1B00 JUMP JUMPDEST PUSH1 0x6 DUP1 SLOAD DUP3 SWAP2 SWAP1 PUSH1 0xFF NOT AND PUSH1 0x1 DUP4 PUSH1 0x4 DUP2 GT ISZERO PUSH2 0x10F2 JUMPI INVALID JUMPDEST MUL OR SWAP1 SSTORE POP PUSH1 0x6 SLOAD PUSH1 0x40 MLOAD PUSH32 0x764216CC87D672D651534A1B124F00F678D3ED29AAF5E649AF8E92590CBF9F11 SWAP2 PUSH2 0x112E SWAP2 PUSH1 0xFF SWAP1 SWAP2 AND SWAP1 PUSH2 0x19A6 JUMP JUMPDEST PUSH1 0x40 MLOAD DUP1 SWAP2 SUB SWAP1 LOG1 POP JUMP JUMPDEST PUSH1 0x6 SLOAD PUSH1 0xFF AND DUP2 JUMP JUMPDEST PUSH2 0x114A PUSH2 0x1202 JUMP JUMPDEST PUSH1 0x1 PUSH1 0x1 PUSH1 0xA0 SHL SUB AND PUSH2 0x115B PUSH2 0xAB7 JUMP JUMPDEST PUSH1 0x1 PUSH1 0x1 PUSH1 0xA0 SHL SUB AND EQ PUSH2 0x1181 JUMPI PUSH1 0x40 MLOAD PUSH3 0x461BCD PUSH1 0xE5 SHL DUP2 MSTORE PUSH1 0x4 ADD PUSH2 0x2F6 SWAP1 PUSH2 0x1C6E JUMP JUMPDEST PUSH1 0x1 PUSH1 0x1 PUSH1 0xA0 SHL SUB DUP2 AND PUSH2 0x11A7 JUMPI PUSH1 0x40 MLOAD PUSH3 0x461BCD PUSH1 0xE5 SHL DUP2 MSTORE PUSH1 0x4 ADD PUSH2 0x2F6 SWAP1 PUSH2 0x1A64 JUMP JUMPDEST PUSH1 0x0 DUP1 SLOAD PUSH1 0x40 MLOAD PUSH1 0x1 PUSH1 0x1 PUSH1 0xA0 SHL SUB DUP1 DUP6 AND SWAP4 SWAP3 AND SWAP2 PUSH32 0x8BE0079C531659141344CD1FD0A4F28419497F9722A3DAAFE3B4186F6B6457E0 SWAP2 LOG3 PUSH1 0x0 DUP1 SLOAD PUSH1 0x1 PUSH1 0x1 PUSH1 0xA0 SHL SUB NOT AND PUSH1 0x1 PUSH1 0x1 PUSH1 0xA0 SHL SUB SWAP3 SWAP1 SWAP3 AND SWAP2 SWAP1 SWAP2 OR SWAP1 SSTORE JUMP JUMPDEST CALLER SWAP1 JUMP JUMPDEST PUSH2 0x125C DUP4 PUSH4 0xA9059CBB PUSH1 0xE0 SHL DUP5 DUP5 PUSH1 0x40 MLOAD PUSH1 0x24 ADD PUSH2 0x1225 SWAP3 SWAP2 SWAP1 PUSH2 0x1873 JUMP JUMPDEST PUSH1 0x40 DUP1 MLOAD PUSH1 0x1F NOT DUP2 DUP5 SUB ADD DUP2 MSTORE SWAP2 SWAP1 MSTORE PUSH1 0x20 DUP2 ADD DUP1 MLOAD PUSH1 0x1 PUSH1 0x1 PUSH1 0xE0 SHL SUB AND PUSH1 0x1 PUSH1 0x1 PUSH1 0xE0 SHL SUB NOT SWAP1 SWAP4 AND SWAP3 SWAP1 SWAP3 OR SWAP1 SWAP2 MSTORE PUSH2 0x1261 JUMP JUMPDEST POP POP POP JUMP JUMPDEST PUSH1 0x60 PUSH2 0x12B6 DUP3 PUSH1 0x40 MLOAD DUP1 PUSH1 0x40 ADD PUSH1 0x40 MSTORE DUP1 PUSH1 0x20 DUP2 MSTORE PUSH1 0x20 ADD PUSH32 0x5361666542455032303A206C6F772D6C6576656C2063616C6C206661696C6564 DUP2 MSTORE POP DUP6 PUSH1 0x1 PUSH1 0x1 PUSH1 0xA0 SHL SUB AND PUSH2 0x12F0 SWAP1 SWAP3 SWAP2 SWAP1 PUSH4 0xFFFFFFFF AND JUMP JUMPDEST DUP1 MLOAD SWAP1 SWAP2 POP ISZERO PUSH2 0x125C JUMPI DUP1 DUP1 PUSH1 0x20 ADD SWAP1 MLOAD DUP2 ADD SWAP1 PUSH2 0x12D4 SWAP2 SWAP1 PUSH2 0x15C3 JUMP JUMPDEST PUSH2 0x125C JUMPI PUSH1 0x40 MLOAD PUSH3 0x461BCD PUSH1 0xE5 SHL DUP2 MSTORE PUSH1 0x4 ADD PUSH2 0x2F6 SWAP1 PUSH2 0x1A1A JUMP JUMPDEST PUSH1 0x60 PUSH2 0x12FF DUP5 DUP5 PUSH1 0x0 DUP6 PUSH2 0x1309 JUMP JUMPDEST SWAP1 POP JUMPDEST SWAP4 SWAP3 POP POP POP JUMP JUMPDEST PUSH1 0x60 DUP3 SELFBALANCE LT ISZERO PUSH2 0x132B JUMPI PUSH1 0x40 MLOAD PUSH3 0x461BCD PUSH1 0xE5 SHL DUP2 MSTORE PUSH1 0x4 ADD PUSH2 0x2F6 SWAP1 PUSH2 0x1B95 JUMP JUMPDEST PUSH2 0x1334 DUP6 PUSH2 0x13CC JUMP JUMPDEST PUSH2 0x1350 JUMPI PUSH1 0x40 MLOAD PUSH3 0x461BCD PUSH1 0xE5 SHL DUP2 MSTORE PUSH1 0x4 ADD PUSH2 0x2F6 SWAP1 PUSH2 0x1D14 JUMP JUMPDEST PUSH1 0x0 PUSH1 0x60 DUP7 PUSH1 0x1 PUSH1 0x1 PUSH1 0xA0 SHL SUB AND DUP6 DUP8 PUSH1 0x40 MLOAD PUSH2 0x136D SWAP2 SWAP1 PUSH2 0x179C JUMP JUMPDEST PUSH1 0x0 PUSH1 0x40 MLOAD DUP1 DUP4 SUB DUP2 DUP6 DUP8 GAS CALL SWAP3 POP POP POP RETURNDATASIZE DUP1 PUSH1 0x0 DUP2 EQ PUSH2 0x13AA JUMPI PUSH1 0x40 MLOAD SWAP2 POP PUSH1 0x1F NOT PUSH1 0x3F RETURNDATASIZE ADD AND DUP3 ADD PUSH1 0x40 MSTORE RETURNDATASIZE DUP3 MSTORE RETURNDATASIZE PUSH1 0x0 PUSH1 0x20 DUP5 ADD RETURNDATACOPY PUSH2 0x13AF JUMP JUMPDEST PUSH1 0x60 SWAP2 POP JUMPDEST POP SWAP2 POP SWAP2 POP PUSH2 0x13BF DUP3 DUP3 DUP7 PUSH2 0x13D2 JUMP JUMPDEST SWAP3 POP POP POP JUMPDEST SWAP5 SWAP4 POP POP POP POP JUMP JUMPDEST EXTCODESIZE ISZERO ISZERO SWAP1 JUMP JUMPDEST PUSH1 0x60 DUP4 ISZERO PUSH2 0x13E1 JUMPI POP DUP2 PUSH2 0x1302 JUMP JUMPDEST DUP3 MLOAD ISZERO PUSH2 0x13F1 JUMPI DUP3 MLOAD DUP1 DUP5 PUSH1 0x20 ADD REVERT JUMPDEST DUP2 PUSH1 0x40 MLOAD PUSH3 0x461BCD PUSH1 0xE5 SHL DUP2 MSTORE PUSH1 0x4 ADD PUSH2 0x2F6 SWAP2 SWAP1 PUSH2 0x19BA JUMP JUMPDEST DUP3 DUP1 SLOAD PUSH1 0x1 DUP2 PUSH1 0x1 AND ISZERO PUSH2 0x100 MUL SUB AND PUSH1 0x2 SWAP1 DIV SWAP1 PUSH1 0x0 MSTORE PUSH1 0x20 PUSH1 0x0 KECCAK256 SWAP1 PUSH1 0x1F ADD PUSH1 0x20 SWAP1 DIV DUP2 ADD SWAP3 DUP3 PUSH1 0x1F LT PUSH2 0x144C JUMPI DUP3 DUP1 ADD PUSH1 0xFF NOT DUP3 CALLDATALOAD AND OR DUP6 SSTORE PUSH2 0x1479 JUMP JUMPDEST DUP3 DUP1 ADD PUSH1 0x1 ADD DUP6 SSTORE DUP3 ISZERO PUSH2 0x1479 JUMPI SWAP2 DUP3 ADD JUMPDEST DUP3 DUP2 GT ISZERO PUSH2 0x1479 JUMPI DUP3 CALLDATALOAD DUP3 SSTORE SWAP2 PUSH1 0x20 ADD SWAP2 SWAP1 PUSH1 0x1 ADD SWAP1 PUSH2 0x145E JUMP JUMPDEST POP PUSH2 0x1485 SWAP3 SWAP2 POP PUSH2 0x14E8 JUMP JUMPDEST POP SWAP1 JUMP JUMPDEST DUP3 PUSH1 0x5 DUP2 ADD SWAP3 DUP3 ISZERO PUSH2 0x1479 JUMPI SWAP2 PUSH1 0x20 MUL DUP3 ADD DUP3 DUP2 GT ISZERO PUSH2 0x1479 JUMPI DUP3 CALLDATALOAD DUP3 SSTORE SWAP2 PUSH1 0x20 ADD SWAP2 SWAP1 PUSH1 0x1 ADD SWAP1 PUSH2 0x145E JUMP JUMPDEST PUSH1 0x40 MLOAD DUP1 PUSH1 0x60 ADD PUSH1 0x40 MSTORE DUP1 PUSH2 0x14C9 PUSH2 0x14FD JUMP JUMPDEST DUP2 MSTORE PUSH1 0x20 ADD PUSH2 0x14D6 PUSH2 0x14FD JUMP JUMPDEST DUP2 MSTORE PUSH1 0x20 ADD PUSH2 0x14E3 PUSH2 0x14FD JUMP JUMPDEST SWAP1 MSTORE SWAP1 JUMP JUMPDEST JUMPDEST DUP1 DUP3 GT ISZERO PUSH2 0x1485 JUMPI PUSH1 0x0 DUP2 SSTORE PUSH1 0x1 ADD PUSH2 0x14E9 JUMP JUMPDEST PUSH1 0x40 MLOAD DUP1 PUSH1 0xA0 ADD PUSH1 0x40 MSTORE DUP1 PUSH1 0x5 SWAP1 PUSH1 0x20 DUP3 MUL DUP1 CALLDATASIZE DUP4 CALLDATACOPY POP SWAP2 SWAP3 SWAP2 POP POP JUMP JUMPDEST DUP1 PUSH1 0xA0 DUP2 ADD DUP4 LT ISZERO PUSH2 0x152C JUMPI PUSH1 0x0 DUP1 REVERT JUMPDEST SWAP3 SWAP2 POP POP JUMP JUMPDEST PUSH1 0x0 PUSH1 0x20 DUP3 DUP5 SUB SLT ISZERO PUSH2 0x1543 JUMPI DUP1 DUP2 REVERT JUMPDEST DUP2 CALLDATALOAD PUSH2 0x1302 DUP2 PUSH2 0x1DE2 JUMP JUMPDEST PUSH1 0x0 DUP1 PUSH1 0x0 PUSH1 0x40 DUP5 DUP7 SUB SLT ISZERO PUSH2 0x1562 JUMPI DUP2 DUP3 REVERT JUMPDEST DUP4 CALLDATALOAD PUSH8 0xFFFFFFFFFFFFFFFF DUP1 DUP3 GT ISZERO PUSH2 0x1579 JUMPI DUP4 DUP5 REVERT JUMPDEST DUP2 DUP7 ADD SWAP2 POP DUP7 PUSH1 0x1F DUP4 ADD SLT PUSH2 0x158C JUMPI DUP4 DUP5 REVERT JUMPDEST DUP2 CALLDATALOAD DUP2 DUP2 GT ISZERO PUSH2 0x159A JUMPI DUP5 DUP6 REVERT JUMPDEST DUP8 PUSH1 0x20 DUP1 DUP4 MUL DUP6 ADD ADD GT ISZERO PUSH2 0x15AD JUMPI DUP5 DUP6 REVERT JUMPDEST PUSH1 0x20 SWAP3 DUP4 ADD SWAP9 SWAP1 SWAP8 POP SWAP6 SWAP1 SWAP2 ADD CALLDATALOAD SWAP5 SWAP4 POP POP POP POP JUMP JUMPDEST PUSH1 0x0 PUSH1 0x20 DUP3 DUP5 SUB SLT ISZERO PUSH2 0x15D4 JUMPI DUP1 DUP2 REVERT JUMPDEST DUP2 MLOAD PUSH2 0x1302 DUP2 PUSH2 0x1DF7 JUMP JUMPDEST PUSH1 0x0 PUSH1 0x20 DUP3 DUP5 SUB SLT ISZERO PUSH2 0x15F0 JUMPI DUP1 DUP2 REVERT JUMPDEST DUP2 CALLDATALOAD PUSH1 0x5 DUP2 LT PUSH2 0x1302 JUMPI DUP2 DUP3 REVERT JUMPDEST PUSH1 0x0 PUSH1 0x20 DUP3 DUP5 SUB SLT ISZERO PUSH2 0x160F JUMPI DUP1 DUP2 REVERT JUMPDEST POP CALLDATALOAD SWAP2 SWAP1 POP JUMP JUMPDEST PUSH1 0x0 PUSH1 0x20 DUP3 DUP5 SUB SLT ISZERO PUSH2 0x1627 JUMPI DUP1 DUP2 REVERT JUMPDEST POP MLOAD SWAP2 SWAP1 POP JUMP JUMPDEST PUSH1 0x0 DUP1 PUSH1 0x0 DUP1 PUSH2 0x200 DUP6 DUP8 SUB SLT ISZERO PUSH2 0x1644 JUMPI DUP1 DUP2 REVERT JUMPDEST DUP5 CALLDATALOAD SWAP4 POP PUSH2 0x1655 DUP7 PUSH1 0x20 DUP8 ADD PUSH2 0x151B JUMP JUMPDEST SWAP3 POP PUSH2 0x1664 DUP7 PUSH1 0xC0 DUP8 ADD PUSH2 0x151B JUMP JUMPDEST SWAP2 POP PUSH2 0x1674 DUP7 PUSH2 0x160 DUP8 ADD PUSH2 0x151B JUMP JUMPDEST SWAP1 POP SWAP3 SWAP6 SWAP2 SWAP5 POP SWAP3 POP JUMP JUMPDEST PUSH1 0x0 DUP1 PUSH1 0x0 DUP1 PUSH1 0x60 DUP6 DUP8 SUB SLT ISZERO PUSH2 0x1694 JUMPI DUP4 DUP5 REVERT JUMPDEST DUP5 CALLDATALOAD SWAP4 POP PUSH1 0x20 DUP6 ADD CALLDATALOAD PUSH8 0xFFFFFFFFFFFFFFFF DUP1 DUP3 GT ISZERO PUSH2 0x16B2 JUMPI DUP5 DUP6 REVERT JUMPDEST DUP2 DUP8 ADD SWAP2 POP DUP8 PUSH1 0x1F DUP4 ADD SLT PUSH2 0x16C5 JUMPI DUP5 DUP6 REVERT JUMPDEST DUP2 CALLDATALOAD DUP2 DUP2 GT ISZERO PUSH2 0x16D3 JUMPI DUP6 DUP7 REVERT JUMPDEST DUP9 PUSH1 0x20 DUP3 DUP6 ADD ADD GT ISZERO PUSH2 0x16E4 JUMPI DUP6 DUP7 REVERT JUMPDEST PUSH1 0x20 DUP4 ADD SWAP6 POP DUP1 SWAP5 POP POP POP POP PUSH1 0x40 DUP6 ADD CALLDATALOAD PUSH1 0xFF DUP2 AND DUP2 EQ PUSH2 0x1703 JUMPI DUP2 DUP3 REVERT JUMPDEST SWAP4 SWAP7 SWAP3 SWAP6 POP SWAP1 SWAP4 POP POP JUMP JUMPDEST PUSH1 0x0 DUP1 PUSH1 0x0 DUP1 PUSH1 0x0 DUP1 PUSH1 0xC0 DUP8 DUP10 SUB SLT ISZERO PUSH2 0x1726 JUMPI DUP2 DUP3 REVERT JUMPDEST DUP7 MLOAD SWAP6 POP PUSH1 0x20 DUP8 ADD MLOAD SWAP5 POP PUSH1 0x40 DUP8 ADD MLOAD SWAP4 POP PUSH1 0x60 DUP8 ADD MLOAD PUSH2 0x1746 DUP2 PUSH2 0x1DE2 JUMP JUMPDEST PUSH1 0x80 DUP9 ADD MLOAD PUSH1 0xA0 DUP10 ADD MLOAD SWAP2 SWAP5 POP SWAP3 POP PUSH2 0x175E DUP2 PUSH2 0x1DF7 JUMP JUMPDEST DUP1 SWAP2 POP POP SWAP3 SWAP6 POP SWAP3 SWAP6 POP SWAP3 SWAP6 JUMP JUMPDEST DUP1 PUSH1 0x0 JUMPDEST PUSH1 0x5 DUP2 LT ISZERO PUSH2 0x178F JUMPI DUP2 MLOAD DUP5 MSTORE PUSH1 0x20 SWAP4 DUP5 ADD SWAP4 SWAP1 SWAP2 ADD SWAP1 PUSH1 0x1 ADD PUSH2 0x1770 JUMP JUMPDEST POP POP POP POP JUMP JUMPDEST PUSH1 0xFF AND SWAP1 MSTORE JUMP JUMPDEST PUSH1 0x0 DUP3 MLOAD PUSH2 0x17AE DUP2 DUP5 PUSH1 0x20 DUP8 ADD PUSH2 0x1DB6 JUMP JUMPDEST SWAP2 SWAP1 SWAP2 ADD SWAP3 SWAP2 POP POP JUMP JUMPDEST PUSH1 0x1 PUSH1 0x1 PUSH1 0xA0 SHL SUB SWAP2 SWAP1 SWAP2 AND DUP2 MSTORE PUSH1 0x20 ADD SWAP1 JUMP JUMPDEST PUSH1 0x0 PUSH1 0x60 DUP3 ADD PUSH1 0x1 DUP1 PUSH1 0xA0 SHL SUB DUP7 AND DUP4 MSTORE PUSH1 0x20 PUSH1 0x60 DUP2 DUP6 ADD MSTORE DUP3 DUP7 SLOAD PUSH1 0x1 DUP1 DUP3 AND PUSH1 0x0 DUP2 EQ PUSH2 0x1802 JUMPI PUSH1 0x1 DUP2 EQ PUSH2 0x1822 JUMPI PUSH2 0x185D JUMP JUMPDEST PUSH2 0x1812 PUSH1 0x7F PUSH1 0x2 DUP6 DIV AND DUP8 PUSH2 0x1D74 JUMP JUMPDEST PUSH1 0xFF NOT DUP5 AND DUP2 MSTORE DUP6 ADD SWAP4 POP PUSH2 0x185D JUMP JUMPDEST PUSH1 0x2 DUP4 DIV PUSH2 0x1830 DUP2 DUP9 PUSH2 0x1D74 JUMP JUMPDEST PUSH2 0x1839 DUP13 PUSH2 0x1DAA JUMP JUMPDEST DUP10 JUMPDEST DUP4 DUP2 LT ISZERO PUSH2 0x1854 JUMPI DUP2 SLOAD DUP4 DUP3 ADD MSTORE SWAP1 DUP6 ADD SWAP1 DUP9 ADD PUSH2 0x183B JUMP JUMPDEST SWAP2 SWAP1 SWAP2 ADD SWAP6 POP POP POP JUMPDEST POP POP POP DUP1 SWAP4 POP POP POP POP PUSH2 0x13C4 PUSH1 0x40 DUP4 ADD DUP5 PUSH2 0x1795 JUMP JUMPDEST PUSH1 0x1 PUSH1 0x1 PUSH1 0xA0 SHL SUB SWAP3 SWAP1 SWAP3 AND DUP3 MSTORE PUSH1 0x20 DUP3 ADD MSTORE PUSH1 0x40 ADD SWAP1 JUMP JUMPDEST PUSH1 0x1 PUSH1 0x1 PUSH1 0xA0 SHL SUB SWAP4 SWAP1 SWAP4 AND DUP4 MSTORE PUSH1 0x20 DUP4 ADD SWAP2 SWAP1 SWAP2 MSTORE PUSH1 0x40 DUP3 ADD MSTORE PUSH1 0x60 ADD SWAP1 JUMP JUMPDEST PUSH1 0x40 DUP1 DUP3 MSTORE DUP2 ADD DUP4 SWAP1 MSTORE PUSH1 0x0 DUP5 PUSH1 0x60 DUP4 ADD DUP3 JUMPDEST DUP7 DUP2 LT ISZERO PUSH2 0x18F0 JUMPI PUSH1 0x20 DUP4 CALLDATALOAD PUSH2 0x18D5 DUP2 PUSH2 0x1DE2 JUMP JUMPDEST PUSH1 0x1 PUSH1 0x1 PUSH1 0xA0 SHL SUB AND DUP4 MSTORE SWAP3 DUP4 ADD SWAP3 SWAP1 SWAP2 ADD SWAP1 PUSH1 0x1 ADD PUSH2 0x18C0 JUMP JUMPDEST POP PUSH1 0x20 SWAP4 SWAP1 SWAP4 ADD SWAP4 SWAP1 SWAP4 MSTORE POP SWAP4 SWAP3 POP POP POP JUMP JUMPDEST PUSH1 0x20 DUP1 DUP3 MSTORE DUP3 MLOAD DUP3 DUP3 ADD DUP2 SWAP1 MSTORE PUSH1 0x0 SWAP2 SWAP1 PUSH1 0x40 SWAP1 DUP2 DUP6 ADD SWAP1 DUP7 DUP5 ADD DUP6 JUMPDEST DUP3 DUP2 LT ISZERO PUSH2 0x196D JUMPI DUP2 MLOAD PUSH2 0x1935 DUP6 DUP3 MLOAD PUSH2 0x176C JUMP JUMPDEST DUP7 DUP2 ADD MLOAD PUSH2 0x1946 PUSH1 0xA0 DUP8 ADD DUP3 PUSH2 0x176C JUMP JUMPDEST POP DUP6 ADD MLOAD PUSH2 0x1958 PUSH2 0x140 DUP7 ADD DUP3 PUSH2 0x176C JUMP JUMPDEST POP PUSH2 0x1E0 SWAP4 SWAP1 SWAP4 ADD SWAP3 SWAP1 DUP6 ADD SWAP1 PUSH1 0x1 ADD PUSH2 0x1920 JUMP JUMPDEST POP SWAP2 SWAP8 SWAP7 POP POP POP POP POP POP POP JUMP JUMPDEST SWAP6 ISZERO ISZERO DUP7 MSTORE SWAP4 ISZERO ISZERO PUSH1 0x20 DUP7 ADD MSTORE PUSH1 0x40 DUP6 ADD SWAP3 SWAP1 SWAP3 MSTORE PUSH1 0x60 DUP5 ADD MSTORE PUSH1 0x80 DUP4 ADD MSTORE ISZERO ISZERO PUSH1 0xA0 DUP3 ADD MSTORE PUSH1 0xC0 ADD SWAP1 JUMP JUMPDEST PUSH1 0x20 DUP2 ADD PUSH1 0x5 DUP4 LT PUSH2 0x19B4 JUMPI INVALID JUMPDEST SWAP2 SWAP1 MSTORE SWAP1 JUMP JUMPDEST PUSH1 0x0 PUSH1 0x20 DUP3 MSTORE DUP3 MLOAD DUP1 PUSH1 0x20 DUP5 ADD MSTORE PUSH2 0x19D9 DUP2 PUSH1 0x40 DUP6 ADD PUSH1 0x20 DUP8 ADD PUSH2 0x1DB6 JUMP JUMPDEST PUSH1 0x1F ADD PUSH1 0x1F NOT AND SWAP2 SWAP1 SWAP2 ADD PUSH1 0x40 ADD SWAP3 SWAP2 POP POP JUMP JUMPDEST PUSH1 0x20 DUP1 DUP3 MSTORE PUSH1 0x13 SWAP1 DUP3 ADD MSTORE PUSH19 0x2727AA2FA4A72FA922A3A4A9AA2920AA24A7A7 PUSH1 0x69 SHL PUSH1 0x40 DUP3 ADD MSTORE PUSH1 0x60 ADD SWAP1 JUMP JUMPDEST PUSH1 0x20 DUP1 DUP3 MSTORE PUSH1 0x2A SWAP1 DUP3 ADD MSTORE PUSH32 0x5361666542455032303A204245503230206F7065726174696F6E20646964206E PUSH1 0x40 DUP3 ADD MSTORE PUSH10 0x1BDD081CDD58D8D95959 PUSH1 0xB2 SHL PUSH1 0x60 DUP3 ADD MSTORE PUSH1 0x80 ADD SWAP1 JUMP JUMPDEST PUSH1 0x20 DUP1 DUP3 MSTORE PUSH1 0x26 SWAP1 DUP3 ADD MSTORE PUSH32 0x4F776E61626C653A206E6577206F776E657220697320746865207A65726F2061 PUSH1 0x40 DUP3 ADD MSTORE PUSH6 0x646472657373 PUSH1 0xD0 SHL PUSH1 0x60 DUP3 ADD MSTORE PUSH1 0x80 ADD SWAP1 JUMP JUMPDEST PUSH1 0x20 DUP1 DUP3 MSTORE PUSH1 0xE SWAP1 DUP3 ADD MSTORE PUSH14 0x1393D517D49151D254D511549151 PUSH1 0x92 SHL PUSH1 0x40 DUP3 ADD MSTORE PUSH1 0x60 ADD SWAP1 JUMP JUMPDEST PUSH1 0x20 DUP1 DUP3 MSTORE PUSH1 0x14 SWAP1 DUP3 ADD MSTORE PUSH20 0x15D25393925391D7D511505357D393D517D4D155 PUSH1 0x62 SHL PUSH1 0x40 DUP3 ADD MSTORE PUSH1 0x60 ADD SWAP1 JUMP JUMPDEST PUSH1 0x20 DUP1 DUP3 MSTORE PUSH1 0xC SWAP1 DUP3 ADD MSTORE PUSH12 0x4E4F545F434C41494D494E47 PUSH1 0xA0 SHL PUSH1 0x40 DUP3 ADD MSTORE PUSH1 0x60 ADD SWAP1 JUMP JUMPDEST PUSH1 0x20 DUP1 DUP3 MSTORE PUSH1 0x8 SWAP1 DUP3 ADD MSTORE PUSH8 0xA89E9EBE90928E9 PUSH1 0xC3 SHL PUSH1 0x40 DUP3 ADD MSTORE PUSH1 0x60 ADD SWAP1 JUMP JUMPDEST PUSH1 0x20 DUP1 DUP3 MSTORE PUSH1 0x8 SWAP1 DUP3 ADD MSTORE PUSH8 0x2727AA2FA7A822A7 PUSH1 0xC1 SHL PUSH1 0x40 DUP3 ADD MSTORE PUSH1 0x60 ADD SWAP1 JUMP JUMPDEST PUSH1 0x20 DUP1 DUP3 MSTORE PUSH1 0x11 SWAP1 DUP3 ADD MSTORE PUSH17 0x1393D517D59053125117D511505357D251 PUSH1 0x7A SHL PUSH1 0x40 DUP3 ADD MSTORE PUSH1 0x60 ADD SWAP1 JUMP JUMPDEST PUSH1 0x20 DUP1 DUP3 MSTORE PUSH1 0x26 SWAP1 DUP3 ADD MSTORE PUSH32 0x416464726573733A20696E73756666696369656E742062616C616E636520666F PUSH1 0x40 DUP3 ADD MSTORE PUSH6 0x1C8818D85B1B PUSH1 0xD2 SHL PUSH1 0x60 DUP3 ADD MSTORE PUSH1 0x80 ADD SWAP1 JUMP JUMPDEST PUSH1 0x20 DUP1 DUP3 MSTORE PUSH1 0xA SWAP1 DUP3 ADD MSTORE PUSH10 0x49445F544F4F5F4C4F57 PUSH1 0xB0 SHL PUSH1 0x40 DUP3 ADD MSTORE PUSH1 0x60 ADD SWAP1 JUMP JUMPDEST PUSH1 0x20 DUP1 DUP3 MSTORE PUSH1 0x8 SWAP1 DUP3 ADD MSTORE PUSH8 0x2727AA2FA7AB22A9 PUSH1 0xC1 SHL PUSH1 0x40 DUP3 ADD MSTORE PUSH1 0x60 ADD SWAP1 JUMP JUMPDEST PUSH1 0x20 DUP1 DUP3 MSTORE PUSH1 0xE SWAP1 DUP3 ADD MSTORE PUSH14 0x121054D7D49151D254D511549151 PUSH1 0x92 SHL PUSH1 0x40 DUP3 ADD MSTORE PUSH1 0x60 ADD SWAP1 JUMP JUMPDEST PUSH1 0x20 DUP1 DUP3 MSTORE PUSH1 0xB SWAP1 DUP3 ADD MSTORE PUSH11 0x121054D7D0D31052535151 PUSH1 0xAA SHL PUSH1 0x40 DUP3 ADD MSTORE PUSH1 0x60 ADD SWAP1 JUMP JUMPDEST PUSH1 0x20 DUP1 DUP3 MSTORE DUP2 DUP2 ADD MSTORE PUSH32 0x4F776E61626C653A2063616C6C6572206973206E6F7420746865206F776E6572 PUSH1 0x40 DUP3 ADD MSTORE PUSH1 0x60 ADD SWAP1 JUMP JUMPDEST PUSH1 0x20 DUP1 DUP3 MSTORE PUSH1 0xA SWAP1 DUP3 ADD MSTORE PUSH10 0x4E4F545F414354495645 PUSH1 0xB0 SHL PUSH1 0x40 DUP3 ADD MSTORE PUSH1 0x60 ADD SWAP1 JUMP JUMPDEST PUSH1 0x20 DUP1 DUP3 MSTORE PUSH1 0xA SWAP1 DUP3 ADD MSTORE PUSH10 0x1393D517D0D313D4D151 PUSH1 0xB2 SHL PUSH1 0x40 DUP3 ADD MSTORE PUSH1 0x60 ADD SWAP1 JUMP JUMPDEST PUSH1 0x20 DUP1 DUP3 MSTORE PUSH1 0xF SWAP1 DUP3 ADD MSTORE PUSH15 0x4E4F545F494E5F434C41494D494E47 PUSH1 0x88 SHL PUSH1 0x40 DUP3 ADD MSTORE PUSH1 0x60 ADD SWAP1 JUMP JUMPDEST PUSH1 0x20 DUP1 DUP3 MSTORE PUSH1 0x1D SWAP1 DUP3 ADD MSTORE PUSH32 0x416464726573733A2063616C6C20746F206E6F6E2D636F6E7472616374000000 PUSH1 0x40 DUP3 ADD MSTORE PUSH1 0x60 ADD SWAP1 JUMP JUMPDEST PUSH1 0x20 DUP1 DUP3 MSTORE PUSH1 0xF SWAP1 DUP3 ADD MSTORE PUSH15 0x24A72FA922A3A4A9AA2920AA24A7A7 PUSH1 0x89 SHL PUSH1 0x40 DUP3 ADD MSTORE PUSH1 0x60 ADD SWAP1 JUMP JUMPDEST SWAP1 DUP2 MSTORE PUSH1 0x20 ADD SWAP1 JUMP JUMPDEST SWAP4 DUP5 MSTORE PUSH1 0x20 DUP5 ADD SWAP3 SWAP1 SWAP3 MSTORE ISZERO ISZERO PUSH1 0x40 DUP4 ADD MSTORE ISZERO ISZERO PUSH1 0x60 DUP3 ADD MSTORE PUSH1 0x80 ADD SWAP1 JUMP JUMPDEST PUSH1 0xFF SWAP2 SWAP1 SWAP2 AND DUP2 MSTORE PUSH1 0x20 ADD SWAP1 JUMP JUMPDEST PUSH1 0x0 SWAP1 DUP2 MSTORE PUSH1 0x20 SWAP1 KECCAK256 SWAP1 JUMP JUMPDEST PUSH1 0x0 JUMPDEST DUP4 DUP2 LT ISZERO PUSH2 0x1DD1 JUMPI DUP2 DUP2 ADD MLOAD DUP4 DUP3 ADD MSTORE PUSH1 0x20 ADD PUSH2 0x1DB9 JUMP JUMPDEST DUP4 DUP2 GT ISZERO PUSH2 0x178F JUMPI POP POP PUSH1 0x0 SWAP2 ADD MSTORE JUMP JUMPDEST PUSH1 0x1 PUSH1 0x1 PUSH1 0xA0 SHL SUB DUP2 AND DUP2 EQ PUSH2 0x800 JUMPI PUSH1 0x0 DUP1 REVERT JUMPDEST DUP1 ISZERO ISZERO DUP2 EQ PUSH2 0x800 JUMPI PUSH1 0x0 DUP1 REVERT INVALID LOG2 PUSH5 0x6970667358 0x22 SLT KECCAK256 MUL DUP12 0xE5 0xB2 0xC9 PUSH11 0x8DB01A1F47EFA90C25680D CODECOPY 0xB7 0xCA PUSH10 0x5AB85281B39E7F85F3 0xB2 PUSH5 0x736F6C6343 STOP MOD 0xC STOP CALLER "
		},
		"gasEstimates": {
			"creation": {
				"codeDepositCost": "1547800",
				"executionCost": "infinite",
				"totalCost": "infinite"
			},
			"external": {
				"claimInformation(address)": "8697",
				"claimRemainder(uint256)": "infinite",
				"claimReward()": "infinite",
				"currentStatus()": "1170",
				"numberTeams()": "273",
				"owner()": "1159",
				"pantherId()": "1109",
				"pantherMintingStation()": "1138",
				"register()": "infinite",
				"renounceOwnership()": "24278",
				"tokenURI()": "infinite",
				"transferOwnership(address)": "24616",
				"unityProfile()": "1181",
				"unsToken()": "1092",
				"updateCompetitionStatus(uint8)": "25966",
				"updateTeamRewards(uint256,uint256[5],uint256[5],uint256[5])": "infinite",
				"updateUserStatusMultiple(address[],uint256)": "infinite",
				"updateWinningTeamAndTokenURIAndPantherId(uint256,string,uint8)": "infinite",
				"userTradingStats(address)": "3095",
				"viewRewardTeams()": "infinite",
				"winningTeamId()": "1094"
			}
		},
		"methodIdentifiers": {
			"claimInformation(address)": "a849d38f",
			"claimRemainder(uint256)": "43d6f88b",
			"claimReward()": "b88a802f",
			"currentStatus()": "ef8a9235",
			"numberTeams()": "3dd452d6",
			"owner()": "8da5cb5b",
			"pantherId()": "0ef162ab",
			"pantherMintingStation()": "141908c8",
			"register()": "1aa3a008",
			"renounceOwnership()": "715018a6",
			"tokenURI()": "3c130d90",
			"transferOwnership(address)": "f2fde38b",
			"unityProfile()": "675934a7",
			"unsToken()": "b702ad9c",
			"updateCompetitionStatus(uint8)": "e8c5408d",
			"updateTeamRewards(uint256,uint256[5],uint256[5],uint256[5])": "7f3684f1",
			"updateUserStatusMultiple(address[],uint256)": "0ae13706",
			"updateWinningTeamAndTokenURIAndPantherId(uint256,string,uint8)": "42fe07e3",
			"userTradingStats(address)": "1de403e3",
			"viewRewardTeams()": "7f8cfbb4",
			"winningTeamId()": "d6948c47"
		}
	},
	"abi": [
		{
			"inputs": [
				{
					"internalType": "address",
					"name": "_unityProfileAddress",
					"type": "address"
				},
				{
					"internalType": "address",
					"name": "_pantherStationAddress",
					"type": "address"
				},
				{
					"internalType": "address",
					"name": "_unsTokenAddress",
					"type": "address"
				}
			],
			"stateMutability": "nonpayable",
			"type": "constructor"
		},
		{
			"anonymous": false,
			"inputs": [
				{
					"indexed": false,
					"internalType": "enum TradingCompV1.CompetitionStatus",
					"name": "status",
					"type": "uint8"
				}
			],
			"name": "NewCompetitionStatus",
			"type": "event"
		},
		{
			"anonymous": false,
			"inputs": [
				{
					"indexed": true,
					"internalType": "address",
					"name": "previousOwner",
					"type": "address"
				},
				{
					"indexed": true,
					"internalType": "address",
					"name": "newOwner",
					"type": "address"
				}
			],
			"name": "OwnershipTransferred",
			"type": "event"
		},
		{
			"anonymous": false,
			"inputs": [
				{
					"indexed": false,
					"internalType": "uint256",
					"name": "teamId",
					"type": "uint256"
				}
			],
			"name": "TeamRewardsUpdate",
			"type": "event"
		},
		{
			"anonymous": false,
			"inputs": [
				{
					"indexed": false,
					"internalType": "address",
					"name": "userAddress",
					"type": "address"
				},
				{
					"indexed": false,
					"internalType": "uint256",
					"name": "teamId",
					"type": "uint256"
				}
			],
			"name": "UserRegister",
			"type": "event"
		},
		{
			"anonymous": false,
			"inputs": [
				{
					"indexed": false,
					"internalType": "address[]",
					"name": "userAddresses",
					"type": "address[]"
				},
				{
					"indexed": false,
					"internalType": "uint256",
					"name": "rewardGroup",
					"type": "uint256"
				}
			],
			"name": "UserUpdateMultiple",
			"type": "event"
		},
		{
			"anonymous": false,
			"inputs": [
				{
					"indexed": false,
					"internalType": "uint256",
					"name": "teamId",
					"type": "uint256"
				}
			],
			"name": "WinningTeam",
			"type": "event"
		},
		{
			"inputs": [
				{
					"internalType": "address",
					"name": "_userAddress",
					"type": "address"
				}
			],
			"name": "claimInformation",
			"outputs": [
				{
					"internalType": "bool",
					"name": "",
					"type": "bool"
				},
				{
					"internalType": "bool",
					"name": "",
					"type": "bool"
				},
				{
					"internalType": "uint256",
					"name": "",
					"type": "uint256"
				},
				{
					"internalType": "uint256",
					"name": "",
					"type": "uint256"
				},
				{
					"internalType": "uint256",
					"name": "",
					"type": "uint256"
				},
				{
					"internalType": "bool",
					"name": "",
					"type": "bool"
				}
			],
			"stateMutability": "view",
			"type": "function"
		},
		{
			"inputs": [
				{
					"internalType": "uint256",
					"name": "_amount",
					"type": "uint256"
				}
			],
			"name": "claimRemainder",
			"outputs": [],
			"stateMutability": "nonpayable",
			"type": "function"
		},
		{
			"inputs": [],
			"name": "claimReward",
			"outputs": [],
			"stateMutability": "nonpayable",
			"type": "function"
		},
		{
			"inputs": [],
			"name": "currentStatus",
			"outputs": [
				{
					"internalType": "enum TradingCompV1.CompetitionStatus",
					"name": "",
					"type": "uint8"
				}
			],
			"stateMutability": "view",
			"type": "function"
		},
		{
			"inputs": [],
			"name": "numberTeams",
			"outputs": [
				{
					"internalType": "uint256",
					"name": "",
					"type": "uint256"
				}
			],
			"stateMutability": "view",
			"type": "function"
		},
		{
			"inputs": [],
			"name": "owner",
			"outputs": [
				{
					"internalType": "address",
					"name": "",
					"type": "address"
				}
			],
			"stateMutability": "view",
			"type": "function"
		},
		{
			"inputs": [],
			"name": "pantherId",
			"outputs": [
				{
					"internalType": "uint8",
					"name": "",
					"type": "uint8"
				}
			],
			"stateMutability": "view",
			"type": "function"
		},
		{
			"inputs": [],
			"name": "pantherMintingStation",
			"outputs": [
				{
					"internalType": "contract PantherMintingStation",
					"name": "",
					"type": "address"
				}
			],
			"stateMutability": "view",
			"type": "function"
		},
		{
			"inputs": [],
			"name": "register",
			"outputs": [],
			"stateMutability": "nonpayable",
			"type": "function"
		},
		{
			"inputs": [],
			"name": "renounceOwnership",
			"outputs": [],
			"stateMutability": "nonpayable",
			"type": "function"
		},
		{
			"inputs": [],
			"name": "tokenURI",
			"outputs": [
				{
					"internalType": "string",
					"name": "",
					"type": "string"
				}
			],
			"stateMutability": "view",
			"type": "function"
		},
		{
			"inputs": [
				{
					"internalType": "address",
					"name": "newOwner",
					"type": "address"
				}
			],
			"name": "transferOwnership",
			"outputs": [],
			"stateMutability": "nonpayable",
			"type": "function"
		},
		{
			"inputs": [],
			"name": "unityProfile",
			"outputs": [
				{
					"internalType": "contract IUnityProfile",
					"name": "",
					"type": "address"
				}
			],
			"stateMutability": "view",
			"type": "function"
		},
		{
			"inputs": [],
			"name": "unsToken",
			"outputs": [
				{
					"internalType": "contract IBEP20",
					"name": "",
					"type": "address"
				}
			],
			"stateMutability": "view",
			"type": "function"
		},
		{
			"inputs": [
				{
					"internalType": "enum TradingCompV1.CompetitionStatus",
					"name": "_status",
					"type": "uint8"
				}
			],
			"name": "updateCompetitionStatus",
			"outputs": [],
			"stateMutability": "nonpayable",
			"type": "function"
		},
		{
			"inputs": [
				{
					"internalType": "uint256",
					"name": "_teamId",
					"type": "uint256"
				},
				{
					"internalType": "uint256[5]",
					"name": "_userCampaignIds",
					"type": "uint256[5]"
				},
				{
					"internalType": "uint256[5]",
					"name": "_unsRewards",
					"type": "uint256[5]"
				},
				{
					"internalType": "uint256[5]",
					"name": "_pointRewards",
					"type": "uint256[5]"
				}
			],
			"name": "updateTeamRewards",
			"outputs": [],
			"stateMutability": "nonpayable",
			"type": "function"
		},
		{
			"inputs": [
				{
					"internalType": "address[]",
					"name": "_addressesToUpdate",
					"type": "address[]"
				},
				{
					"internalType": "uint256",
					"name": "_rewardGroup",
					"type": "uint256"
				}
			],
			"name": "updateUserStatusMultiple",
			"outputs": [],
			"stateMutability": "nonpayable",
			"type": "function"
		},
		{
			"inputs": [
				{
					"internalType": "uint256",
					"name": "_winningTeamId",
					"type": "uint256"
				},
				{
					"internalType": "string",
					"name": "_tokenURI",
					"type": "string"
				},
				{
					"internalType": "uint8",
					"name": "_pantherId",
					"type": "uint8"
				}
			],
			"name": "updateWinningTeamAndTokenURIAndPantherId",
			"outputs": [],
			"stateMutability": "nonpayable",
			"type": "function"
		},
		{
			"inputs": [
				{
					"internalType": "address",
					"name": "",
					"type": "address"
				}
			],
			"name": "userTradingStats",
			"outputs": [
				{
					"internalType": "uint256",
					"name": "rewardGroup",
					"type": "uint256"
				},
				{
					"internalType": "uint256",
					"name": "teamId",
					"type": "uint256"
				},
				{
					"internalType": "bool",
					"name": "hasRegistered",
					"type": "bool"
				},
				{
					"internalType": "bool",
					"name": "hasClaimed",
					"type": "bool"
				}
			],
			"stateMutability": "view",
			"type": "function"
		},
		{
			"inputs": [],
			"name": "viewRewardTeams",
			"outputs": [
				{
					"components": [
						{
							"internalType": "uint256[5]",
							"name": "userCampaignId",
							"type": "uint256[5]"
						},
						{
							"internalType": "uint256[5]",
							"name": "unsRewards",
							"type": "uint256[5]"
						},
						{
							"internalType": "uint256[5]",
							"name": "pointUsers",
							"type": "uint256[5]"
						}
					],
					"internalType": "struct TradingCompV1.CompetitionRewards[]",
					"name": "",
					"type": "tuple[]"
				}
			],
			"stateMutability": "view",
			"type": "function"
		},
		{
			"inputs": [],
			"name": "winningTeamId",
			"outputs": [
				{
					"internalType": "uint256",
					"name": "",
					"type": "uint256"
				}
			],
			"stateMutability": "view",
			"type": "function"
		}
	]
}